:020000040800F2
:10000000000002207D190008FD180008FF180008F4
:100010000119000803190008051900080000000074
:1000200000000000000000000000000007190008A8
:1000300009190008000000000B1900080D1900083C
:10004000CD190008CD190008CD190008CD190008F8
:10005000CD190008CD190008CD190008CD190008E8
:10006000CD190008CD190008CD190008CD190008D8
:10007000CD190008CD190008CD190008CD190008C8
:10008000CD190008CD190008CD190008CD190008B8
:10009000CD190008CD190008CD190008CD190008A8
:1000A000CD190008CD190008CD190008CD19000898
:1000B000CD190008CD190008CD190008CD19000888
:1000C000CD190008CD190008CD190008CD19000878
:1000D000CD190008CD19000815190008CD19000820
:1000E000CD190008CD190008CD190008CD19000858
:1000F000CD190008CD190008CD190008CD19000848
:10010000CD190008CD190008CD190008CD19000837
:10011000CD190008CD190008CD190008CD19000827
:10012000CD190008CD190008CD190008CD19000817
:10013000CD190008CD190008CD190008CD19000807
:10014000CD190008CD190008CD190008CD190008F7
:10015000CD190008CD190008CD190008CD190008E7
:10016000CD190008CD190008CD190008CD190008D7
:10017000CD190008CD190008CD19000800000000B5
:08018000CD190008CD1900089B
:1001880010B5054C237833B9044B13B10448AFF3C9
:1001980000800123237010BD7000002000000000C3
:1001A800541B000808B5034B1BB103490348AFF3C0
:1001B800008008BD0000000074000020541B0008E7
:1001C80053B94AB9002908BF00281CBF4FF0FF31B6
:1001D8004FF0FF3000F06EB9ADF1080C6DE904CEB8
:1001E80000F006F8DDF804E0DDE9022304B070470A
:1001F8002DE9F047089D04468C46002B40F083808B
:100208008A42174647D9B2FA82F242B1C2F12000B7
:1002180024FA00F09140974040EA010C94404FEADC
:100228001748230CBCFBF8F61FFA87FE08FB16C11B
:1002380043EA014306FB0EF1994209D9FB1806F17E
:10024800FF3080F01981994240F21681023E3B440A
:100258005B1AA4B2B3FBF8F008FB103344EA03447A
:1002680000FB0EFEA64509D93C1900F1FF3380F0CA
:100278000581A64540F2028102383C4440EA064026
:10028800A4EB0E0400261DB1D4400023C5E90043A9
:100298003146BDE8F08702B9FFDEB2FA82F2002AE1
:1002A80050D1CB1B4FEA174E1FFA87F80126B3FB34
:1002B800FEFC210C0EFB1C3341EA034108FB0CF346
:1002C8008B4207D979180CF1FF3002D28B4200F229
:1002D800E9808446C91AA3B2B1FBFEF00EFB1011E7
:1002E80043EA014408FB00F8A04507D93C1900F18E
:1002F800FF3302D2A04500F2D9801846A4EB0804C7
:1003080040EA0C40BFE78B4209D9002D00F0B180CC
:100318000026C5E9000130463146BDE8F087B3FA4A
:1003280083F6002E4AD18B4202D3824200F2B88073
:10033800841A61EB030101208C46002DA8D0C5E981
:10034800004CA5E7C2F1200320FA03F6974001FA12
:1003580002F04FEA174ED9403043030CB1FBFEF6CA
:100368001FFA87F80EFB161143EA014306FB08F152
:10037800994204FA02F409D9FB1806F1FF3C80F00F
:100388008D80994240F28A80023E3B445B1A81B2DA
:10039800B3FBFEF00EFB103341EA034100FB08F308
:1003A8008B4207D9791800F1FF3C73D28B4271D97F
:1003B80002383944CB1A40EA064678E7C6F1200CE1
:1003C80003FA06F422FA0CF31C4320FA0CF701FA9C
:1003D80006F34FEA144E21FA0CF11F433B0CB1FB14
:1003E800FEF91FFA84F80EFB191143EA014109FBD3
:1003F80008FA8A4502FA06F200FA06F308D96118E3
:1004080009F1FF3048D28A4546D9A9F102092144A9
:10041800A1EB0A01BFB2B1FBFEF00EFB101147EAD7
:10042800014700FB08F8B84507D9E71900F1FF3183
:100438002ED2B8452CD90238274440EA0940A7EB08
:100448000807A0FB02894F45C64649461AD317D06C
:100458005DB1B3EB0E0267EB010707FA0CFCF24043
:100468004CEA0202F740C5E9002700263146BDE8FC
:10047800F0872E4628460BE70646E9E61846FDE6CD
:100488004345E5D2B8EB020E69EB04010138DFE71A
:100498000846D2E760468DE78146B9E7664675E7C4
:1004A80030464AE7ACF1020C394413E702383C44C1
:1004B80024E700BF704700BF10B504460E4B1878FC
:1004C8004FF47A73B3FBF0F30C4A1068B0FBF3F007
:1004D80000F0A8F868B90F2C01D901200AE0002221
:1004E80021464FF0FF3000F049F8034B5C600020D4
:1004F80000E0012010BD00BF00000020080000201F
:1005080008B50B4B1A6842F400721A601A6842F474
:1005180080621A601A6842F480721A60032000F040
:100528001BF80020FFF7C8FF01F084F9002008BD80
:10053800003C0240034A1168034B1B780B441360CC
:10054800704700BFA000002000000020014B186881
:10055800704700BFA0000020074AD36823F4E06377
:100568001B041B0C000200F4E060034343F0BF636C
:1005780043F40033D360704700ED00E030B4174B0C
:10058800DB68C3F30223C3F10704042C28BF042447
:100598001D1D062D18D9033B4FF0FF3505FA04F44D
:1005A80021EA0401994005FA03F322EA03031943F7
:1005B80000280BDB0901C9B200F1604000F5614079
:1005C80080F8001330BC70470023E5E700F00F0007
:1005D8000901C9B2024B1954F4E700BF00ED00E06D
:1005E80014ED00E0002807DB00F01F02400901239A
:1005F8009340024A42F82030704700BF00E100E013
:1006080000280CDB00F01F02400901239340203032
:10061800034A42F82030BFF34F8FBFF36F8F704704
:1006280000E100E00138B0F1807F0AD2064B586043
:10063800064AF02182F823100020986007221A60E9
:1006480070470120704700BF10E000E000ED00E0B7
:10065800002808DB00F01F024009012393406030A6
:10066800014A42F82030704700E100E000230F2BD8
:1006780000F2D980F0B583B039E0072200E000220B
:10068800B2403A430234684E46F82420674A146858
:10069800EA4324EA05064F6817F4803F01D045EA8B
:1006A8000406624C2660646802EA04064F6817F480
:1006B800003F01D045EA04065C4C6660A46802EA83
:1006C80004064F6817F4801F01D045EA0406574C0A
:1006D800A660E46822404E6816F4001F01D045EA7F
:1006E8000402524CE26001330F2B00F29A8001227F
:1006F8009A400C6804EA020532EA0404F3D14C6813
:10070800661E012E03D9112C01D0122C12D1866835
:100718005F000324BC4026EA0406CC68BC4034438E
:100728008460466826EA02064C68C4F300129A40C0
:1007380032434260C7685E000324B440E24327EABC
:1007480004078C68B4403C43C4604C68022C01D058
:10075800122C13D1DF08083750F827E003F00704FC
:100768004FEA840C0F2404FA0CF42EEA040E0C69E8
:1007780004FA0CF444EA0E0440F8274004681440D4
:100788004A6802F00302B240224302604A6812F04B
:10079800805FA8D000220192254A546C44F480441A
:1007A8005464526C02F480420192019A9C08A61C7F
:1007B8001D4A52F8267003F0030296000F22B24039
:1007C80027EA02071B4A90423FF459AF02F58062BC
:1007D80090421AD002F58062904218D002F58062E9
:1007E800904216D002F58062904214D002F58062E1
:1007F800904212D002F58062904210D002F58062D9
:1008080090423FF43AAF08223AE7012238E7022241
:1008180036E7032234E7042232E7052230E70622CE
:100828002EE703B0F0BD704700380140003C01409E
:1008380000380240000002400AB181617047090493
:1008480081617047002800F0D98170B582B00446F4
:10085800036813F0010F3BD0A64B9B6803F00C0311
:10086800042B2CD0A34B9B6803F00C03082B21D03E
:100878006368B3F5803F4FD0B3F5A02F52D09D4B9E
:100888001A6822F480321A601A6822F480221A60E8
:100898006368002B50D0FFF759FE0546954B1B683F
:1008A80013F4003F14D1FFF751FE401B6428F5D91B
:1008B8000320AAE18F4B5B6813F4800FD8D08D4BCF
:1008C8001B6813F4003F03D06368002B00F0988185
:1008D800236813F0020F54D0864B9B6813F00C0F5B
:1008E8003ED0844B9B6803F00C03082B33D0E3689D
:1008F800002B67D0804B01221A60FFF727FE0546C0
:100908007C4B1B6813F0020F53D1FFF71FFE401BEF
:100918000228F5D9032078E1764A136843F4803336
:100928001360B5E7734B1A6842F480221A601A689C
:1009380042F480321A60ABE7FFF708FE05466D4BBC
:100948001B6813F4003FC3D0FFF700FE401B642868
:10095800F5D9032059E1674B5B6813F4800FC6D1C2
:10096800644B1B6813F0020F03D0E368012B40F0BF
:100978004981604A136823F0F803216943EAC103F7
:100988001360236813F0080F40D0636963B35B4BAF
:1009980001221A60FFF7DAFD0546564B5B6F13F02C
:1009A800020F33D1FFF7D2FD401B0228F5D90320EF
:1009B8002BE1504A136823F0F803216943EAC10385
:1009C8001360DEE74C4B00221A60FFF7BFFD0546B7
:1009D800484B1B6813F0020FD3D0FFF7B7FD401B3D
:1009E8000228F5D9032010E1444B00221A60FFF7D2
:1009F800ADFD05463F4B5B6F13F0020F06D0FFF7C6
:100A0800A5FD401B0228F5D90320FEE0236813F05A
:100A1800040F78D0374B1B6C13F0805F0DD1002387
:100A28000193344B1A6C42F080521A641B6C03F029
:100A380080530193019B012500E00025304B1B6882
:100A480013F4807F21D0A368012B32D0052B36D038
:100A5800284B1A6F22F001021A671A6F22F004025B
:100A68001A67A368002B34D0FFF770FD0646214BA8
:100A78001B6F13F0020F45D1FFF768FD801B41F291
:100A880088339842F3D90320BFE01D4A136843F422
:100A980080731360FFF75AFD0646194B1B6813F461
:100AA800807FD0D1FFF752FD801B0228F5D90320A3
:100AB800ABE0104A136F43F001031367D1E70D4B06
:100AC8001A6F42F004021A671A6F42F001021A679D
:100AD800C7E7FFF73BFD0646064B1B6F13F0020FF7
:100AE80010D0FFF733FD801B41F288339842F3D9C9
:100AF80003208AE00038024000004742800E474247
:100B080000700040E5B9A369002B7DD0464A926881
:100B180002F00C02082A51D0022B17D0434B0022B6
:100B28001A60FFF713FD04463F4B1B6813F0007F64
:100B380042D0FFF70BFD001B0228F5D9032064E023
:100B4800394A136C23F080531364DCE7374B0022D7
:100B58001A60FFF7FBFC0546334B1B6813F0007F58
:100B680006D0FFF7F3FC401B0228F5D903204CE020
:100B7800E369226A1343626A43EA8213A26A52084B
:100B8800013A43EA0243E26A43EA0263264A5360AF
:100B9800264B01221A60FFF7D9FC0446224B1B683A
:100BA80013F0007F06D1FFF7D1FC001B0228F5D90E
:100BB80003202AE0002028E0002026E0012B26D090
:100BC800194B5B6803F48001E269914221D103F07B
:100BD8003F02216A8A421ED1616A47F6C0721A40F2
:100BE8008A421AD103F44032A16A8A4217D103F02B
:100BF8007063E26A934214D1002006E00120704736
:100C0800012002E0012000E0002002B070BD0120B8
:100C1800FBE70120F9E70120F7E70120F5E70120CC
:100C2800F3E70120F1E700BF0038024060004742C7
:100C3800F8B52F4B9B6803F00C03042B53D0082BFB
:100C480053D12B4B5A6802F03F025B6813F4800FB4
:100C580028D0274B5B68C3F3881358010021C01ABA
:100C680061F100018E0146EA906687013C1A66EB45
:100C78000105E90041EA5471E000C01841F10001A2
:100C88004B0243EAD0534402204619460023FFF79B
:100C980097FA174B5B68C3F3014301335B00B0FB62
:100CA800F3F023E0124B5B68C3F388135C01002563
:100CB800E41A65F10005AE0146EA9466A701381BFF
:100CC80066EB0501CC0044EA5074C500E81844F10D
:100CD80000018B0243EA9053840220461946002300
:100CE800FFF76EFAD5E7034800E00348F8BD00BFF8
:100CF8000038024000127A000024F400002800F0B6
:100D08009B8070B50D4604464F4B1B6803F00F03DC
:100D18008B4208D2CBB24C4A1370136803F00F030E
:100D28008B4240F08B80236813F0020F17D013F02A
:100D3800040F04D0454A936843F4E0539360236852
:100D480013F0080F04D0414A936843F4604393605A
:100D58003E4A936823F0F003A1680B43936023682D
:100D680013F0010F32D06368012B21D09A1E012A9B
:100D780025D9364A126812F0020F61D033498A68C1
:100D880022F0030213438B60FFF7E0FB06462F4B6C
:100D98009B6803F00C036268B3EB820F16D0FFF771
:100DA800D5FB801B41F288339842F0D9032042E0FA
:100DB800264A126812F4003FE0D101203BE0234AA2
:100DC800126812F0007FD9D1012034E01E4B1B6855
:100DD80003F00F03AB4207D9EAB21B4B1A701B682A
:100DE80003F00F03AB422DD1236813F0040F06D094
:100DF800164A936823F4E053E1680B439360236831
:100E080013F0080F07D0114A936823F4604321694F
:100E180043EAC1039360FFF70BFF0C4B9B68C3F3D6
:100E280003130B4AD35CD8400A4B18600A4B186866
:100E3800FFF742FB002070BD012070470120FAE750
:100E48000120F8E70120F6E7003C024000380240A4
:100E58006C1B00080800002004000020014B1868E3
:100E6800704700BF0800002008B5FFF7F7FF044BE4
:100E78009B68C3F38223034AD35CD84008BD00BFF4
:100E8800003802407C1B000808B5FFF7E7FF044B59
:100E98009B68C3F34233034AD35CD84008BD00BF04
:100EA800003802407C1B000870B5044602681369CC
:100EB80023F44053C1680B431361836802691343E9
:100EC80042691343C2691A430168CB6823F4164385
:100ED80023F00C031343CB600268536923F4407377
:100EE80081690B435361C369B3F5004F36D003687A
:100EF800654A934200F09A8002F58062934200F0BE
:100F08009580FFF7B1FF0026051846EB06012D185E
:100F180046EB0101CB0043EA5573EA001546194632
:100F280063689A009B0F281846EB0101FFF748F900
:100F3800564DA5FB00325109642303FB11031B0125
:100F48003233A5FB03235B0903F0F00202EB011225
:100F580003F00F03216813448B6093E003684A4A47
:100F6800934233D002F5806293422FD0FFF77CFF83
:100F78000026051846EB06012D1846EB0101CB00AB
:100F880043EA5573EA0015461946626833469218D3
:100F980046EB0303281846EB0101FFF711F93B4D17
:100FA800A5FB00325109642303FB1103DB00323334
:100FB800A5FB03235B095A0002F4F87202EB011245
:100FC80003F00703216813448B605BE0FFF75CFFC5
:100FD8000026051846EB06012D1846EB0101CB004B
:100FE80043EA5573EA001546194662683346921873
:100FF80046EB0303281846EB0101FFF7E1F8234D00
:10100800A5FB00325109642303FB1103DB003233D3
:10101800A5FB03235B095A0002F4F87202EB0112E4
:1010280003F00703216813448B602BE0FFF72CFFC4
:101038000026051846EB06012D1846EB0101CB00EA
:1010480043EA5573EA001546194663689A009B0FF0
:10105800281846EB0101FFF7B3F80C4DA5FB003249
:101068005109642303FB11031B013233A5FB03233E
:101078005B0903F0F00202EB011203F00F03216891
:1010880013448B6070BD00BF001001401F85EB51F9
:1010980058B310B5044690F839300BB3242384F8BC
:1010A80039302268D36823F40053D3602046FFF711
:1010B800FBFE2268136923F4904313612268536985
:1010C80023F02A0353612268D36843F40053D360A2
:1010D8000020E063202384F8393084F83A3010BDCA
:1010E80080F8383000F0C6FBD8E7012070470000D0
:1010F80038B5044603681B681B685D68334B1A885B
:10110800511C1980324BA3FB02135B0903EB8303C9
:10111800A2EBC3039BB27BB1EBB2112B16D0132BFE
:101128001FD163681B681A68D36823F08003D360F3
:10113800636801229A7338BD00224FF48041254824
:10114800FFF77AFB214B00221A80E5E7636800224B
:101158009A7363681B681A68D36843F08003D36086
:10116800E9E723681A892AB39A699B88D5542268C3
:1011780093880133908993FBF0F100FB113393803E
:10118800226853890133538122681389013B1381F3
:10119800236859891A8A9142CDD313229A732368F6
:1011A8000122DA7363681B681A68D36843F0800306
:1011B800D360C0E7236943F00203236101224FF49F
:1011C80080410448FFF738FBB5E700BF8C000020DA
:1011D800CDCCCCCC000C024010B50446036893F982
:1011E8000E30132B22D0112B20D043685A89002AA5
:1011F80039D09A7B002A3DD11969DA888A561B684A
:10120800196802F07F024A604268D38801339089E6
:1012180093FBF0F100FB1133D3806268138901332B
:10122800138162685389013B53810DE0626812683B
:1012380012685360236893F90E30132B05D0112BD5
:101248000AD0236800229A7310BD01224FF400517E
:101258000C48FFF7F1FAF4E700224FF4005109486F
:10126800FFF7EAFAEDE71B681A68D36823F08003F2
:10127800D360E9E71B681A68D36823F08003D3605A
:10128800E2E700BF000C0240F8B5044603681B689B
:101298001B681D68DF6815F00F0609D0C660236952
:1012A80043F00103236194F90800FFF7D1F9F8BD71
:1012B80015F0200F08D017F0200F01D1002304E00B
:1012C800FFF716FF012300E0002315F0800F02D07E
:1012D80017F0800F03D1E660002BE8D1DFE7204646
:1012E800FFF77AFFE660E2E72DE9F04780460F4610
:1012F80091460121384600F067FB0646002861D078
:101308000121384600F060FB8246002869D01C2184
:10131800012000F059FB0446002864D01C2101205C
:1013280000F052FB054600285FD0C4F80080002377
:10133800A380E38027816381A781A373E3730C22D1
:101348002282638223756375A661C0F8008083805A
:10135800C380A0F808904381A0F80C908373C0F86C
:1013680010A01421012000F02FFB064650B30460A2
:101378004560D8F800301F4A934211D01E4A934264
:1013880023D01E4A934223D01D4A934223D01D4A9C
:10139800934223D01C4A934229D14723037201E088
:1013A800252303720024F4603461184D22464FF45B
:1013B80080412846FFF740FA22464FF4005128465C
:1013C800FFF73AFA3046BDE8F08726230372E9E7CB
:1013D80027230372E6E734230372E3E73523037216
:1013E800E0E70646EEE70646ECE70646EAE70026AB
:1013F800E8E700BF001001400044004000480040FA
:10140800004C00400050004000140140000C024015
:1014180008B503681B681A68D36843F02003D360D3
:1014280090F90800FFF7DEF808BD38B5044619B989
:1014380003685B89002B34D023685B89002BFBD0C1
:1014480094F90800FFF7DCF822689169D388CD5633
:10145800EDB20133908993FBF0F100FB1133D38097
:10146800226813890133138122685389013B538110
:101478002368DA7B7AB159895A8A91420BD81122AA
:101488009A7323680022DA7363681B681A68D36842
:1014980043F08003D36094F90800FFF7A3F82846C7
:1014A80038BDFF25FBE770B504460D4643681B8928
:1014B8000AB9DEB246B3002BFDD094F90800FFF755
:1014C8009FF863681A699B88D554626893880133CA
:1014D800908993FBF0F100FB113393806268538984
:1014E8000133538162681389013B138163681E7A53
:1014F8009A7B2AB91B681A68D36843F08003D360C3
:1015080094F90800FFF76EF8304670BD2DE9F04FEA
:101518008DB000240794089409940A940B940194BC
:10152800774B1A6B42F010021A631A6B02F0100222
:101538000192019A02941A6B42F004021A631A6B20
:1015480002F004020292029A03941A6B42F080029B
:101558001A631A6B02F080020392039A04941A6BBE
:1015680042F001021A631A6B02F001020492049A13
:1015780005941A6B42F002021A631A6B02F0020217
:101588000592059A06941A6B42F008021A631B6BBF
:1015980003F008030693069B224608215948FFF7E3
:1015A8004BF9DFF86C81012211464046FFF744F9F8
:1015B800DFF860A122464FF210015046FFF73CF9D0
:1015C800082507950126089609940A9407A94D4805
:1015D800FFF74CF80796089609940A9407A940461D
:1015E800FFF744F807950225089509940A944FF0E7
:1015F800050BCDF82CB007A94046FFF737F807963A
:10160800414B08930994414F07A93846FFF72EF834
:1016180010230793089509940A9406220B9207A9A8
:101628003846FFF723F8E0230793089509940A94AE
:10163800CDF82CB007A93846FFF718F8042207920E
:1016480008940994DFF8D09007A94846FFF70EF8E8
:101658004FF480630793089509940A94CDF82CB049
:1016680007A94846FFF702F84FF2100307930896B8
:1016780009940A9407A95046FEF7F8FF4FF4A453BB
:101688000793089509940A9406220B9207A94046E5
:10169800FEF7ECFF4FF4007307930894099407A929
:1016A8003846FEF7E3FF4FF4E05307930895099493
:1016B8000A940A230B9307A93846FEF7D7FF20237D
:1016C80007930894099407A95046FEF7CFFF4FF4F3
:1016D800107307931223089309960A9404220B9215
:1016E80007A94846FEF7C2FF0795074B08930994D8
:1016F80007A90448FEF7BAFF0DB0BDE8F08F00BF98
:1017080000380240001002400000121000000240A1
:1017180000080240000C02400004024008B50848D6
:10172800084B03604FF4E133436000238360C360D8
:1017380003610C2242618361C361FFF7A9FC08BD04
:10174800A40000200044004030B595B030220021AC
:1017580008A800F06BF900240394049405940694F7
:10176800079401941C4B1A6C42F080521A641B6C4B
:1017780003F080530193019B0294184B1A6842F4BA
:1017880080421A601B6803F480430293029B012382
:1017980008934FF48033099302250E954FF4800384
:1017A8000F93082310934FF4A873119312950723EE
:1017B800139308A8FFF746F80F230393049505949D
:1017C8004FF4A05306934FF480530793052103A8C1
:1017D800FFF794FA15B030BD0038024000700040A1
:1017E80008B5FEF78DFEFFF7AFFFFFF78FFEFFF797
:1017F80095FF024800F004F8FEE700BFA4000020AF
:1018080008B528221146FFF76FFD094B1860FFF74E
:10181800FFFD05E001220146054B1868FFF743FE6E
:101828000021034B1868FFF700FEFF28F8D0F1E706
:10183800E400002000B583B0002100910C4B5A6CE5
:1018480042F480425A645A6C02F480420092009A30
:1018580001911A6C42F080521A641B6C03F0805399
:101868000193019B0720FEF777FE03B05DF804FBA8
:101878000038024010B588B0002303930493059301
:10188800069307930268194B9A4201D008B010BD1D
:101898000024019403F5FA331A6C42F400321A64F6
:1018A8001A6C02F400320192019A02941A6B42F007
:1018B80001021A631B6B03F001030293029B0C23C2
:1018C80003930223049305940323069307230793A2
:1018D80003A90748FEF7CAFE012221462620FEF783
:1018E8004DFE2620FEF77EFED0E700BF00440040F4
:1018F800000002407047FEE7FEE7FEE7FEE770479C
:101908007047704708B5FEF715FE08BD08B5024BCD
:101918001868FFF7B9FC08BDE400002008B50346C5
:101928000B4A126842B10A4A106803446A46934255
:1019380006D8074A136008BD054A06491160F2E750
:1019480000F04AF80C2303604FF0FF30F3E700BFC4
:1019580090000020F8000020054BD3F8882042F4BE
:101968007002C3F888204FF000629A60704700BF89
:1019780000ED00E0DFF834D0002103E00C4B5B58A9
:10198800435004310B480C4B42189A42F6D30B4A89
:1019980002E0002342F8043B094B9A42F9D3FFF7CF
:1019A800DBFF00F01FF8FFF71BFF70470000022065
:1019B800941B000800000020700000207000002028
:1019C800F8000020FEE70000024B0A4601461868AE
:1019D80000F034B80C000020014B1868704700BFB5
:1019E8000C00002070B50D4D0D4C641BA410002692
:1019F800A64209D10B4D0C4C00F0A8F8641BA410AA
:101A08000026A64205D170BD55F8043B984701361B
:101A1800EEE755F8043B98470136F2E78C1B0008BF
:101A28008C1B00088C1B0008901B0008024403460E
:101A3800934200D1704703F8011BF9E713B54A43F5
:101A48001146019200F00AF8044618B1019A0021E3
:101A5800FFF7ECFF204602B010BD0000F8B5CD1C22
:101A680025F0030508350C2D38BF0C25002D06463A
:101A780001DBA94203D90C2333600020F8BD00F034
:101A880057F821490A6814469CB9204F3B6823B986
:101A98002146304600F03CF838602946304600F0D0
:101AA80037F8431C23D10C233360304600F046F846
:101AB800E3E723685B1B17D40B2B03D923601C4473
:101AC800256004E06368A2420CBF0B605360304697
:101AD80000F034F804F10B00231D20F00700C21AAF
:101AE800CCD01B1AA350C9E722466468CCE7C41CB3
:101AF80024F00304A042E3D0211A304600F008F88D
:101B08000130DDD1CFE700BF980000209C00002005
:101B180038B5064D0023044608462B60FFF7FEFE45
:101B2800431C02D12B6803B1236038BDE8000020B4
:101B3800014800F009B800BFF0000020014800F09B
:101B480004B800BFF000002070477047F8B500BF28
:101B5800F8BC08BC9E467047F8B500BFF8BC08BC86
:041B68009E467047DE
:101B6C000000000000000000010203040607080941
:081B7C00000000000102030457
:081B840074E6FF7F0100000080
:041B8C00AD0100089F
:041B900089010008BF
:101B940001000000100000000024F40010000020E8
:101BA4000000000000000000000000000000000031
:101BB4000000000000000000000000000000000021
:101BC4000000000000000000000000000000000011
:101BD4000000000000000000000000000000000001
:101BE40000000000000000000000000000000000F1
:101BF40000000000000000000000000000000000E1
:040000050800197D59
:00000001FF
