:020000040800F2
:1000000000000220B519000835190008371900084A
:10001000391900083B1900083D19000800000000CC
:100020000000000000000000000000003F19000870
:100030004119000800000000431900084519000894
:10004000051A0008051A0008051A0008051A000814
:10005000051A0008051A0008051A0008051A000804
:10006000051A0008051A0008051A0008051A0008F4
:10007000051A0008051A0008051A0008051A0008E4
:10008000051A0008051A0008051A0008051A0008D4
:10009000051A0008051A0008051A0008051A0008C4
:1000A000051A0008051A0008051A0008051A0008B4
:1000B000051A0008051A0008051A0008051A0008A4
:1000C000051A0008051A0008051A0008051A000894
:1000D000051A0008051A00084D190008051A00083D
:1000E000051A0008051A0008051A0008051A000874
:1000F000051A0008051A0008051A0008051A000864
:10010000051A0008051A0008051A0008051A000853
:10011000051A0008051A0008051A0008051A000843
:10012000051A0008051A0008051A0008051A000833
:10013000051A0008051A0008051A0008051A000823
:10014000051A0008051A0008051A0008051A000813
:10015000051A0008051A0008051A0008051A000803
:10016000051A0008051A0008051A0008051A0008F3
:10017000051A0008051A0008051A0008000000000A
:08018000051A0008051A000829
:1001880010B5054C237833B9044B13B10448AFF3C9
:1001980000800123237010BD7000002000000000C3
:1001A800701B000808B5034B1BB103490348AFF3A4
:1001B800008008BD0000000074000020701B0008CB
:1001C80053B94AB9002908BF00281CBF4FF0FF31B6
:1001D8004FF0FF3000F072B9ADF1080C6DE904CEB4
:1001E80000F006F8DDF804E0DDE9022304B070470A
:1001F8002DE9F047089E04468846002B4BD18A42D9
:10020800154667D9B2FA82F24AB1C2F1200701FA5B
:1002180002F320FA07F7954047EA030894404FEAAB
:10022800154E230CB8FBFEF71FFA85FC0EFB17884A
:1002380043EA084307FB0CF1994209D9EB1807F187
:10024800FF3080F01B81994240F21881023F2B4415
:100258005B1AA4B2B3FBFEF00EFB103344EA03446E
:1002680000FB0CFCA44509D92C1900F1FF3380F0E0
:100278000781A44540F2048102382C4440EA074033
:10028800A4EB0C0400271EB1D4400023C6E90043A8
:100298003946BDE8F0878B4209D9002E00F0EB8083
:1002A8000027C6E9000138463946BDE8F087B3FAA9
:1002B80083F7002F47D18B4202D3824200F2FA80A3
:1002C800841A61EB030301209846002EE0D0C6E9AA
:1002D8000048DDE702B9FFDEB2FA82F2002A40F0F8
:1002E8008F80491B4FEA154E1FFA85F80127B1FB8D
:1002F800FEFC230C0EFB1C1143EA014308FB0CF126
:10030800994207D9EB180CF1FF3002D2994200F25A
:10031800CD808446591AA3B2B1FBFEF00EFB10142F
:1003280043EA044408FB00F8A04507D92C1900F15A
:10033800FF3302D2A04500F2B6801846A4EB0804A9
:1003480040EA0C409FE7C7F1200CBB4022FA0CFEA4
:100358004EEA030E01FA07F420FA0CF521FA0CF321
:100368004FEA1E482543B3FBF8F92C0C08FB193358
:100378001FFA8EFA44EA034309FB0AF49C4202FA84
:1003880007F200FA07F10BD91EEB030309F1FF305E
:1003980080F087809C4240F28480A9F1020973446E
:1003A8001B1BADB2B3FBF8F008FB103345EA03445E
:1003B80000FB0AFAA24508D91EEB040400F1FF333A
:1003C8006BD2A24569D90238744440EA0940A0FBBF
:1003D8000289A4EB0A044C45C2464B4654D351D07B
:1003E800002E69D0B1EB0A0564EB030404FA0CFC97
:1003F800FD40FC404CEA0505C6E90054002747E7E4
:10040800C2F1200320FA03F7954001FA02F021FA1D
:1004180003F34FEA154E3843010CB3FBFEF71FFAFE
:1004280085F80EFB173341EA034107FB08F38B42BB
:1004380004FA02F407D9691807F1FF3C2FD28B425E
:100448002DD9023F2944CB1A81B2B3FBFEF00EFB33
:10045800103341EA034100FB08F38B4207D96918BE
:1004680000F1FF3C17D28B4215D902382944C91A2A
:1004780040EA07473BE73746304609E70746E7E6DD
:100488001846FBE64145ABD2B8EB020A69EB0E020F
:1004980001381346A4E76046E9E7184695E767463A
:1004A800D1E781467CE702382C4447E7ACF1020CDF
:1004B8002B442FE7384608E73746E9E6704700BF80
:1004C80010B504460E4B18784FF47A73B3FBF0F36B
:1004D8000C4A1068B0FBF3F000F0A8F868B90F2CCC
:1004E80001D901200AE0002221464FF0FF3000F038
:1004F80049F8034B5C60002000E0012010BD00BFFC
:10050800000000200800002008B50B4B1A6842F4D0
:1005180000721A601A6842F480621A601A6842F41B
:1005280080721A60032000F01BF80020FFF7C8FF54
:1005380001F09EF9002008BD003C0240034A116802
:10054800034B1B780B441360704700BFA0000020CA
:1005580000000020014B1868704700BFA000002071
:10056800074AD36823F4E0631B041B0C000200F461
:10057800E060184340F0BF6040F40030D06070473E
:1005880000ED00E030B4174BDB68C3F30223C3F17E
:100598000704042C28BF04241D1D062D18D9033B6D
:1005A8004FF0FF3505FA04F421EA0401994005FAF1
:1005B80003F322EA0303194300280BDB0901C9B23C
:1005C80000F1604000F5614080F8001330BC7047CE
:1005D8000023E5E700F00F000901C9B2024B1954E6
:1005E800F4E700BF00ED00E014ED00E0002807DBB1
:1005F80000F01F02400901239340024A42F82030CC
:10060800704700BF00E100E000280CDB00F01F028B
:100618004009012393402030034A42F82030BFF3B9
:100628004F8FBFF36F8F704700E100E00138B0F1E2
:10063800807F0AD2064B5860064AF02182F82310C0
:100648000020986007221A6070470120704700BF99
:1006580010E000E000ED00E0002808DB00F01F02D9
:100668004009012393406030014A42F82030704726
:1006780000E100E000230F2B00F2D780F0B583B033
:1006880039E0072200E00022AA403A430234674DCD
:1006980045F82420664A1468F24302EA04054F68C4
:1006A80017F4803F01D046EA0405614C2560646870
:1006B80002EA04054F6817F4003F01D046EA040532
:1006C8005B4C6560A46802EA04054F6817F4801F54
:1006D80001D046EA0405564CA560E46822404D68FE
:1006E80015F4001F01D046EA0402514CE2600133C0
:1006F8000F2B00F2988001229A400C6804EA020647
:10070800B242F4D14C68651E012D03D9112C01D0D9
:10071800122C12D185685F000324BC4025EA040529
:10072800CC68BC402C438460456825EA02054C68C7
:10073800C4F300129A402A434260C4685F0003224F
:10074800BA40D24314408D68BD402543C5604C680B
:10075800022C01D0122C13D1DD08083550F825E001
:1007680003F007044FEA840C0F2404FA0CF42EEA71
:10077800040E0C6904FA0CF444EA0E0440F825400F
:10078800046822404C6804F00304BC402243026021
:100798004A6812F0805FAAD000220192254A546C60
:1007A80044F480445464526C02F480420192019AE9
:1007B8009C08A51C1D4A52F8257003F003029500F9
:1007C8000F22AA4027EA02071B4A90423FF45BAF78
:1007D80002F5806290421AD002F58062904218D0E9
:1007E80002F58062904216D002F58062904214D0E1
:1007F80002F58062904212D002F58062904210D0D9
:1008080002F5806290423FF43CAF08223CE70122A7
:100818003AE7022238E7032236E7042234E70522C2
:1008280032E7062230E703B0F0BD704700380140D8
:10083800003C0140003802400000024012B909049F
:100848008161704781617047002800F0E48170B5CC
:1008580082B00446036813F0010F3BD0A74B9B6896
:1008680003F00C03042B2CD0A44B9B6803F00C035F
:10087800082B21D06368B3F5803F4FD0B3F5A02F84
:1008880052D09E4B1A6822F480321A601A6822F4F9
:1008980080221A606368002B50D0FFF75BFE054684
:1008A800964B1B6813F4003F14D1FFF753FE401B0F
:1008B8006428F5D90320B3E1904B5B6813F4800FEB
:1008C800D8D08E4B1B6813F4003F03D06368002B0D
:1008D80000F0A381236813F0020F55D0874B9B6863
:1008E80013F00C0F3ED0854B9B6803F00C03082BCC
:1008F80033D0E368002B68D0814B01221A60FFF7E0
:1009080029FE05467D4B1B6813F0020F54D1FFF7F3
:1009180021FE401B0228F5D9032081E1774A13689C
:1009280043F480331360B5E7744B1A6842F48022AD
:100938001A601A6842F480321A60ABE7FFF70AFEC1
:1009480005466E4B1B6813F4003FC3D0FFF702FE49
:10095800401B6428F5D9032062E1684B5B6813F4F7
:10096800800FC6D1654B1B6813F0020F04D0E368F3
:10097800012B01D0012053E1604A136823F0F803EA
:10098800216943EAC1031360236813F0080F40D0BC
:10099800636963B35B4B01221A60FFF7DBFD054611
:1009A800564B5B6F13F0020F33D1FFF7D3FD401B9B
:1009B8000228F5D9032033E1504A136823F0F803DD
:1009C800216943EAC1031360DEE74D4B00221A6038
:1009D800FFF7C0FD0546494B1B6813F0020FD3D043
:1009E800FFF7B8FD401B0228F5D9032018E1454B55
:1009F80000221A60FFF7AEFD0546404B5B6F13F00F
:100A0800020F06D0FFF7A6FD401B0228F5D90320E8
:100A180006E1236813F0040F79D0384B1B6C13F0F0
:100A2800805F33D100230193344B1A6C42F080521B
:100A38001A641B6C03F080530193019B0125324B10
:100A48001B6813F4807F23D0A368012B34D0052BB7
:100A580038D02A4B1A6F22F001021A671A6F22F057
:100A680004021A67A368002B36D0FFF773FD064609
:100A7800224B1B6F13F0020F48D1FFF76BFD801B51
:100A880041F288339842F3D90320C9E00025D6E71C
:100A98001D4A136843F480731360FFF75BFD064635
:100AA800194B1B6813F4807FCED1FFF753FD801BD1
:100AB8000228F5D90320B3E0104A136F43F001036D
:100AC8001367CFE70D4B1A6F42F004021A671A6FCB
:100AD80042F001021A67C5E7FFF73CFD0646074BDF
:100AE8001B6F13F0020F11D0FFF734FD801B41F28A
:100AF80088339842F3D9032092E000BF00380240BF
:100B080000004742800E474200700040EDB9A369DB
:100B1800002B00F08480454A926802F00C02082AF3
:100B280051D0022B17D0424B00221A60FFF712FD5A
:100B380004463E4B1B6813F0007F42D0FFF70AFDC6
:100B4800001B0228F5D903206AE0384A136C23F009
:100B580080531364DBE7364B00221A60FFF7FAFC78
:100B68000546324B1B6813F0007F06D0FFF7F2FCF6
:100B7800401B0228F5D9032052E0E369226A134397
:100B8800626A43EA8213A26A5208013A43EA0243BC
:100B9800E26A43EA0263254A5360254B01221A6040
:100BA800FFF7D8FC0446214B1B6813F0007F06D1E1
:100BB800FFF7D0FC001B0228F5D9032030E0002005
:100BC8002EE000202CE0012B2CD0184B5B6803F49E
:100BD8008001E269914201D0012021E003F03F0247
:100BE800216A8A4201D001201AE0616A47F6C07280
:100BF8001A408A4201D0012012E003F44032A16A6F
:100C08008A4201D001200BE003F07063E26A93424C
:100C18000AD0012004E001207047012000E00020F4
:100C280002B070BD0120FBE70020F9E70038024060
:100C380060004742324B9B6803F00C03042B5CD0E6
:100C4800082B01D02F4870472DE9F04B2C4B5A68E0
:100C580002F03F025B6813F4800F2BD0284B5B68CF
:100C6800C3F388131E4600275C010025E41A65EBD0
:100C78000705A90141EA9461A001001B61EB050188
:100C8800CB0043EA5073C400A01943EB07014B02A1
:100C980043EAD0534402204619460023FFF790FA4E
:100CA800174B5B68C3F3014301335B00B0FBF3F000
:100CB800BDE8F08B124B5B68C3F388131E46002710
:100CC8005C010025E41A65EB0705A90141EA946176
:100CD800A001001B61EB0501CB0043EA5073C4007F
:100CE800A01943EB07018B0243EA90538402204684
:100CF80019460023FFF764FAD2E70348704700BF9C
:100D0800003802400024F40000127A00002800F0A5
:100D18009E8070B50446504B1B6803F00F038B424E
:100D280009D2CBB24C4A1370136803F00F038B42FD
:100D380001D0012070BD236813F0020F17D013F003
:100D4800040F04D0454A936843F4E0539360236842
:100D580013F0080F04D0414A936843F4604393604A
:100D68003E4A936823F0F003A068034393600D465E
:100D7800236813F0010F32D06368012B21D09A1E2B
:100D8800012A25D9354A126812F0020F61D0334979
:100D98008A6822F0030213438B60FFF7DBFB0646E9
:100DA8002E4B9B6803F00C036268B3EB820F16D0DE
:100DB800FFF7D0FB801B41F288339842F0D903201B
:100DC800B8E7264A126812F4003FE0D10120B1E7E3
:100DD800224A126812F0007FD9D10120AAE71E4BDF
:100DE8001B6803F00F03AB4209D9EAB21A4B1A7019
:100DF8001B6803F00F03AB4201D001209AE7236878
:100E080013F0040F06D0154A936823F4E053E16801
:100E18000B439360236813F0080F07D00F4A9368B9
:100E280023F46043216943EAC1039360FFF702FF9B
:100E38000A4B9B68C3F30313094AD35CD840094B98
:100E48001860094B1868FFF73BFB002072E7012088
:100E5800704701206EE700BF003C024000380240A6
:100E6800881B00080800002004000020014B1868B7
:100E7800704700BF0800002008B5FFF7F7FF044BD4
:100E88009B68C3F38223034AD35CD84008BD00BFE4
:100E980000380240981B000808B5FFF7E7FF044B2D
:100EA8009B68C3F34233034AD35CD84008BD00BFF4
:100EB80000380240981B00082DE9F04B04460268F0
:100EC800136923F44053C1680B43136183680269B3
:100ED800134342691343C2691A430168CB6823F478
:100EE800164323F00C031343CB600268536923F4C1
:100EF800407381690B435361C369B3F5004F3BD01D
:100F08000368714A934200F0AB8002F58062934215
:100F180000F0A680FFF7B0FF4FF00009061849EB74
:100F2800090716EB000B47EB090C4FEACC0343EA21
:100F38005B734FEACB0293469C4663689A009B0F0B
:100F480010EB0B0049EB0C01FFF73AF95F4DA5FBDD
:100F580000325109642202FB110213013233A5FB4E
:100F680003235B0903F0F00202EB011203F00F0305
:100F7800216813448B60A4E00368534A934239D034
:100F880002F58062934235D0FFF776FF83464FF033
:100F9800000C06184CEB0C0716EB000847EB0C0985
:100FA8004FEAC90343EA58734FEAC8029046994684
:100FB80062680021921841EB01031BEB08004CEB1F
:100FC8000901FFF7FDF8414DA5FB003251096422E4
:100FD80002FB1102D3003233A5FB03235B095A003D
:100FE80002F4F87202EB011203F0070321681344BC
:100FF8008B6066E0FFF750FF80464FF00009061847
:1010080049EB090716EB000B47EB090C4FEACC0339
:1010180043EA5B734FEACB0293469C466268002121
:10102800921841EB010318EB0B0049EB0C01FFF799
:10103800C7F8264DA5FB00325109642202FB1102B4
:10104800D3003233A5FB03235B095A0002F4F8727C
:1010580002EB011203F00703216813448B6030E0B0
:10106800FFF71AFF4FF00009061849EB090716EBBE
:10107800000B47EB090C4FEACC0343EA5B734FEADA
:10108800CB0293469C4663689A009B0F10EB0B00BB
:1010980049EB0C01FFF794F80C4DA5FB0032510900
:1010A800642202FB110213013233A5FB03235B09FF
:1010B80003F0F00202EB011203F00F03216813445E
:1010C8008B60BDE8F08B00BF001001401F85EB511D
:1010D80058B310B5044690F839300BB3242384F87C
:1010E80039302268D36823F40053D3602046FFF7D1
:1010F800E3FE2268136923F490431361226853695D
:1011080023F02A0353612268D36843F40053D36061
:101118000020E063202384F8393084F83A3010BD89
:1011280080F8383000F0C4FBD8E701207047000091
:1011380038B5044603681B681B685D68324B1A881B
:10114800511C1980314BA3FB02135B0903EB83038A
:10115800D900521A92B27AB1EBB2112B15D0132BD7
:101168001ED163681B681A68D36823F08003D360B4
:10117800636801229A7338BD4FF480412448FFF711
:101188005DFB214B00221A80E6E7636800229A7310
:1011980063681B681A68D36843F08003D360EAE782
:1011A80023681A892AB39A699B88D5542268938838
:1011B8000133908993FBF0F100FB1133938022688F
:1011C80053890133538122681389013B13812368B2
:1011D80059891A8A9142CED313229A73236801221D
:1011E800DA7363681B681A68D36843F08003D360B6
:1011F800C1E7236943F00203236101224FF48041D0
:101208000348FFF71BFBB6E78C000020CDCCCCCC05
:10121800000C024010B5036893F90E30132B22D04E
:10122800112B20D043685A89002A3AD09A7B002A89
:101238003ED11969DA888A561B68196802F07F025C
:101248004A604268D3880133948993FBF4F104FB24
:101258001133D3804268138901331381426853895B
:10126800013B53810EE004464268126812685360DD
:10127800036893F90E30132B05D0112B0AD023687D
:1012880000229A7310BD01224FF400510C48FFF759
:10129800D5FAF4E700224FF400510948FFF7CEFAD7
:1012A800EDE71B681A68D36823F08003D360E9E789
:1012B8001B681A68D36823F08003D360E2E700BF95
:1012C800000C0240F8B5044603681B681B681D68DB
:1012D800DF6815F00F0609D0C660236943F00103E3
:1012E800236194F90800FFF7B7F9F8BD15F0200F4E
:1012F80008D017F0200F01D1002304E0FFF718FFF2
:10130800012300E0002315F0800F02D017F0800FB2
:1013180003D1E660002BE0D0E7E72046FFF77AFF2D
:10132800E660E2E72DE9F04707460D4690460121C1
:10133800284600F065FB044600286ED001212846A7
:1013480000F05EFB8246002866D01C21012000F0D8
:1013580057FB0646002863D01C21012000F050FBF3
:10136800814600285ED037600023B380F380358142
:101378007381B581B373F3730C2232827382337530
:101388007375B46107608380C380A0F808804381C7
:10139800A0F80C808373C0F810A01421012000F07D
:1013A8002FFB0446002838D00660C0F804903B683C
:1013B8001E4A934211D01E4A934221D01D4A93429D
:1013C80021D01D4A934221D01C4A934221D01C4A65
:1013D800934229D14723037201E025230372002594
:1013E800E5602561174E2A464FF480413046FFF7E5
:1013F80025FA2A464FF400513046FFF71FFA0CE051
:1014080026230372EBE727230372E8E734230372EA
:10141800E5E735230372E2E704462046BDE8F08796
:101428000446FAE70446F8E70024F6E7001001400E
:101438000044004000480040004C0040005000407C
:1014480000140140000C024008B503681B681A68C4
:10145800D36843F02003D36090F90800FFF7C6F87B
:1014680008BD38B519B903685B89002B35D0036806
:101478005B89002BFBD0044690F90800FFF7C4F8FD
:1014880022689169D388CD56EDB20133908993FBD8
:10149800F0F100FB1133D3802268138901331381E3
:1014A80022685389013B53812368DA7B7AB15989D1
:1014B8005A8A91420BD811229A7323680022DA7350
:1014C80063681B681A68D36843F08003D36094F993
:1014D8000800FFF78BF8284638BDFF25FBE738B52D
:1014E80043681B8912B9DDB2002D2AD0002BFDD02C
:1014F8000D46044690F90800FFF786F863681A69F4
:101508009B88D554626893880133908993FBF0F1E6
:1015180000FB1133938062685389013353816268F9
:101528001389013B138163681D7A9A7B2AB91B686A
:101538001A68D36843F08003D36094F90800FFF772
:1015480055F8284638BD00002DE9F04F8DB000242D
:101558000794089409940A940B940194774B1A6B96
:1015680042F010021A631A6B02F010020192019AFB
:1015780002941A6B42F004021A631A6B02F0040216
:101588000292029A03941A6B42F080021A631A6B51
:1015980002F080020392039A04941A6B42F001024B
:1015A8001A631A6B02F001020492049A05941A6BEA
:1015B80042F002021A631A6B02F002020592059ABF
:1015C80006941A6B42F008021A631B6B03F00803B7
:1015D8000693069B224608215948FFF72FF9012256
:1015E80011465848FFF72AF922464FF2100156488B
:1015F800FFF724F9082507950126089609940A9407
:1016080007A94F48FFF736F80796089609940A94F1
:1016180007A94C48FFF72EF8079502250895099465
:101628000A944FF00508CDF82C8007A94548FFF724
:1016380021F80796DFF81C91CDF820900994434FC4
:1016480007A93846FFF716F8102307930895099459
:101658000A944FF0060BCDF82CB007A93846FFF7CF
:1016680009F8E0230793089509940A94CDF82C808B
:1016780007A93846FEF7FEFF4FF0040ACDF81CA074
:101688000894099407A93248FEF7F4FF4FF48063E1
:101698000793089509940A94CDF82C8007A92C483B
:1016A800FEF7E8FF4FF210030793089609940A948F
:1016B80007A92548FEF7DEFF4FF4A45307930895C2
:1016C80009940A94CDF82CB007A91E48FEF7D2FF5A
:1016D8004FF4007307930894099407A93846FEF756
:1016E800C9FF4FF4E0530793089509940A940A2315
:1016F8000B9307A93846FEF7BDFF202307930894EC
:10170800099407A91048FEF7B5FF4FF41073079323
:101718001223089309960A94CDF82CA007A90C481F
:10172800FEF7A8FF0795CDF82090099407A904486B
:10173800FEF7A0FF0DB0BDE8F08F00BF00380240F3
:101748000010024000080240000C02400000024065
:10175800000402400000121008B50848084B036056
:101768004FF4E133436000238360C36003610C22BC
:1017780042618361C361FFF7ABFC08BDA400002090
:101788000044004030B595B03022002108A800F090
:1017980069F9002403940494059406940794019429
:1017A8001C4B1A6C42F080521A641B6C03F0805375
:1017B8000193019B0294184B1A6842F480421A6004
:1017C8001B6803F480430293029B012308934FF4A0
:1017D8008033099302250E954FF480030F93082355
:1017E80010934FF4A873119312950723139308A825
:1017F800FFF72AF80F230393049505944FF4A05399
:1018080006934FF480530793052103A8FFF77EFA48
:1018180015B030BD003802400070004008B5FEF732
:1018280073FEFFF7AFFFFFF78FFEFFF795FF024844
:1018380000F004F8FEE700BFA400002008B5282245
:101848001146FFF76FFD094B1860FFF7FDFD0021FA
:10185800064B1868FFF705FEFF28F8D0012201465D
:10186800024B1868FFF73BFEF1E700BFE4000020D9
:1018780000B583B0002100910C4B5A6C42F48042B1
:101888005A645A6C02F480420092009A01911A6CD0
:1018980042F080521A641B6C03F080530193019B41
:1018A8000720FEF75DFE03B05DF804FB0038024038
:1018B80010B588B000230393049305930693079308
:1018C8000268184B9A4201D008B010BD0024019458
:1018D80003F5FA331A6C42F400321A641A6C02F4F3
:1018E80000320192019A02941A6B42F001021A63C3
:1018F8001B6B03F001030293029B0C230393022347
:101908000493032306930723079303A90648FEF7C6
:10191800B1FE012221462620FEF734FE2620FEF7DE
:1019280065FED1E700440040000002407047FEE732
:10193800FEE7FEE7FEE770477047704708B5FEF719
:10194800FDFD08BD08B5024B1868FFF7BBFC08BDD4
:10195800E400002008B503460B4A126842B10A4A5F
:10196800106803446A46934206D8074A136008BDC4
:10197800054A06491160F2E700F04AF80C230360B3
:101988004FF0FF30F3E700BF90000020F000002088
:10199800054BD3F8882042F47002C3F888204FF032
:1019A80000629A60704700BF00ED00E0DFF834D0B5
:1019B800002103E00C4B5B58435004310B480C4B9F
:1019C80042189A42F6D30B4A02E0002342F8043B3D
:1019D800094B9A42F9D3FFF7DBFF00F01FF8FFF736
:1019E8001DFF704700000220B01B00080000002007
:1019F8007000002070000020EC000020FEE70000CE
:101A0800024B0A460146186800F034B80C00002062
:101A1800014B1868704700BF0C00002070B50D4ED0
:101A28000D4CA41BA4100025A54209D10B4E0C4C4B
:101A380000F09AF8A41BA4100025A54205D170BD9A
:101A480056F8253098470135EEE756F8253098477F
:101A58000135F2E7A81B0008A81B0008A81B00080E
:101A6800AC1B000802440346934200D1704703F8B8
:101A7800011BF9E738B502FB01F4214600F008F82C
:101A8800054618B122460021FFF7ECFF284638BD6D
:101A980070B5CD1C25F0030508350C2D38BF0C2575
:101AA800002D064601DBA94203D90C233360002030
:101AB80070BD00F057F8214A1468214691B9204CAE
:101AC80023681BB9304600F03DF8206029463046AF
:101AD80000F038F8431C24D10C233360304600F062
:101AE80042F8E4E70B685B1B18D40B2B0FD90B608B
:101AF800CD50CC18304600F036F804F10B00231D09
:101B080020F00700C31AD3D05A42E250D0E78C42E3
:101B18004B6816BF636013600C46EBE70C464968D8
:101B2800CCE7C41C24F00304A04205D0211A304697
:101B380000F008F80130CFD02560DBE798000020DE
:101B48009C00002038B5064C002305460846236053
:101B5800FFF700FF431C02D1236803B12B6038BD97
:101B6800E800002070477047F8B500BFF8BC08BC13
:101B78009E467047F8B500BFF8BC08BC9E46704743
:101B88000000000000000000010203040607080925
:081B980000000000010203043B
:081BA00058E6FF7F0100000080
:041BA800AD01000883
:041BAC0089010008A3
:101BB00001000000100000000024F40010000020CC
:101BC0000000000000000000000000000000000015
:101BD0000000000000000000000000000000000005
:101BE00000000000000000000000000000000000F5
:101BF00000000000000000000000000000000000E5
:101C000000000000000000000000000000000000D4
:101C100000000000000000000000000000000000C4
:04000005080019B521
:00000001FF
