:020000040800F2
:1000000000000220152E0008F52B0008F92B00082F
:10001000FD2B0008012C0008052C00080000000042
:10002000000000000000000000000000092C000893
:100030000D2C000800000000112C0008152C0008F1
:10004000652E0008652E0008652E0008652E000844
:10005000652E0008652E0008652E0008652E000834
:10006000652E0008652E0008652E0008652E000824
:10007000652E0008652E0008652E0008652E000814
:10008000652E0008652E0008192C0008652E000852
:10009000652E0008652E0008652E0008652E0008F4
:1000A000652E0008652E0008652E0008652E0008E4
:1000B000652E0008652E0008652E0008652E0008D4
:1000C000652E0008652E0008652E0008652E0008C4
:1000D000652E0008652E0008652E0008652E0008B4
:1000E000252C0008652E0008652E0008652E0008E6
:1000F000652E0008652E0008652E0008652E000894
:10010000652E0008652E0008652E0008652E000883
:10011000652E0008652E0008652E0008652E000873
:100120002D2C0008652E0008652E0008652E00089D
:10013000392C0008652E0008652E0008652E000881
:10014000652E0008652E0008652E0008652E000843
:10015000652E0008652E0008652E0008652E000833
:10016000652E0008652E0008652E0008652E000823
:10017000652E0008652E0008652E000800000000AE
:08018000652E0008652E000841
:1001900010B5054C237833B9044B13B10448AFF3C1
:1001A00000800123237010BDDC010020000000004E
:1001B000D057000808B5034B1BB103490348AFF300
:1001C000008008BD00000000E0010020D0570008BA
:1001D000034613F8012B002AFBD1181A0138704787
:1001E00001F0FF01102A2BDB10F0070F08D010F8E8
:1001F000013B013A8B422DD010F0070F42B3F6D1EC
:10020000F0B441EA012141EA014122F007047FF004
:1002100000070023F0E80256083C85EA010586EA5B
:10022000010685FA47F5A3FA87F586FA47F6A5FA97
:1002300087F68EB9EED1F0BC01F0FF0102F00702A3
:1002400032B110F8013B013A83EA010313B1F8D14E
:100250000020704701387047002D06BF354603382F
:10026000073815F0010F07D1013015F4807F02BF68
:10027000013015F4C03F0130F0BC0138704700BFB9
:1002800081F0004102E000BF83F0004330B54FEA47
:1002900041044FEA430594EA050F08BF90EA020FB4
:1002A0001FBF54EA000C55EA020C7FEA645C7FEA47
:1002B000655C00F0E2804FEA5454D4EB5555B8BF6A
:1002C0006D420CDD2C4480EA020281EA030382EADB
:1002D000000083EA010180EA020281EA0303362D6D
:1002E00088BF30BD11F0004F4FEA01314FF4801C40
:1002F0004CEA113102D0404261EB410113F0004F52
:100300004FEA03334CEA133302D0524263EB430308
:1003100094EA050F00F0A780A4F10104D5F1200EA6
:100320000DDB02FA0EFC22FA05F2801841F1000101
:1003300003FA0EF2801843FA05F359410EE0A5F1D5
:1003400020050EF1200E012A03FA0EFC28BF4CF006
:10035000020C43FA05F3C01851EBE37101F00045BC
:1003600007D54FF0000EDCF1000C7EEB00006EEBC9
:100370000101B1F5801F1BD3B1F5001F0CD3490853
:100380005FEA30004FEA3C0C04F101044FEA4452AA
:1003900012F5800F80F09A80BCF1004F08BF5FEA31
:1003A000500C50F1000041EB045141EA050130BD11
:1003B0005FEA4C0C404141EB010111F4801FA4F1B4
:1003C0000104E9D191F0000F04BF01460020B1FA09
:1003D00081F308BF2033A3F10B03B3F120020CDA41
:1003E0000C3208DD02F1140CC2F10C0201FA0CF01F
:1003F00021FA02F10CE002F11402D8BFC2F1200C84
:1004000001FA02F120FA0CFCDCBF41EA0C01904039
:10041000E41AA2BF01EB0451294330BD6FEA040482
:100420001F3C1CDA0C340EDC04F11404C4F120026D
:1004300020FA04F001FA02F340EA030021FA04F37F
:1004400045EA030130BDC4F10C04C4F1200220FAD6
:1004500002F001FA04F340EA0300294630BD21FA14
:1004600004F0294630BD94F0000F83F4801306BFDA
:1004700081F480110134013D4EE77FEA645C18BFCE
:100480007FEA655C29D094EA050F08BF90EA020F65
:1004900005D054EA000C04BF1946104630BD91EA5D
:1004A000030F1EBF0021002030BD5FEA545C05D160
:1004B0004000494128BF41F0004130BD14F580049F
:1004C0003CBF01F5801130BD01F0004545F0FE4113
:1004D00041F470014FF0000030BD7FEA645C1ABF48
:1004E000194610467FEA655C1CBF0B46024650EA7F
:1004F000013406BF52EA033591EA030F41F40021AB
:1005000030BD00BF90F0000F04BF0021704730B530
:100510004FF4806404F132044FF000054FF0000105
:1005200050E700BF90F0000F04BF0021704730B5C6
:100530004FF4806404F1320410F0004548BF40429B
:100540004FF000013EE700BF42004FEAE2014FEAF0
:1005500031014FEA02701FBF12F07F4393F07F4FCB
:1005600081F06051704732F07F4208BF704793F0CE
:100570007F4F04BF41F40021704730B54FF46074E1
:1005800001F0004521F000411CE700BF50EA0102E4
:1005900008BF704730B54FF000050AE050EA01028D
:1005A00008BF704730B511F0004502D5404261EBFD
:1005B00041014FF4806404F132045FEA915C3FF43E
:1005C000D8AE4FF003025FEADC0C18BF03325FEADB
:1005D000DC0C18BF033202EBDC02C2F1200300FA8C
:1005E00003FC20FA02F001FA03FE40EA0E0021FAB1
:1005F00002F11444BDE600BF70B54FF0FF0C4CF49F
:10060000E06C1CEA11541DBF1CEA135594EA0C0F50
:1006100095EA0C0F00F0DEF82C4481EA030621EA8B
:100620004C5123EA4C5350EA013518BF52EA0335C6
:1006300041F4801143F4801338D0A0FB02CE4FF078
:100640000005E1FB02E506F00042E0FB03E54FF0A8
:100650000006E1FB03569CF0000F18BF4EF0010EA0
:10066000A4F1FF04B6F5007F64F5407404D25FEA9C
:100670004E0E6D4146EB060642EAC62141EA55514F
:100680004FEAC52040EA5E504FEACE2EB4F1FD0C91
:1006900088BFBCF5E06F1ED8BEF1004F08BF5FEA0F
:1006A000500E50F1000041EB045170BD06F00046C1
:1006B00046EA010140EA020081EA0301B4EB5C046E
:1006C000C2BFD4EB0C0541EA045170BD41F4801166
:1006D0004FF0000E013C00F3AB8014F1360FDEBF8B
:1006E000002001F0004170BDC4F10004203C35DA67
:1006F0000C341BDC04F11404C4F1200500FA05F3EA
:1007000020FA04F001FA05F240EA020001F000428A
:1007100021F0004110EBD37021FA04F642EB060100
:100720005EEA430E08BF20EAD37070BDC4F10C042A
:10073000C4F1200500FA04F320FA05F001FA04F2EE
:1007400040EA020001F0004110EBD37041F10001DA
:100750005EEA430E08BF20EAD37070BDC4F12005E5
:1007600000FA05F24EEA020E20FA04F301FA05F24D
:1007700043EA020321FA04F001F0004121FA04F2F5
:1007800020EA020000EBD3705EEA430E08BF20EAC5
:10079000D37070BD94F0000F0FD101F000464000FF
:1007A00041EB010111F4801F08BF013CF7D041EA81
:1007B000060195F0000F18BF704703F00046520085
:1007C00043EB030313F4801F08BF013DF7D043EA56
:1007D0000603704794EA0C0F0CEA135518BF95EA0C
:1007E0000C0F0CD050EA410618BF52EA4306D1D193
:1007F00081EA030101F000414FF0000070BD50EAB2
:10080000410606BF1046194652EA430619D094EA3B
:100810000C0F02D150EA013613D195EA0C0F05D125
:1008200052EA03361CBF104619460AD181EA030179
:1008300001F0004141F0FE4141F470014FF0000031
:1008400070BD41F0FE4141F4780170BD70B54FF0CC
:10085000FF0C4CF4E06C1CEA11541DBF1CEA13554C
:1008600094EA0C0F95EA0C0F00F0A7F8A4EB05042E
:1008700081EA030E52EA03354FEA013100F0888025
:100880004FEA03334FF0805545EA131343EA1263EE
:100890004FEA022245EA111545EA10654FEA0026A3
:1008A0000EF000419D4208BF964244F1FD0404F55C
:1008B000407402D25B084FEA3202B61A65EB0305B8
:1008C0005B084FEA32024FF480104FF4002CB6EB75
:1008D000020E75EB030E22BFB61A754640EA0C00F5
:1008E0005B084FEA3202B6EB020E75EB030E22BF35
:1008F000B61A754640EA5C005B084FEA3202B6EB76
:10090000020E75EB030E22BFB61A754640EA9C0034
:100910005B084FEA3202B6EB020E75EB030E22BF04
:10092000B61A754640EADC0055EA060E18D04FEAC2
:10093000051545EA16754FEA06164FEAC30343EA62
:1009400052734FEAC2025FEA1C1CC0D111F4801F2F
:100950000BD141EA00014FF000004FF0004CB6E728
:1009600011F4801F04BF01430020B4F1FD0C88BFC7
:10097000BCF5E06F3FF6AFAEB5EB030C04BFB6EBD2
:10098000020C5FEA500C50F1000041EB045170BDC5
:100990000EF0004E4EEA113114EB5C04C2BFD4EBF2
:1009A0000C0541EA045170BD41F480114FF0000E76
:1009B000013C90E645EA060E8DE60CEA135594EAF2
:1009C0000C0F08BF95EA0C0F3FF43BAF94EA0C0FF5
:1009D0000AD150EA01347FF434AF95EA0C0F7FF46A
:1009E00025AF104619462CE795EA0C0F06D152EABE
:1009F00003353FF4FDAE1046194622E750EA4106A2
:100A000018BF52EA43067FF4C5AE50EA41047FF4B2
:100A10000DAF52EA43057FF4EBAE12E74FF0FF3C17
:100A200006E000BF4FF0010C02E000BF4FF0010CE8
:100A30004DF804CD4FEA410C7FEA6C5C4FEA430C61
:100A400018BF7FEA6C5C1BD001B050EA410C0CBFB0
:100A500052EA430C91EA030F02BF90EA020F002012
:100A6000704710F1000F91EA030F58BF994208BF79
:100A700090422CBFD8176FEAE37040F00100704736
:100A80004FEA410C7FEA6C5C02D150EA013C07D18D
:100A90004FEA430C7FEA6C5CD6D152EA033CD3D0D8
:100AA0005DF8040B704700BF8446104662468C46D2
:100AB0001946634600E000BF01B5FFF7B7FF002805
:100AC00048BF10F1000F01BD4DF808EDFFF7F4FF2E
:100AD0000CBF012000205DF808FB00BF4DF808EDB9
:100AE000FFF7EAFF34BF012000205DF808FB00BFDC
:100AF0004DF808EDFFF7E0FF94BF012000205DF8FE
:100B000008FB00BF4DF808EDFFF7CEFF94BF0120B2
:100B100000205DF808FB00BF4DF808EDFFF7C4FFAB
:100B200034BF012000205DF808FB00BF4FEA410CF4
:100B30007FEA6C5C02D150EA013C0AD14FEA430CD7
:100B40007FEA6C5C02D152EA033C02D14FF0000014
:100B500070474FF0010070474FEA410212F5001252
:100B600015D211D56FF47873B3EB625212D94FEAF4
:100B7000C12343F0004343EA505311F0004F23FADE
:100B800002F018BF404270474FF00000704750EA33
:100B9000013005D111F0004008BF6FF000407047F0
:100BA0004FF00000704700BF53B94AB9002908BF91
:100BB00000281CBF4FF0FF314FF0FF3000F072B93A
:100BC000ADF1080C6DE904CE00F006F8DDF804E0A4
:100BD000DDE9022304B070472DE9F047089E044682
:100BE0008846002B4BD18A42154667D9B2FA82F269
:100BF0004AB1C2F1200701FA02F320FA07F7954043
:100C000047EA030894404FEA154E230CB8FBFEF761
:100C10001FFA85FC0EFB178843EA084307FB0CF11B
:100C2000994209D9EB1807F1FF3080F01B819942F6
:100C300040F21881023F2B445B1AA4B2B3FBFEF0D2
:100C40000EFB103344EA034400FB0CFCA44509D915
:100C50002C1900F1FF3380F00781A44540F2048194
:100C600002382C4440EA0740A4EB0C0400271EB1D4
:100C7000D4400023C6E900433946BDE8F0878B42E3
:100C800009D9002E00F0EB800027C6E900013846A4
:100C90003946BDE8F087B3FA83F7002F47D18B427E
:100CA00002D3824200F2FA80841A61EB030301202E
:100CB0009846002EE0D0C6E90048DDE702B9FFDE25
:100CC000B2FA82F2002A40F08F80491B4FEA154E9B
:100CD0001FFA85F80127B1FBFEFC230C0EFB1C114B
:100CE00043EA014308FB0CF1994207D9EB180CF1D8
:100CF000FF3002D2994200F2CD808446591AA3B245
:100D0000B1FBFEF00EFB101443EA044408FB00F8AC
:100D1000A04507D92C1900F1FF3302D2A04500F2FB
:100D2000B6801846A4EB080440EA0C409FE7C7F1E0
:100D3000200CBB4022FA0CFE4EEA030E01FA07F427
:100D400020FA0CF521FA0CF34FEA1E482543B3FBB9
:100D5000F8F92C0C08FB19331FFA8EFA44EA034306
:100D600009FB0AF49C4202FA07F200FA07F10BD9D8
:100D70001EEB030309F1FF3080F087809C4240F2B4
:100D80008480A9F1020973441B1BADB2B3FBF8F0D8
:100D900008FB103345EA034400FB0AFAA24508D9D0
:100DA0001EEB040400F1FF336BD2A24569D902386F
:100DB000744440EA0940A0FB0289A4EB0A044C45B4
:100DC000C2464B4654D351D0002E69D0B1EB0A0530
:100DD00064EB030404FA0CFCFD40FC404CEA0505FE
:100DE000C6E90054002747E7C2F1200320FA03F7C1
:100DF000954001FA02F021FA03F34FEA154E384309
:100E0000010CB3FBFEF71FFA85F80EFB173341EA1E
:100E1000034107FB08F38B4204FA02F407D969186F
:100E200007F1FF3C2FD28B422DD9023F2944CB1A28
:100E300081B2B3FBFEF00EFB103341EA034100FB2D
:100E400008F38B4207D9691800F1FF3C17D28B4297
:100E500015D902382944C91A40EA07473BE7374603
:100E6000304609E70746E7E61846FBE64145ABD2C0
:100E7000B8EB020A69EB0E0201381346A4E760469C
:100E8000E9E7184695E76746D1E781467CE70238EF
:100E90002C4447E7ACF1020C2B442FE7384608E717
:100EA0003746E9E6704700BF70B50E4B0E4D1B6824
:100EB0002A7806464FF47A70B0FBF2F0B3FBF0F0FC
:100EC00000F05CFB08B90F2E01D9012070BD04466B
:100ED000024631464FF0FF3000F00EFB6E602046B8
:100EE00070BD00BF080000200000002008B50B4BBB
:100EF0001A6842F400721A601A6842F480621A603A
:100F00001A6842F480721A60032000F0E3FA0020AD
:100F1000FFF7CAFF01F050FE002008BD003C024070
:100F2000034A044B11681B780B441360704700BFE1
:100F30000802002000000020014B1868704700BF25
:100F40000802002038B50446FFF7F6FF631C05468B
:100F500002D0044B1B781C44FFF7EEFF401BA0425D
:100F6000FAD338BD00000020002800F08E80F8B5CC
:100F7000036C0446002B7ED0236CDB0604D50023D3
:100F8000012084F83C30F8BD226C4C4923684C4D5C
:100F900022F4885222F0020242F0020222644A68DD
:100FA00022F440324A604A68606802434A605868E6
:100FB0002169A768E66820F4807058605A6842EAA0
:100FC00001225A60586820F0407058605968A06A41
:100FD00039435960996821F4006199609A68A84280
:100FE00042EA06029A6052D09968E56A21F070617F
:100FF00099609A6810439860996821F0405199600F
:101000009A682A439A609968A569206A21F00201CA
:1010100099609A6842EA45029A605A6800283FD16E
:1010200022F400625A60DA6AE569276B666922F485
:101030007002DA62D86A013D40EA0550D8629868C9
:1010400020F400709860996841EA47219960996896
:1010500021F4806199609A68002042EA86229A60B1
:101060006064236C23F0030343F001032364002333
:1010700084F83C30F8BD436480F83C3001F060FBFC
:10108000236CDB063FF57BAF7EE7012070479A6853
:1010900022F070629A609A6822F040529A60B2E739
:1010A00042F40062616A5A605A6822F460425A60EF
:1010B0005A68013942EA41325A60B4E700230140DC
:1010C0000100000F10B490F83C3083B00022012BD7
:1010D000019255D0026893680121DB0780F83C102B
:1010E00014D42A4B2A4C1B689168A4FB03439B0C25
:1010F00003EB430341F0010191600193019B2BB18C
:10110000019B013B0193019B002BF9D19368DC0704
:1011100025D5036C23F4E06323F0010343F48073CB
:1011200003645368590505D5036C23F4405343F415
:1011300080530364036C13F480531CBF436C23F08F
:101140000603436400246FF02201124B80F83C40F8
:1011500011605B68DB0607D00F4B9A4204D0002079
:1011600003B05DF8044B7047906810F04050F6D122
:10117000936843F08043936003B05DF8044B70477D
:10118000022003B05DF8044B704700BF0800002048
:1011900083DE1B43002301400020014003689A685E
:1011A000520502D59B68DA0540D470B50D46044659
:1011B000FFF7C2FE06466B1C226825D1136898070C
:1011C000FCD56FF012031360236C43F400732364A7
:1011D000936813F0405F15D1A3699BB9D36A13F4E8
:1011E000700F02D093685B050CD4236C23F48073DA
:1011F0002364206C10F4805004D1236C43F001036D
:10120000236470BD002070BD13689907D9D425B13F
:10121000FFF792FE801BA842CDD9236C002243F039
:101220000403236484F83C200320EAE7036C0022D3
:1012300043F02003036480F83C200120704700BF86
:101240000368D86C704700BF704700BF704700BF8D
:10125000704700BF38B503681A685968044690079C
:1012600001D58A0653D41A685968520701D50D066C
:101270001BD41A685968D00701D54A0606D41A68E3
:101280005968900601D54A0169D438BD1A68D50756
:10129000F5D5236C43F4803323642046FFF7D6FF53
:1012A00023686FF001021A60E9E7226CD00603D4CC
:1012B000226C42F4005222649A6812F4401F1ED13C
:1012C0009A6B12F4401F02D09A68510517D45A68DD
:1012D000520514D49A6812F0405F10D1A26972B915
:1012E0005A6822F080025A60236C23F480532364EE
:1012F000236CDD0503D4236C43F0010323642046F3
:1013000000F0E6F823686FF00C021A60B1E7226C77
:10131000D50603D4226C42F4007222649A6812F05B
:10132000405F14D1A26992B9DA6A12F4700F23D126
:101330005A6822F020025A60236C23F480732364DD
:10134000236CD90403D4236C43F0010323642046A7
:10135000FFF77AFF23686FF012021A6083E7626C6E
:101360006FF0200542F00202626420461D60FFF724
:101370006FFF23681D6038BD9A685005E7D4D7E732
:10138000F0B490F83C3082B00022012B019200F0C2
:1013900095800D688A6803680124092DAFB280F832
:1013A0003C4029D81C6905EB45064FF0070C0CFAA8
:1013B00006FC24EA0C041C611C6902FA06F62643AA
:1013C0001E614E68062E06EB86022AD8596B053A36
:1013D0001F24944021EA04015963596B07FA02F271
:1013E0000A435A63374A93422DD0002380F83C3099
:1013F000184602B0F0BC704707EB4706DC681E3E9B
:101400004FF0070C0CFA06FC24EA0C04DC60DC68E4
:1014100002FA06F62643DE604E68062E06EB8602CA
:10142000D4D90C2E35D8A2F123041F211A6BA14068
:1014300022EA01021A63196B07FA04F20A431A63DB
:10144000204A9342D1D1122D31D0A5F11003012BA6
:10145000CBD81D4A5368102D43F400035360C4D108
:101460001A4B02F1467202F52E321B6802F28332E9
:10147000A2FB03239B0C03EB83035B000193019B03
:10148000002BB2D0019B013B0193019B002BF9D1B2
:10149000ABE7A2F141011F24DA6A8C4022EA040280
:1014A000DA62DC6A07FA01F22243DA629AE7D2F8DA
:1014B000043343F48003C2F8043396E7022002B0F9
:1014C000F0BC7047002001400023014008000020CC
:1014D000704700BF074AD3684FF6FF010B40000278
:1014E00043F0BF6300F4E06043F400330343D36090
:1014F000704700BF00ED00E0184BDB68C3F3022328
:1015000030B4C3F10705042D03F1040428BF0425FA
:10151000062C19D9033B4FF0FF349C4022EA040407
:101520004FF0FF32AA4021EA020101FA03F22243FE
:1015300012010028D2B20ADB00F1604000F56140E0
:1015400080F8002330BC704700242346E8E7044BB2
:1015500000F00F0003441A7630BC704700ED00E045
:10156000FCEC00E000F01F0101234009024A8B401F
:1015700042F82030704700BF00E100E00138B0F1D0
:10158000807F0ED2084B10B4084C5860F02084F8CD
:1015900023000022072110469A6019605DF8044B71
:1015A00070470120704700BF10E000E000ED00E050
:1015B000F8B50446FFF7C0FC002C54D00222236883
:1015C00084F835201A68002122F0010284F83410D2
:1015D00005461A6005E0FFF7AFFC401B05283BD825
:1015E00023681A68D107F6D4D4E90126D4E9035157
:1015F000324360691F682A43D4E906650A430243FF
:10160000216A354832432A430A43616A3840042933
:1016100042EA000229D01A605A6922F007021143F7
:10162000DAB22E485961103AA0FB021212092C4975
:1016300023F47F73895CE16523F00303032A88BFE9
:1016400004333F228A4001250021A36508469A60A1
:10165000616584F83550F8BD032320226265184681
:1016600084F83530F8BD0120F8BDD4E90B01014301
:101670000A43A56A1A605A6945F0040122F007027C
:1016800011430028CCD07EB1B6F5005F16D0022DF4
:1016900003D9032DC4D1C201C2D501234022626502
:1016A000184684F83530F8BD012D03D0F3D3022D50
:1016B000B6D1F0E7B0F1C07FB2D1EEE7032DAFD8DD
:1016C00001A252F825F000BF9B16000897160008EB
:1016D0009B160008B51600083F8010F0ABAAAAAA16
:1016E000E8570008F0B583B00023876D0193C36D00
:1016F0003D68654908229A402A4204460E6803D094
:1017000001680868400759D401229A402A4203D050
:1017100021684969080674D404229A402A4203D0F9
:1017200021680968890766D410229A402A4203D0AA
:101730002168086800074BD420229A402A4214D01E
:1017400021680868C00610D5BA6094F83520052ACB
:1017500063D00B6813F4802F0B687ED0190340F11F
:101760008980E36B0BB120469847636D23B3636DAB
:10177000DA071AD50523226884F8353013684349FF
:1017800023F00103A1FB06161360B60A02E01368FA
:10179000DB0704D5019B0133B3420193F7D9002243
:1017A000012384F8342084F83530E36C23B12046DB
:1017B00003B0BDE8F040184703B0F0BD086820F062
:1017C00004000860BA60626D42F0010262659BE746
:1017D000BA600A6812F4802F0A6818D1D20503D4BF
:1017E0000A6822F008020A60226C002AA4D020466F
:1017F0009047E36DA0E7BA60626D42F00402626553
:1018000092E7BA60626D42F00202626584E71103FA
:10181000EAD5A26C002AEAD18EE70A68206C22F091
:1018200016020A604A6922F080024A6138B30A68E7
:1018300022F008020A603F22216D02FA03F3002021
:101840000122BB6084F8340084F835200029B3D02D
:10185000204603B0BDE8F040084713F4807380D100
:101860000A68012022F010020A6084F8343084F8FB
:10187000350076E7636C002B7FF475AF75E7A26CDB
:10188000002AD4D1D7E700BF08000020B5814E1B45
:101890002DE9F04FDFF830C2DFF83082D1F800E0F8
:1018A00083B0002503E00135102D00F09A8001235C
:1018B000AB400EEA0304A342F5D14E6826F0100AAD
:1018C000BAF1020F00F090804FEA45090322D0F8E8
:1018D00000B002FA09F2D24306F0030702EA0B0B4A
:1018E00007FA09F70AF1FF3A47EA0B07BAF1010FC5
:1018F000076040F29F80C7688B683A4003FA09F39B
:101900001343C360F300CED500230193D8F84430CD
:1019100043F48043C8F84430D8F8443025F003023B
:1019200002F1804203F4804302F59C32019305F0FA
:101930000307019BD2F80890BF000F23BB4029EAA0
:10194000030A5B4B984224D003F58063984200F071
:101950008480584B984200F08780574B984200F0A3
:101960008A80564B984200F08D80554B984200F08B
:101970009080544B984200F09380DFF85491484592
:101980000CBF4FF007094FF0080909FA07F74AEAB8
:10199000070AC2F808A0DCF80030E243F70354BF9E
:1019A00013402343CCF80030DCF80430B70354BFB5
:1019B00013402343CCF80430DCF80830F70254BF5E
:1019C00013402343CCF80830DCF80C30B60205F1A4
:1019D000010554BF13402343102DCCF80C307FF485
:1019E00066AF03B0BDE8F08F4FEAD50900EB890977
:1019F00005F00707D9F82020BF004FF00F0B0BFAB6
:101A000007FB22EA0B0A0A69BA4042EA0A02C9F84D
:101A100020204FEA45090322D0F800A002FA09F27B
:101A2000D24306F0030702EA0A0A07FA09F747EA6F
:101A30000A070760876807EA020ACF6807FA09F70A
:101A400047EA0A078760D0F804A0C6F300172AEA1D
:101A50000303AF401F4347604DE74FF0010909FA08
:101A600007F74AEA070A94E74FF0020909FA07F76D
:101A70004AEA070A8DE74FF0030909FA07F74AEA2D
:101A8000070A86E74FF0040909FA07F74AEA070A46
:101A90007FE74FF0050909FA07F74AEA070A78E7EE
:101AA0004FF0060909FA07F74AEA070A71E700BF8B
:101AB0000000024000080240000C024000100240FA
:101AC0000014024000180240003C0140003802406F
:101AD000001C024002B9090481617047704700BFD1
:101AE000044A5169014200D1704708B55061FFF7BF
:101AF000F5FF08BD003C0140002800F032812DE9CF
:101B0000F0410368DD0782B004462FD5AC498A68EE
:101B100002F00C02042A00F0EA808A6802F00C024B
:101B2000082A00F0E0806368B3F5803F00F0E980A8
:101B3000B3F5A02F00F05481A14D2A6822F4803221
:101B40002A602A6822F480222A60002B40F0DE807E
:101B5000FFF7F2F9064605E0FFF7EEF9801B64286F
:101B600000F2F2802B689B03F6D423689F0775D49C
:101B70001A0715D56369002B00F0A580914B904D95
:101B800001221A60FFF7D8F9064605E0FFF7D4F9FD
:101B9000801B022800F2D8806B6F9B07F6D5236864
:101BA00058073BD5864A136C13F0805340F0DB8016
:101BB0000193136C43F080531364136C03F0805350
:101BC0000193019B0126804D2A68D10540F1AC802C
:101BD000A368012B00F0C980052B00F00B81784D24
:101BE0002A6F22F001022A672A6F22F004022A6774
:101BF000002B40F0BF80FFF79FF941F28837804605
:101C000006E0FFF799F9A0EB0800B84200F29C80CB
:101C10002B6F9807F5D4002E40F0DC80A269CAB182
:101C2000674DA96801F00C01082948D0022A674ACB
:101C30004FF00001116000F0E780FFF77DF92C46BE
:101C4000054604E0FFF778F9401B02287CD823689A
:101C50009B01F7D4002002B0BDE8F081584A91689A
:101C600011F00C0F24D0916801F00C0108291CD050
:101C7000E368002B00F09280554B514D01221A6011
:101C8000FFF75AF9064604E0FFF756F9801B0228D1
:101C90005AD82B689807F7D52B68226923F0F803E8
:101CA00043EAC2032B60236862E752685602DFD41E
:101CB000434A126895074BD5E268012A48D00120B3
:101CC00002B0BDE8F0813F4A3D4D1360FFF734F9A3
:101CD000064604E0FFF730F9801B022834D86B6F0A
:101CE0009F07F7D45BE74A6850027FF51CAF344A80
:101CF000126891037FF53AAF6268002A7FF436AF2D
:101D0000DDE72F4A136843F480331360FFF714F9BB
:101D10002B4D064604E0FFF70FF9801B642813D80B
:101D20002B689A03F7D520E72A6842F480722A606C
:101D3000FFF702F907462B68DA053FF549AFFFF7D1
:101D4000FBF8C01B0228F6D9032002B0BDE8F081E1
:101D50001B4920690A6822F0F80242EAC0020A60C0
:101D600006E70120704700262DE7154A136F43F060
:101D700001031367FFF7E0F8114D804641F2883701
:101D800005E0FFF7D9F8A0EB0800B842DCD82B6FCC
:101D90009B07F6D5002E3FF441AF1BE00C4A084DDF
:101DA0001360FFF7C9F8064604E0FFF7C5F8801B8B
:101DB0000228C9D82B689907F7D42368D8E600BF52
:101DC00000380240800E47420070004060004742E9
:101DD00000004742234A136C23F0805313641DE72D
:101DE000204B1A6842F480221A601A6842F480324A
:101DF0001A608BE71B4B1A6F42F004021A671A6FC6
:101E000042F001021A67B5E7FFF796F8064604E0CC
:101E1000FFF792F8801B022896D82B689901F7D417
:101E2000D4E90736D4E90902E16A0E4C334343EAA8
:101E30008013520843EA0163013A0B4943EA024323
:101E400001226B600A60FFF777F8054605E0FFF7AF
:101E500073F8401B02283FF677AF23689A01F6D546
:101E6000F8E600BF0038024060004742174908B555
:101E70008B6803F00C03042B1BD0082B17D14A6886
:101E80004B6813F4800302F03F0214D149681048F4
:101E9000C1F38811A1FB0001FEF786FE0B4B5B68C6
:101EA000C3F3014301335B00B0FBF3F008BD084806
:101EB00008BD084808BD4B680648C3F38813A3FB58
:101EC00000010023FEF770FEE8E700BF0038024083
:101ED0000024F40000127A0060B1484A136803F04D
:101EE0000F038B4208D2CBB21370136803F00F03B9
:101EF0008B4201D00120704703682DE9F0419D0716
:101F000014D55C0704D53E4CA26842F4E052A260AE
:101F10001A0704D53A4CA26842F46042A260384CD9
:101F20008568A26822F0F0022A43A260DF07044617
:101F30000D4622D54268012A56D0931E012B304B04
:101F40001B6858D9990725D52D4EB36823F0030394
:101F50001343B360FEF7F0FF41F28837804605E097
:101F6000FEF7EAFFA0EB0800B84242D8B368626807
:101F700003F00C03B3EB820FF2D1204A136803F095
:101F80000F03AB4209D9EBB21370136803F00F03D0
:101F9000AB4202D00120BDE8F08123685A0706D584
:101FA0001749E0688A6822F4E05202438A601B07FE
:101FB00011D4FFF75BFF124B12499B68124AC3F31F
:101FC0000313CB5C20FA03F300201360FEF76CFFD1
:101FD0000020BDE8F0810A4A2169936823F4604338
:101FE00043EAC1039360E4E7054B1B689E03ABD44F
:101FF000D0E70320EDE79801A6D4CBE7003C0240F0
:1020000000380240F057000808000020044B054A41
:102010009B680549C3F382230868D35CD8407047A6
:10202000003802400058000808000020044B054A10
:102030009B680549C3F342330868D35CD8407047B6
:10204000003802400058000808000020002800F076
:1020500004812DE9F84390F83930044603F0FF027B
:10206000002B00F0F58023682669242284F83920AB
:10207000D86820F40050D4E90225D8601969E069D5
:1020800021F4405129431961D9686569324321F42B
:1020900016412A4321F00C0102430A43DA605A69CF
:1020A000A16922F440720A43B0F5004F5A61AA4A6E
:1020B00071D0934200F0D38002F58062934200F029
:1020C000CE80FFF7A3FFA54F636800EB800000EB15
:1020D00080009B00B0FBF3F3A7FB03235B091D010A
:1020E000FFF794FF666800EB800000EB8000B6000D
:1020F000B0FBF6F6FFF78AFF636800EB800000EBA9
:1021000080009B00B0FBF3F3A7FB03235B094FF0B8
:10211000640909FB13631B013233A7FB03235B092B
:1021200003F0F006FFF772FF626800EB800000EB3F
:1021300080009300B0FBF3F8FFF768FFD4E90021BB
:1021400000EB80008B0000EB8000B0FBF3F3A7FBFB
:1021500003135B0909FB13831B013233A7FB031332
:10216000C3F3431333432B449360136923F4904325
:102170001361536923F02A035361D368002520219A
:1021800043F40053D3602846E56384F8391084F89B
:102190003A10BDE8F883934200F09F8002F5806218
:1021A000934200F09A80FFF731FF6C4F636800EBB9
:1021B000800000EB80005B00B0FBF3F3A7FB032380
:1021C0005B091E01FFF722FF656800EB800000EB52
:1021D00080006D00B0FBF5F5FFF718FF636800EBBA
:1021E000800000EB80005B00B0FBF3F3A7FB032350
:1021F0005B094FF0640909FB1353DB003233A7FB83
:1022000003231B0903F4F875FFF700FF626800EB76
:10221000800000EB80005300B0FBF3F8FFF7F6FE00
:10222000D4E9002100EB80004B0000EB8000B0FB04
:10223000F3F3A7FB03135B0909FB1383DB003233C2
:10224000A7FB0313C3F3421333442B4493608CE77F
:1022500080F8382000F082FD05E701207047FFF785
:10226000E5FE3E4F636800EB800000EB80009B00C2
:10227000B0FBF3F3A7FB03235B091D01FFF7D6FEB9
:10228000666800EB800000EB8000B600B0FBF6F65D
:10229000FFF7CCFE636800EB800000EB80009B0042
:1022A000B0FBF3F3A7FB03234FF064095B0909FBC1
:1022B00013631B013233A7FB03235B0903F0F00612
:1022C000FFF7B4FE626800EB8000930000EB800033
:1022D000B0FBF3F8FFF7AAFE30E7FFF7A7FE1F4FAA
:1022E000636800EB800000EB80005B00B0FBF3F361
:1022F000A7FB03235B091E01FFF798FE656800EB4F
:10230000800000EB80006D00B0FBF5F5FFF78EFE5E
:10231000636800EB800000EB80005B00B0FBF3F330
:10232000A7FB03234FF064095B0909FB1353DB0090
:102330003233A7FB03231B0903F4F875FFF776FE7E
:10234000626800EB8000530000EB8000B0FBF3F804
:10235000FFF76CFE64E700BF001001401F85EB51E2
:10236000F0B50E4690F83910202983B02DD1002EFB
:102370002ED0019262B31F4690F83830012B0446EC
:1023800023D00023C3630121212380F8381080F873
:102390003930FEF7D1FD019AA284E2842268054615
:1023A000E38C9BB2002B39D0E08CA168013880B25D
:1023B000B1F5805FE08419D0781C3BD1106801062C
:1023C000FCD5337853600136EAE7022003B0F0BD54
:1023D000012003B0F0BD13681B060CD4002F33D0CE
:1023E000FEF7AAFD401B874222682DD3781CF2D14C
:1023F00010680106FCD533882169C3F308035360D4
:102400000029E0D10236CBE713685B060BD4DFB1BD
:10241000FEF792FD401B8742226815D3781CF3D14A
:1024200013685906FCD52023002084F8393084F83D
:102430003800CBE713681B06C3D42FB1FEF77CFD31
:10244000401B87422268B7D2D36823F4D073D3608D
:102450005369202123F0010300250320536184F8F0
:10246000391084F8385084F83A1003B0F0BD00BF3A
:10247000F0B50E4690F83A10202983B032D1002EE4
:1024800033D00192002A30D01F4690F83830012B0B
:10249000044627D00023C3630121222380F838108B
:1024A00080F83A30FEF748FD019AA2850546E2859C
:1024B000E08D80B2002859D0E28DA368013A92B233
:1024C000B3F5805FE2851DD0791C206828D10268B1
:1024D0009206FCD52369721C002B3DD143683370F2
:1024E0001646E5E7022003B0F0BD012003B0F0BDC1
:1024F0001A6890060CD4002F3FD0FEF71DFD401B3C
:10250000874239D3791C2368F2D11A689206FCD528
:1025100022695B6832BBC3F3080326F8023BC7E7B6
:1025200003689B06D6D42FB1FEF706FD401B8742F9
:10253000CAD22068C36823F4D073C36043692022E1
:1025400023F001030021436184F83920032084F83B
:10255000381084F83A20C6E7436803F07F033370ED
:102560001646A5E7DBB226F8013BA1E7202384F855
:10257000380084F83A30B6E72368DA6822F4D0727B
:10258000DA605A69202122F0010200255A610320F5
:1025900084F8391084F8385084F83A10A3E700BF63
:1025A0002DE9F0472E4F2F48DFF8C4A0DFF8C49084
:1025B00082B001F06FF93846FEF784FD00283ED165
:1025C0000A213846FEF7EAFD0646002840D1384683
:1025D000FEF736FE0A21ADF804003846FEF7DEFDB0
:1025E0000646A8BB3846FEF72BFE0DF10408ADF8F1
:1025F000060038F816505046294601F0C3F805EB9E
:10260000850505EB85052D130024AC424FF02A000B
:1026100004F1010488BF202001F0CCF8192CF4D17A
:10262000484601F0AFF88EB10D2001F0C3F86420E8
:10263000FEF788FC3846FEF745FD0028C0D001466D
:10264000094802B0BDE8F04701F09CB80126D0E788
:102650000648314602B0BDE8F04701F093B800BF2C
:102660000C02002008580008145800084C580008B4
:10267000905800089C58000808B50A2001F09AF804
:10268000094801F007F9094801F004F9084801F088
:1026900001F9084801F0FEF8FFF782FF064801F053
:1026A000F9F8002008BD00BFA0580008C058000875
:1026B000D8580008F45800080459000810B51D4BFC
:1026C0001D4A1E491A6084B04FF4803202245A60B9
:1026D0009962002201211846DC619A6000929A6199
:1026E0001A62DA62DA60CDE9012203921961196394
:1026F0005961FEF739FCD0B907240122002369464D
:102700000C480293CDE90042FEF73AFE60B906227A
:10271000022369460748CDE90023FEF731FE08B1E0
:1027200000F048FA04B010BD00F044FAEFE700F002
:1027300041FAE1E70C020020002001400100000FF7
:1027400070B50268274B88B000249A42CDE9034453
:10275000CDE90544079401D008B070BD03F58C3372
:1027600001945A6C204D42F480725A645A6C02F4FF
:1027700080720192019A02941A6B42F001021A636C
:102780001B6B03F001030293C02303A903930646C6
:1027900003231648029A0493FFF77AF81448286036
:1027A0004FF480614FF400624FF4005328466C6090
:1027B000C5E90244C5E907446C62C5E90412AB618E
:1027C000FEF7F6FE58B90022B56311461220AE633B
:1027D000FEF792FE1220FEF7C5FE08B070BD00F0B5
:1027E000E9F9F0E700200140540200200000024017
:1027F0007064024070B582B000221F490192086BDC
:102800001E4B1F4C5A6040F480000863096BDA616C
:1028100001F4800101914FF4806080214FF4007633
:10282000019D1A62C3E90B224FF480551C60996028
:102830004FF480440421032218611846DE60C3E986
:102840000554C3E90912FEF7B3FE08B100F0B2F96E
:10285000002211463820FEF74FFE3820FEF782FE98
:10286000002211463C20FEF747FE3C2002B0BDE8A6
:102870007040FEF777BE00BF00380240B40200206F
:10288000106402402DE9F04F00248FB0CDE90944D7
:10289000CDE90B44854A03940D94116B844F854810
:1028A000DFF81CA2DFF81C82DFF81C9241F0100157
:1028B0001163116B01F01001039103990494116BE2
:1028C00041F004011163116B01F0040104910499BA
:1028D0000594116B41F080011163116B01F08001CF
:1028E000059105990694116B41F001011163116B7B
:1028F00001F00101069106990794116B41F0020164
:102900001163116B01F00201079107990894116B93
:1029100041F008011163126B02F0080208920821CD
:102920002246089DFFF7D6F8012238461146FFF7E8
:10293000D1F8224650464FF21001FFF7CBF801259F
:102940004FF0080B09A95B48CDE909B5CDE90B4467
:10295000FEF79EFF09A938460226CDE90955CDE9C3
:102960000B44FEF795FF052209A938460D92019206
:10297000CDF824B0CDE90B440A96FEF789FF09A9EA
:1029800040464D4B0A9309950B94FEF781FF1023A7
:1029900009A940460993CDE90A45FEF779FF019A56
:1029A0000D9209A92022404609924FF0040BCDE96F
:1029B0000A640C94FEF76CFF09A94846CDE90A4465
:1029C000CDF824B0FEF764FF019A0D9209A948469C
:1029D0004FF480630993CDE90A640C94FEF758FF25
:1029E000364A0B954FF4004309A94846CDE9093210
:1029F000FEF74EFF09A950464FF210020992CDE9A9
:102A00000A540C94FEF744FF09A93846C0220992E3
:102A1000CDE90A45FEF73CFF09A940464FF4007294
:102A20000992CDE90A44FEF733FF4FF4E0534046E4
:102A300009A90A2209930D92CDE90A640C94FEF7C4
:102A400027FF384609A906224FF4A05709970D928F
:102A5000CDE90A640C94FEF71BFF504609A9202219
:102A6000CDE909240B944FF41077FEF711FF1222E1
:102A7000484609A9CDE90972CDE90B54CDF834B027
:102A8000FEF706FF0C4B0B480B9409A9CDE909632F
:102A9000FEF7FEFE224621462820FEF72DFD2820C7
:102AA000FEF760FD0FB0BDE8F08F00BF00380240B8
:102AB0000008024000100240000012100000211027
:102AC000000C0240000002400004024070B50024E7
:102AD00094B0CDE90A44CDE90C44CDE90444CDE9F4
:102AE00006441E4A01940394116C1D4B41F0805121
:102AF0001164126C02F080520192019A02941A68D9
:102B000042F480421A601B6803F48043029301215F
:102B10004FF480324FF48003022502980891099205
:102B200008214FF4A8720F9308A80723109111925F
:102B300013930E9512950F26FEF7DEFF4FF4A05269
:102B40004FF4805303A80521049505940396CDE91D
:102B50000623FFF7C1F914B070BD00BF0038024072
:102B600000700040124C08B5FEF7C0F9FFF7AEFF49
:102B7000FFF788FEFFF73EFE00F0D4F8FFF79EFD5A
:102B80002268002319465068022200F08BFE22685A
:102B9000002319469068022200F084FE2268002378
:102BA000D0681946022200F07DFEFFF765FDFEE7C2
:102BB0000C000020704700BF82B00D4B0021009137
:102BC0005A6C42F480425A645A6C02F48042009279
:102BD000009A01911A6C42F080521A641B6C03F047
:102BE00080530193019B072002B0FEF773BC00BF26
:102BF00000380240704700BFFEE700BFFEE700BF9D
:102C0000FEE700BFFEE700BF704700BF704700BF90
:102C1000704700BFFEF784B90148FEF71BBB00BF39
:102C20000C0200204FF40040FEF75ABF0148FEF7A7
:102C300059BD00BFB40200200148FEF753BD00BFDC
:102C40005402002070B5161E07DD0C468D1900F0E9
:102C5000CFF804F8010BA542F9D1304670BD00BF92
:102C600070B5161E07DD0C468D1914F8010B00F027
:102C7000ADF8AC42F9D1304670BD00BF0C4A08B582
:102C8000136833B118446946884208D81060184662
:102C900008BD084B1360184469468842F6D900F015
:102CA000E3F80C2303604FF0FF33184608BD00BF64
:102CB000F8010020580300204FF0FF30704700BF9C
:102CC0004FF400534B600020704700BF0120704755
:102CD000002070471049114BD1F8882042F470024F
:102CE00010B4C1F888201A680D4C002042F001028F
:102CF0001A6098601A6822F0847222F480321A6096
:102D00005C601A684FF0006422F480221A60D86078
:102D10008C605DF8044B704700ED00E00038024025
:102D2000103000240B4B0C4A10B50C211A604FF4E4
:102D3000E134002218465C605961C3E902221A613D
:102D4000C3E90622FFF782F900B910BDBDE81040C3
:102D5000FFF730BF140300200044004070B5016845
:102D6000184A88B000239142CDE90333CDE90533F9
:102D7000079301D008B070BD02F5FA320193116CCF
:102D8000114841F400311164116C01F400310191DA
:102D900001990293136B43F001031363136B03F068
:102DA000010302930C230322039303A907230225A3
:102DB0000124029ECDE90454CDE90623FEF768FD07
:102DC00008B070BD004400400000024000B583B070
:102DD00002A94FF0FF3341F8040D01220348FFF729
:102DE000BFFA012003B05DF804FB00BF140300200C
:102DF00000B583B04FF0FF3301220DF10701044805
:102E0000FFF736FB9DF8070003B05DF804FB00BF39
:102E100014030020DFF834D0002103E00C4B5B5892
:102E2000435004310B480C4B42189A42F6D30B4ADC
:102E300002E0002342F8043B094B9A42F9D3FFF722
:102E400049FF00F017F8FFF78DFE704700000220E1
:102E5000E05B000800000020DC010020DC01002015
:102E600058030020FEE70000014B1868704700BFC0
:102E70000C00002070B50D4E0D4CA41BA4100025B5
:102E8000A54209D10B4E0C4C02F0A2FCA41BA410CD
:102E90000025A54205D170BD56F82530984701356B
:102EA000EEE756F8253098470135F2E7D85B000881
:102EB000D85B0008D85B0008DC5B000802440346CE
:102EC000934200D1704703F8011BF9E72DE9FF4752
:102ED00055EC104B0D9FDDF830A0002D0E469146AD
:102EE0001946B8BF22462B4627F02007BBBF05F185
:102EF00000431D4600232D23B8BF1446462F0B70F8
:102F000004D0452F00D10136022100E0032103AB9C
:102F1000019302AB00933246534645EC104B00F050
:102F2000BBFE472F804602D119F0010F26D0462F55
:102F300008EB060911D198F80030302B0AD1002295
:102F4000002320462946FDF7BFFD18B9C6F101064A
:102F5000CAF80060DAF800309944002200232046C5
:102F60002946FDF7B1FD38B93022039B4B4505D208
:102F7000591C03911A70F8E7CDF80C90039B0E9A38
:102F8000A3EB08034046136004B0BDE8F087F7B533
:102F900000290446BABF49422D232B23092904F8EE
:102FA000022B437020DD0DF107031F460A2691FB1B
:102FB000F6F506FB15113031092D03F8011C03F15C
:102FC000FF32294609DC3031023B02F8011CBB42CA
:102FD000224604D3101A03B0F0BD1346E7E713F8F6
:102FE000012B04F8012BF2E7302319448370021DF2
:102FF000C170EFE72DE9F04F8DB00C46DDF8588039
:1030000016461F46054601F079FD036804931846ED
:10301000FDF7DEF800230A93D8F800300590073357
:1030200023F0070303F1080294F818A0D4F800B0C5
:10303000C8F80020D3E90023C4E91223D4E9128997
:1030400029F000430793CDF818804FF0FF32A74BCB
:10305000DDE90601FDF76AFD70BB4FF0FF32A34BBF
:10306000DDE90601FDF744FD30BB002200234046A8
:103070004946FDF733FD10B12D2384F843309C4AB7
:103080009C4BBAF1470F8CBF9046984603232BF018
:103090000402236122604FF00009009733460BAA17
:1030A0002146284600F0E6F9013040F08D804FF0CF
:1030B000FF300DB0BDE8F08F42464B4640464946D2
:1030C000FDF734FD10B18C4A8C4BDAE761684B1C7C
:1030D0004BF480620AA83ED1062363600023CDE949
:1030E000020309AB009349EC108B0DF1230322601E
:1030F000CDF804A061682846FFF7E8FE0AF0DF0378
:10310000472B804609D1099BD81C02DB6268934299
:1031100047DDAAF1020A5FFA8AFABAF1650F099946
:1031200024D80139524604F150000991FFF72FFFCE
:103130000A9A1318012A8146236102DC2268D1070A
:1031400001D5013323619DF82330002BA5D02D2319
:1031500084F84330A1E7BAF1670F00F07781BAF144
:10316000470FBBD10029B9D10123B6E7BAF1660FE9
:1031700019D1002963680CDD216113B92268D207D7
:1031800002D501330B442361099BA3654FF000096D
:10319000D9E713B92268D00701D50233F3E7012339
:1031A000F1E74FF0670ADDE90932934205DB226857
:1031B0002361D107E8D50133E5E7002BD4BFC3F184
:1031C000020301231344DEE723685A0507D4236969
:1031D000424631462846B84701302BD167E7BAF15D
:1031E000650F40F2DC8000220023D4E91201FDF7D4
:1031F0006BFC002833D00123414A31462846B847AA
:1032000001303FF454AFDDE909239A4202DB236821
:10321000D8070FD5DDE9042331462846B8470130E9
:103220003FF445AF4FF0000804F11A090A9B013B37
:10323000434509DC23689B0700F10381E0680B9B91
:103240009842B8BF184634E701234A46314628461B
:10325000B84701303FF42BAF08F10108E6E7099BBE
:10326000002B2BDC0123264A31462846B847013083
:103270003FF41DAF099B23B90A9B13B92368D907F3
:10328000D8D5DDE9042331462846B84701303FF45C
:103290000EAF4FF0000904F11A0A099B5B424B453F
:1032A00001DC0A9B94E70123524631462846B84781
:1032B00001303FF4FCAE09F10109EEE70A9AA36D73
:1032C0009A42A8BF1A46002A914607DD13463146A6
:1032D00042462846B84701303FF4E9AE04F11A03EC
:1032E0004FF0000B29EAE979069315E0FFFFEF7F25
:1032F00014590008105900081C59000818590008F2
:10330000205900080123069A31462846B847013063
:103310003FF4CDAE0BF1010BD4F858A0AAEB090392
:103320005B45EFDCDDE909239A42D04415DB2368D5
:10333000DA0712D40A9B0999A3EB0A02A3EB010A4C
:103340009245A8BF9246BAF1000F0EDC4FF000087C
:103350002AEAEA7A04F11A0919E0DDE90423314680
:103360002846B8470130E5D1A1E6534642463146EA
:103370002846B8470130E9D199E601234A4631464B
:103380002846B84701303FF492AE08F10108DDE964
:1033900009239B1AA3EB0A034345EEDC4AE70A9A8A
:1033A000012A01DCDB073AD5012342463146284693
:1033B000B84701303FF47BAEDDE9042331462846AF
:1033C000B847013008F101083FF471AE0A9B0022B2
:1033D00003F1FF3AD4E912010023FDF775FBC8B9E8
:1033E0005346424631462846B84701300ED15EE684
:1033F0000123524631462846B84701303FF457AEC4
:1034000008F101080A9B013B4345F1DC4B4604F1FE
:103410005002DEE64FF0000804F11A0AF2E7012339
:10342000DFE701234A4631462846B84701303FF4DA
:103430003EAE08F10108E3680B9A9B1A4345F0DCA5
:10344000FCE64FF0000804F11909F4E700293FF405
:103450008BAE0023CDE9020309AB009349EC108B3E
:103460002260CDF804A00DF123032846FFF72EFDBE
:10347000804648E62DE9F04791461F468A680B6969
:10348000DDF820809342B8BF1346C9F8003091F8A8
:10349000432006460C4612B10133C9F800302368B8
:1034A000990642BFD9F800300233C9F800302568C8
:1034B00015F0060507D104F1190AE368D9F80020D0
:1034C0009B1AAB4228DC94F843302268003318BFC3
:1034D000012392062DD404F1430239463046C047F9
:1034E000013020D02368E568D9F8002003F00603F6
:1034F000042B08BFAD1AA36822690CBF25EAE57545
:1035000000259342C4BF9B1AED184FF000091A34EE
:103510004D451AD1002008E0012352463946304675
:10352000C047013003D14FF0FF30BDE8F0870135CF
:10353000C3E7E1185A1C302081F84300224494F874
:10354000451082F843100233C5E70123224639466D
:103550003046C0470130E6D009F10109D8E7000044
:103560002DE9F04301F1430C0C46097E85B06E292C
:103570001746064698460C9A00F0B38022D8632975
:1035800036D00AD8002900F0B980582900F083808D
:1035900004F1420584F8421032E0642901D069291F
:1035A000F6D120681368050603F104012AD51B68CB
:1035B0001160002B03DA2D225B4284F843206F4810
:1035C0000A2239E0732900F09D8008D86F2920D0A5
:1035D0007029DDD1236843F02003236003E07529BF
:1035E00017D07829D4D1782384F84530644855E041
:1035F0001368191D1B68116004F1420584F84230FC
:1036000001238CE01B68116010F0400F18BF1BB243
:10361000CFE713682568181D1060280601D51B68C0
:1036200002E06806FBD51B8854486F2914BF0A22A4
:103630000822002184F843106568A560002DC0F2BF
:103640009580216821F004012160002B3DD1002DDF
:1036500040F08E806546082A0BD12368DB0708D529
:10366000236962689A42DEBF302305F8013C05F108
:10367000FF35ACEB05032361CDF800803B4603AA80
:1036800021463046FFF7F6FE01304DD14FF0FF30B6
:1036900005B0BDE8F083394884F845101368216807
:1036A0001D1D1B6815600A060BD5CA0744BF41F0F3
:1036B000200121601BB9226822F020022260102222
:1036C000B7E74D0648BF9BB2EFE76546B3FBF2F1A3
:1036D00002FB1133C35C05F8013D0B460029F5D10F
:1036E000B9E7136825686169181D106028061B6812
:1036F00001D5196002E06A06FBD519800023236119
:103700006546B9E71368191D11601D6862680021DC
:103710002846FCF765FD08B1401B606063682361C3
:10372000002384F84330A7E723692A463946304608
:10373000C0470130AAD023689B0713D4E068039BDD
:103740009842B8BF1846A3E701234A463946304697
:10375000C04701309AD00135E368039A9B1AAB4207
:10376000F2DCEBE7002504F11909F5E7002BACD1F9
:10377000037884F8423004F142056CE722590008CE
:10378000335900080FB40A4B13B51C6824B1A36960
:1037900013B9204601F028F905AB049AA1680193FA
:1037A000204601F0EBFD02B0BDE8104004B07047C8
:1037B0000C00002038B5084B1C68054624B1A369ED
:1037C00013B9204601F010F9A26829462046BDE849
:1037D000384001F0E9BE00BF0C00002070B50E4675
:1037E000054618B183690BB901F0FEF8AB69AC6806
:1037F00013B9284601F0F8F8234B9C4217D16C68A6
:10380000A3891B071DD52369DBB1013EA36816F808
:10381000011F013BA360E9B9002B2EDA22460A21E1
:10382000284600F0EDF8013011D00A2011E0174BC6
:103830009C4201D1AC68E3E7154B9C4208BFEC68A1
:10384000DEE72146284600F02DF90028DDD04FF0B4
:10385000FF3070BD002B04DAA2699A4206DC0A2907
:1038600004D023685A1C22601970CFE722462846EC
:1038700000F0C6F80130C9D1E9E723680A205A1CD4
:1038800022601870E5E700BF7459000894590008D9
:1038900054590008024B01461868FFF79FBF00BF4C
:1038A0000C0000202DE9F7431D46514B1E680446CD
:1038B0000F46904626B1B36913B9304601F094F82B
:1038C0004C4B9C4252D17468B8F1020F06D0B8F14B
:1038D000010F00F28980002DC0F28680214630461B
:1038E00001F018F8616B41B104F14403994202D030
:1038F000304601F071FC002363630023A361636021
:10390000A3891B0603D52169304601F065FCA38914
:1039100023F44A6323F00303B8F1020FA3815DD0BF
:1039200001AB6A462146304601F0F6F8A3891843F8
:10393000A0812DBB009D284601F052F907460028C2
:103940004ED1DDF80090A9453CD14FF0FF30A3895E
:1039500043F00203A3810023A36004F14703236023
:1039600023610123636103B0BDE8F083224B9C42D5
:1039700001D1B468A8E7214B9C4208BFF468A3E7D3
:10398000002FD8D0B36913B9304601F02DF8B8F143
:10399000010F08BFA389276004BF43F00103A3817F
:1039A000A38913F00800C4E904751BD013F00100CB
:1039B00018BF6D424FF000031DBFA360A5611846FC
:1039C000A560D0E7484601F00BF907460028BCD0B7
:1039D000A38943F08003A3814D46D3E70020B6E7D7
:1039E000A946F5E7A060BEE74FF0FF30BBE700BF98
:1039F0000C0000207459000894590008545900081C
:103A0000F8B50E461446054618B183690BB900F0A7
:103A1000EBFF214B9C422AD16C68A369A360A38968
:103A20001A072ED5236963B323692068C01A636916
:103A3000F6B28342374604DC2146284600F06AFF8E
:103A400028BBA368013BA36023685A1C22601E7038
:103A500063690130834204D0A389DB0719D50A2E9C
:103A600017D12146284600F055FF90B10FE00B4BCF
:103A70009C4201D1AC68D0E7094B9C4208BFEC687E
:103A8000CBE72146284600F00DF80028CCD04FF0B7
:103A9000FF373846F8BD00BF745900089459000834
:103AA00054590008324B70B51D6806460C4625B1C6
:103AB000AB6913B9284600F097FF2E4B9C420FD1FB
:103AC0006C68B4F90C309AB215072CD4D00611D416
:103AD0000922326043F04003A3814FF0FF303EE003
:103AE000254B9C4201D1AC68EBE7244B9C4208BFBC
:103AF000EC68E6E7510712D5616B41B104F144036C
:103B0000994202D0304601F067FB00236363A3892A
:103B100023F02403A3810023636023692360A38926
:103B200043F00803A38123694BB9A38903F42073ED
:103B3000B3F5007F03D02146304601F011F8A28989
:103B400012F001030CD00023A36063695B42A36100
:103B5000236953B9B4F90C3013F08000BAD170BDA9
:103B6000920758BF6369A360F2E70020F7E700BF40
:103B70000C0000207459000894590008545900089A
:103B80002DE9F74F03690C69A3428046C0F2828099
:103B9000013C01F114074FEA840C00F1140657F8B8
:103BA000245056F8240006EB0C03013507EB0C09F2
:103BB0000193B0FBF5F595B34FF0000A3846B646D1
:103BC000D34650F8042B93B205FB03A34FEA134AE4
:103BD0009BB2ABEB0303120CDEF800B005FB02A2B4
:103BE00013FA8BF34FEA124A1FFA82FBDEF8002029
:103BF000CBEB124202EB23429BB243EA02438145E4
:103C00004FEA224B4EF8043BDBD256F80C3033B966
:103C1000019B043B9E421A4630D3C8F810404046F0
:103C200001F006FA002825DB013530464FF0000C84
:103C300057F8042BD0F800E093B2ACEB0303120C5E
:103C400013FA8EF3C2EB1E4202EB23429BB243EA0D
:103C50000243B9454FEA224C40F8043BE8D256F8FB
:103C6000242006EB84032AB9043B9E421A460BD358
:103C7000C8F81040284603B0BDE8F08F1268043B36
:103C8000002ACAD1013CC5E71268043B002AEFD1E3
:103C9000013CEAE70020EEE72DE9F04F57EC106B0E
:103CA00097B0456A069104460B921293DDF8808026
:103CB000CDE900673DB9102000F092FF6062C0E9D5
:103CC00001550560C560636A196851B15A684A6058
:103CD000012393408B60204600F0C9FF636A0022F5
:103CE0001A603B1EBBBF23F0004301930023012257
:103CF000ACBFC8F80030C8F80020AF4BDDF8048036
:103D000033EA080314D1129A42F20F731360009B36
:103D100023B9C8F31300002800F04285219BDFF887
:103D2000ACB2002B00F044850BF1030300F03EBD64
:103D3000DDE900670022002330463946FCF7C4FE67
:103D4000814668B1129A01231360219B002B00F079
:103D500024859A4B219A03F1FF3B136000F028BDA4
:103D600014AA15A947EC106B204601F0D8F9C8F346
:103D70000A550490002D7CD0C7F3130343F07F5BFA
:103D8000B2464BF4401BA5F2FF35CDF84C90002213
:103D90008B4B50465946FCF777FA81A3D3E90023B1
:103DA000FCF72AFC80A3D3E90023FCF76FFA064650
:103DB00028460F46FCF7B6FB7DA3D3E90023FCF7AA
:103DC0001BFC02460B4630463946FCF75FFA0646B6
:103DD0000F46FCF7C1FE00228246002330463946DA
:103DE000FCF77CFE48B15046FCF79CFB32463B4654
:103DF000FCF76AFE08B90AF1FF3ABAF1160F59D872
:103E0000704901EBCA01DDE90023D1E90001FCF7AB
:103E100083FE002850D00AF1FF3A00230F93149B31
:103E20005D1BB5F1010849BFC5F1010300230593EE
:103E30004FF0000858BF0593BAF1000F3EDB002396
:103E4000D044CDF838A00793069B092B00F2908050
:103E5000052BC4BF043B0693069BA3F10203CCBF12
:103E600000250125032B00F28F80DFE803F07D7F22
:103E70003171DDE914531D4405F23240202813DD71
:103E8000C0F14000009B08FA00F805F2124023FA46
:103E900000F048EA0000FCF735FB01238246A1F15F
:103EA000F87B013D139372E7009BC0F1200003FAF9
:103EB00000F0F0E70123B1E70F90B0E7059BA3EB1B
:103EC0000A030593CAF10003079300230E93BBE78F
:103ED00001230A930B9B002B59DD02939946666AD6
:103EE00000227260042202F114009842716853D9D2
:103EF000204600F088FE636A3060B9F10E0FD3F8F7
:103F000000B000F2E680002D00F0E3809DED007B24
:103F1000BAF1000F8DED107B74DD2A4A0AF00F0311
:103F200002EBC30393ED007B4FEA2A16F0068DEDFA
:103F3000087B65D5244BDDE91001D3E90823FCF7A4
:103F400085FCCDE9000106F00F0603251E4F4CE06D
:103F500001230A930B9B534403F1010902934B463F
:103F6000012BB8BF0123BAE70023B2E70023F0E733
:103F70000125002306930A954FF0FF3302939946DB
:103F8000002212230B92AAE701230A93F4E70123EC
:103F9000029399461A46F5E7013171605200A2E793
:103FA00061436F63A787D23FB3C8608B288AC63F3F
:103FB000FB799F501344D33F0000F07F2159000844
:103FC0000000F83FE0590008B85900084D590008B2
:103FD000F10708D5DDE90801D7E90023FCF70CFB60
:103FE000CDE90801013576100837002EF0D1DDE962
:103FF0000823DDE90001FCF729FCCDE900011AE006
:104000000225A3E700F0A080CAF100069F4BA04F55
:1040100006F00F0203EBC203D3E90023DDE9100130
:10402000FCF7EAFACDE90001361100230225002E43
:104030007FD1002BE1D10F9B002B00F08780DDE9C1
:1040400000670022934B30463946FCF747FD0028B5
:104050007CD0B9F1000F79D0029B002B35DD0AF13D
:10406000FF330893394600228B4B3046FCF7C4FAE5
:10407000CDE90001029F01352846FCF753FADDE93E
:104080000023FCF7B9FA0022844BFCF7FFF8054641
:10409000A1F15076002F5DD10022814BDDE90001B6
:1040A000FCF7F2F82A463346CDE90001FCF734FD6F
:1040B000002840F088822A4606F10043DDE900012D
:1040C000FCF70CFD002840F07C82DDE91023CDE9EF
:1040D0000023159B002BC0F25081BAF10E0F00F3A4
:1040E0004C816A4B03EBCA0393ED007B0B9B002BC7
:1040F0008DED027B80F2D880B9F1000F00F3D480FF
:1041000040F05E820022664B51EC170BFCF774FA0C
:10411000DDE90023FCF7F6FC4F464E46002840F050
:10412000348231230BF101058BF800300AF1010ACA
:104130002FE2F20705D5D7E90023FCF75DFA013538
:1041400001237610083772E7022574E7CDF820A026
:104150004F4691E74D4B03EBC70353E902010A9B1E
:10416000002B47D002460B4600204E49FCF76EFB61
:104170002A463346FCF788F8CDE90C015D46DDE9B7
:104180000001FCF7E9FC0646FCF7CCF902460B46B9
:10419000DDE90001FCF778F8303605F8016BDDE960
:1041A0000C23CDE90001FCF799FC002863D1DDE97F
:1041B000002300203749FCF767F8DDE90C23FCF702
:1041C0008DFC002840F0B780A5EB0B039F427FF7E2
:1041D0007CAF0022304BDDE90C01FCF70DFA002228
:1041E000CDE90C012C4BDDE90001FCF705FACDE926
:1041F0000001C4E72A463346FCF7FEF9CDE90C017D
:104200000BEB07055E46DDE90001FCF7A5FC074660
:10421000FCF788F9303702460B46DDE90001FCF770
:1042200033F806F8017BAE42CDE900014FF0000201
:1042300026D11C4BDDE90C01FCF728F802460B46A1
:10424000DDE90001FCF768FC002874D1DDE90C23EE
:1042500000201449FCF718F802460B46DDE900017E
:10426000FCF73CFC00283FF430AF15F8013C302B44
:1042700005F1FF3202D0DDF820A04AE01546F4E750
:10428000054BFCF7B9F9CDE90001BCE7E05900089E
:10429000B85900080000F03F0000244000001C4016
:1042A000000014400000E03FDDE900675D46DDE905
:1042B000022330463946FCF7C9FAFCF74DFC80462C
:1042C000FCF730F9DDE90223FCF796F902460B46CC
:1042D0003046394608F13006FBF7D6FF05F8016B8A
:1042E000A5EB0B06B14502460B4639D1FBF7CEFFD5
:1042F000DDE9022306460F46FCF70EFCC8B9DDE9EE
:10430000022330463946FCF7DFFB10B118F0010FED
:104310000FD10499204600F0AAFC0023129A2B70BA
:104320000AF101031360219B002B00F041821D6004
:104330003EE2CDF820A015F8012C392A05F1FF3313
:1043400008D19B450AD1089B0133089330238BF891
:1043500000305B461A7801321A708CE71D46EAE796
:1043600000229B4BFCF748F90022002306460F462B
:10437000FCF7AAFB00289AD0CBE70A9A002A00F0A3
:104380008B80069A012A6EDC139A002A67D003F20A
:104390003343079F059D059A01211A442046059243
:1043A000984400F004FD0646002D0CDDB8F1000F26
:1043B00009DD4545059A2B46A8BF4346D21A05920A
:1043C000ED1AA8EB0308079BEBB10A9B002B67D003
:1043D0008FB131463A46204600F088FD049A0146E6
:1043E0000646204600F0ECFC04990890204600F0B8
:1043F0003EFC089B0493079BDA1B04D004992046DB
:1044000000F074FD04900121204600F0D0FC0E9BCA
:104410000746002B00F0D0811A460146204600F0E6
:1044200065FD069B012B074640DC009B002B39D124
:10443000019BC3F31303002B36D1019B23F00043F0
:104440001B0D1B052BB1059B0133059308F10108DA
:10445000012307930E9B002B2AD1012030E0149BEF
:10446000C3F1360395E7079B09F1FF37BB42BFBF96
:10447000079B0797FA1A0E9BBBBF9B180E93DF1B77
:104480000027B9F1000FB5BF059B059DA3EB0905FA
:104490004B46B8BF00237EE7079F059D0A9E83E732
:1044A000079AABE70023D4E7009BD2E700230793EA
:1044B0003B6907EB8303186900F02BFCC0F1200077
:1044C000404410F01F0047D0C0F12003042B3BDD17
:1044D000059BC0F11C000344059305448044059BE3
:1044E000002B05DD1A460499204600F04DFD04908E
:1044F000B8F1000F05DD39464246204600F044FD84
:1045000007460F9B53B33946049800F091FD0028ED
:1045100024DA00230A220499204600F0BFFB0A9BFC
:1045200004900AF1FF3A002B00F04D810023314640
:104530000A22204600F0B2FB029B002B06464FDC0D
:10454000069B022B4CDD11E0C9D0059A1C331A449E
:1045500005921D449844C2E70346F6E7B9F1000FFF
:1045600038DC069B022B35DDCDF80890029B63B941
:1045700039460522204600F091FB01460746049883
:1045800000F056FD00283FF7CCAD0B9B5D466FEA6F
:10459000030A4FF000093946204600F068FB002E60
:1045A0003FF4B7AEB9F1000F05D0B14503D049468D
:1045B000204600F05CFB3146204600F058FBA8E6A0
:1045C00000273E46E1E7DDF820A03E46A9E500BF12
:1045D000000024400A9BCDF80890002B00F0FA80E0
:1045E000002D05DD31462A46204600F0CDFC06466A
:1045F000079B002B4CD07168204600F004FB326909
:1046000002320546920006F10C010C3000F0F0FA7F
:1046100001222946204600F0B7FC009BCDF814B0DB
:1046200003F00103B1460793064639460498FFF7A5
:10463000A7FA4946054600F13008049800F0F8FC56
:10464000324600903946204600F00CFDC368024611
:1046500003BB01460890049800F0EAFC089A034660
:1046600011462046089300F002FB089BA3B9069A66
:1046700092B9079A82B9B8F1390F29D0009B002B63
:1046800001DD05F13108059B5D1C83F8008082E7A0
:104690003046C2E70123E3E7009A002A04DB25D174
:1046A000069A1ABB079A0ABB002BECDD012204997B
:1046B000204600F069FC3946049000F0B9FC00285F
:1046C00003DCE0D118F0010FDDD0B8F1390FD8D1FB
:1046D000059B059A5D1C3923137015F8013C392B95
:1046E00005F1FF324FD00133137054E7059A002BC8
:1046F00002F1010506DDB8F1390FE9D008F1010832
:10470000059BC2E7029A05F8018CA5EB0B039342C7
:1047100021D000230A220499204600F0BFFAB145B7
:1047200004904FF000034FF00A024946204605D19D
:1047300000F0B4FA81460646059576E700F0AEFA39
:104740003146814600230A22204600F0A7FA064699
:10475000F2E74FF0000901220499204600F014FC12
:104760003946049000F064FC0028B6DC02D118F051
:10477000010FB2D115F8013C302B05F1FF327FF467
:104780000AAF1546F6E7934505D131230AF1010A30
:104790008BF80030FFE615469FE7DFF864B007E0CE
:1047A000219BDFF860B01BB10BF10803219A136065
:1047B000584617B0BDE8F08F069B012B7FF735AE4A
:1047C0000E9B079349E6029B002B03DC069B022B02
:1047D0003FF7CCAE5D4639460498FFF7D1F900F1BA
:1047E000300805F8018B029AA5EB0B039A42B0DD65
:1047F00000230A220499204600F050FA0490EAE7C8
:1048000020590008445900088A892DE9F0410546DD
:1048100010070C4658D44B68002B05DC0B6C002BA2
:1048200002DC0020BDE8F081E66A002EF9D000230A
:1048300012F480522F68216A2B6032D0606DA389F8
:104840005A0705D56368C01A636B0BB1236CC01A95
:1048500000230246E66A216A2846B047431CA38922
:1048600006D129681D2948D8294ACA40D60744D507
:1048700000226260D9042269226004D5421C01D161
:104880002B6803B96065616B2F600029C9D004F102
:104890004403994202D0284600F09EFC0020606349
:1048A000C0E701232846B047411CC8D12B68002B24
:1048B000C5D01D2B01D0162B01D12F60B1E7A389E4
:1048C00043F04003A381ADE70F69002FA9D0930700
:1048D0000E6808BF4B690F6018BF0023A6EB0708DE
:1048E0008B60B8F1000F9CDD43463A46216AA66A08
:1048F0002846B047002806DCA38943F04003A38183
:104900004FF0FF308EE70744A8EB0008E9E700BF4F
:104910000100402038B50B6905460C46DBB118B1E3
:1049200083690BB900F060F80C4B9C4209D16C68AC
:10493000B4F90C307BB121462846BDE83840FFF77A
:1049400063BF074B9C4201D1AC68F1E7054B9C4229
:1049500008BFEC68ECE7002038BD00BF74590008C0
:104960009459000854590008002310B50446C0E9C2
:104970000033836081814366C281C0E9043383616F
:10498000194608225C30FEF799FA054B6362054B25
:10499000A362054BE362054B2462236310BD00BF95
:1049A00035560008575600088F560008B3560008C1
:1049B000014900F085B800BF1549000870B54A1ECE
:1049C000682555430E4605F1740100F053FC04467A
:1049D00040B10021C0E900160C30A06005F168026A
:1049E000FEF76CFA204670BD836910B5044633BBF0
:1049F000C0E912330365124B124A1B688262984267
:104A000004BF0123836100F01FF86060204600F0BE
:104A10001BF8A060204600F017F80022E060042197
:104A20006068FFF7A1FF01220921A068FFF79CFF42
:104A300002221221E068FFF797FF0123A36110BD56
:104A40000C590008B1490008F8B51B4B1E68B36942
:104A5000074613B93046FFF7C7FF4836D6E9013499
:104A6000013B03D5336833B13668F7E7B4F90C502E
:104A70006DB16834F4E704213846FFF79FFF3060DA
:104A80000028F1D10C233B6004462046F8BD0B4BB7
:104A90006566C4E90055A560C4E90335C4E9055558
:104AA0000822294604F15C00FEF708FAC4E90D5516
:104AB000C4E91255E9E700BF0C5900080100FFFFE7
:104AC0002DE9F8438046894600F14804002614B9D0
:104AD0003046BDE8F883D4E90175013F01D524686B
:104AE000F5E7AB89012B07D9B5F90E30013303D0B7
:104AF00029464046C84706436835EEE7044B1B6825
:104B0000186A044B002808BF1846F030704700BFF1
:104B10000C0000207000002070B50E46B1F90E1098
:104B2000002996B014461D4607DA00232B60B3898E
:104B30001A0610D44FF480630EE06A4600F0E0FDE0
:104B40000028F2DB019A02F47042A2F500535A42A7
:104B50005A412A60EEE740230020236016B070BD62
:104B60008B8973B59D0706460C4607D504F14703AC
:104B7000236023610123636102B070BD01AB6A460B
:104B8000FFF7CAFF00990546304600F073FB48B9AD
:104B9000B4F90C309A05EFD423F0030343F0020379
:104BA000A381E3E70D4BB362A389206043F0800348
:104BB000A381009B6361019B20615BB1B4F90E107E
:104BC000304600F0AFFD28B1A38923F0030343F082
:104BD0000103A381A3891D43A581CDE7B149000845
:104BE000024B0146186800F045BB00BF0C000020D6
:104BF00010B5431E0A44914200D110BD11F8014B7B
:104C000003F8014FF7E770B5456A04460E463DB913
:104C10001020FFF7E5FF6062C0E901550560C5603F
:104C2000656AEB6883B1636ADB6853F82600B8B93C
:104C3000012101FA06F56A1D9200204600F0BEFA35
:104C400060B1C0E901650EE021220421204600F098
:104C5000B5FA636AE860DB68002BE4D1002070BD20
:104C6000026843F826200023C0E90333F7E770B554
:104C7000446A06460D463CB91020FFF7B1FF70624A
:104C8000C0E901440460C4603DB1736A6A68DB68CE
:104C900053F82210296043F8225070BD2DE9F041ED
:104CA0000D691F4606460C4601F1140C0023DCF882
:104CB000000081B202FB01710F0C000C02FB0070BE
:104CC00089B2013301EB00419D424FEA10474CF895
:104CD000041BECDCD7B1A368AB4212DC6168304640
:104CE0000131FFF790FF2269023204F10C01804686
:104CF00092000C30FFF77CFF21463046FFF7B7FFEC
:104D0000444604EB850301355F6125612046BDE81B
:104D1000F081020C12040346B2B90304102013F010
:104D20007F4F04BF1B02083013F0704F04BF1B01FC
:104D3000043013F0404F04BF9B000230002B06DB11
:104D40005B0003D5013070470020E8E72020704762
:104D5000036813F0070201460BD0DA0723D4980743
:104D600049BF5B089B0801200B605CBF0B60022001
:104D7000704798B2A8B91B0C102013F0FF0F04BFA6
:104D80001B0A08301A0704BF1B0904309A0704BF26
:104D90009B080230DA0702D45B0806D001300B60B2
:104DA00070471046E9E7002070472020704710B593
:104DB0000C460121FFF727FF01224461026110BD6B
:104DC0002DE9F74F14460A6923699A42B8BF0B468A
:104DD0008846BCBFA0461C46D8F81070D4F8109086
:104DE000D8F80830D8F8041007EB0906B342B8BF6A
:104DF0000131FFF708FF00F1140505EB860E2B4685
:104E00000022734516D304F1140208F1140102EBD9
:104E1000890301EB87070093009B019293420CD812
:104E2000002E03DD5EF8043D002B5DD0066103B06B
:104E3000BDE8F08F43F8042BE3E7B2F800B0BBF114
:104E4000000F23D08946AC464FF0000859F8044BB8
:104E5000DCF800A0A3B21FFA8AFA0BFB03A34FEA07
:104E6000144ADCF8004043444FEA14480BFB0A8420
:104E700004EB1344E2469BB243EA04434F454FEA36
:104E800014484AF8043B2BD8CCF80480019BB3F8B3
:104E900002A00432BAF1000F20D02B688946A84640
:104EA0004FF0000BB9F800C0B8F802400AFB0C4400
:104EB0005C44C4469BB243EA04434CF8043B59F8B3
:104EC000043BB8F804B01B0C0AFB03B303EB144318
:104ED0004F454FEA134B05D8C8F8043004359BE71B
:104EE000D446B3E7E046DDE7013E99E72DE9F84314
:104EF000154612F0030206460F4607D0013A214C30
:104F0000002354F82220FFF7C9FE0746AD1035D024
:104F1000746A3CB91020FFF763FE7062C0E9014477
:104F20000460C460D6F82480D8F808404CB940F238
:104F300071213046FFF73BFF0023C8F80800044604
:104F400003604FF00008EB070AD539462246304689
:104F5000FFF736FF394681463046FFF788FE4F4659
:104F60006D100BD0206838B9224621463046FFF735
:104F700027FF2060C0F800800446E4E73846BDE81B
:104F8000F88300BFA85A00082DE9F0470C464FEA05
:104F9000621A236949680AEB0309A36807461646A3
:104FA00009F10105AB4232DB3846FFF72CFE002346
:104FB000804600F114011A4653452BDB20692AEA8A
:104FC000EA7A04F1140316F01F0201EB8A0103EBE5
:104FD000800C25D0C2F1200E00201E688A46964023
:104FE00030434AF8040B53F8040B9C4520FA0EF0AA
:104FF00014D8486008B109F10205013D3846C8F8E7
:1050000010502146FFF733FE4046BDE8F0870131DE
:105010005B00C7E741F823200133CDE75146DCE7C9
:10502000043953F8042B41F8042F9C45F9D8E4E7E0
:1050300003690A699B1A30B50CD1920014301431FF
:105040008418114454F8045D51F8042D954203D09E
:1050500005D30123184630BDA042F3D3FAE74FF041
:10506000FF33F7E72DE9F0470D460746114628467E
:105070001446FFF7DDFF061E08D131463846FFF71C
:10508000C2FD0123C0E90436BDE8F087A4BF234672
:105090002C4638466168A6BF1D4600260126FFF74C
:1050A000B2FD2B69C660266905F1140904F11402EA
:1050B00002EB860709EB830800F114054FF0000EA0
:1050C00052F804AB59F8044B1EFA8AF1A3B2C91A7C
:1050D000230CC3EB1A4303EB214389B24FEA234E5F
:1050E000C84541EA0343944645F8043BE8D8BC452B
:1050F00004D355F8043D83B10661C5E75CF8041B91
:105100001EFA81F31A1402EB11429BB243EA0243E6
:105110004FEA224E45F8043BE9E7013EE9E72DE975
:10512000F7430E46012159EC108B1546FFF76BFD36
:10513000C9F30A540746C9F3130334BB0193B8F10A
:10514000000327D002A840F8083DFFF701FE0099B0
:10515000F0B1019AC0F1200302FA03F30B43C240FD
:105160007B610192019BBB61002B14BF02210121D5
:105170003961C4B1A4F2334404443460C0F1350051
:105180002860384603B0BDE8F08343F48013D5E7C8
:105190007961E7E701A8FFF7DBFD019B7B61012156
:1051A00039612030E5E707EB8103A0F2324030603F
:1051B0001869FFF7AEFDC0EB4110E1E738B502FB1F
:1051C00001F4214600F056F8054618B122460021A8
:1051D000FDF774FE284638BD38B50546002945D090
:1051E00051F8043C0C1F002BB8BFE41800F0CEFAB5
:1051F0001F4A1368104633B9636014602846BDE83F
:10520000384000F0C4BAA3420CD921686218934216
:1052100004BF1A685B68636004BF521822600460B0
:10522000ECE713465A680AB1A242FAD9196858182D
:10523000A0420BD120680144581882421960DDD188
:10524000106852685A6001441960D7E702D90C23EC
:105250002B60D3E7206821188A4204BF1168526886
:10526000626004BF091821605C60C7E738BD00BFF9
:105270000002002070B5CD1C25F0030508350C2D6B
:1052800038BF0C25002D064601DBA94203D90C23AB
:105290003360002070BD00F079FA214A146821467D
:1052A00091B9204C23681BB9304600F0B3F9206057
:1052B0002946304600F0AEF9431C24D10C2333605C
:1052C000304600F064FAE4E70B685B1B18D40B2B44
:1052D0000FD90B60CD50CC18304600F058FA04F1CD
:1052E0000B00231D20F00700C31AD3D05A42E2500E
:1052F000D0E78C424B6816BF636013600C46EBE747
:105300000C464968CCE7C41C24F00304A04205D035
:10531000211A304600F07EF90130CFD02560DBE75E
:1053200000020020040200209368013B002B10B40F
:10533000936008DA9469A34201DB0A2903D15DF87E
:10534000044BFEF75DBB1368581C106019700846CB
:105350005DF8044B7047F8B506460F461446D5185D
:10536000AC4201D1002007E03A4614F8011B304658
:10537000FFF7DAFF431CF3D1F8BD00002DE9F04F31
:105380000C469DB017461D46064618B183690BB9F9
:10539000FFF72AFB7C4B9C4258D17468A3891807FD
:1053A0005ED52369002B5BD00023099320238DF861
:1053B000293030238DF82A3003954FF0010BB84681
:1053C000454615F8013B0BB1252B54D1B8EB070A24
:1053D0000BD053463A4621463046FFF7BCFF01301A
:1053E00000F0C280099B5344099398F80030002BC9
:1053F00000F0BA8000234FF0FF32CDE9052304937B
:1054000007938DF853301A93A846052218F8011B0C
:105410005E48FAF7E5FE049B78BBD90644BF20221C
:105420008DF853201A0744BF2B228DF853202A7879
:105430002A2A2AD0079AA84600200A25414611F8B0
:10544000013B303B092B69D960B324E0504B9C42AF
:1054500001D1B468A2E74F4B9C4208BFF4689DE7B6
:1054600021463046FEF71EFB00289DD04FF0FF304E
:105470001DB0BDE8F08FA846A2E7444A801A0BFA97
:1054800000F0184304904546BEE7039A111D1268C8
:105490000391002A01DB079204E0524243F0020329
:1054A0000792049398F800302E2B0ED198F8013013
:1054B0002A2B38D1039B1A1D1B680392002BB8BFFF
:1054C0004FF0FF3308F102080593334D98F80010B0
:1054D00003222846FAF784FE40B14023401B03FA1A
:1054E00000F0049B034308F10108049398F80010AE
:1054F0002A488DF82810062208F10107FAF770FEF5
:10550000002837D0264B1BBB039B073323F0070330
:1055100008330393099B4B44099350E705FB023280
:10552000012088468AE7002308F1010805931946FF
:105530000A25404610F8012B303A092A03D9002BDE
:10554000C3D00591C1E705FB012101238046F0E7A7
:1055500003AB00932246134B04A93046FDF74AFDE6
:10556000B0F1FF3F8146D5D1A3895B063FF57EAF01
:1055700009987DE703AB009322460A4B04A9304605
:10558000FDF7EEFFECE700BF74590008B45A0008BD
:105590009459000854590008BA5A0008BE5A000825
:1055A000F52F00085753000870B50D4614460646FF
:1055B00018B183690BB9FFF717FA134B9C4212D14C
:1055C0007468A368013B002BA36016DAA2699342BA
:1055D00002DBEBB20A2B10D1224629463046BDE849
:1055E0007040FEF70DBA094B9C4201D1B468E8E760
:1055F000074B9C4208BFF468E3E723685A1C22600B
:105600001D70E8B270BD00BF7459000894590008BD
:105610005459000838B5064C002305460846236057
:10562000FDF72CFB431C02D1236803B12B6038BD6E
:105630005403002010B50C46B1F90E1000F0A8F884
:105640000028ABBF636DA3891B1823F48053ACBF44
:105650006365A38110BD2DE9F0411F468B89DB05F1
:1056600005460C46164605D502230022B1F90E1058
:1056700000F068F8A389B4F90E1023F48053A381D5
:1056800032463B462846BDE8F04100F017B810B559
:105690000C46B1F90E1000F055F8431CA38915BF54
:1056A000606523F4805343F48053A38118BFA38122
:1056B00010BDB1F90E1000F013B8000038B5074C5A
:1056C000054608461146002222601A46FDF7C8FA30
:1056D000431C02D1236803B12B6038BD5403002062
:1056E00038B5064C0023054608462360FDF7E4FA6A
:1056F000431C02D1236803B12B6038BD5403002042
:1057000038B5074C00230546084611462360FDF7CF
:10571000D7FA431C02D1236803B12B6038BD00BF08
:105720005403002038B5064C002305460846236084
:10573000FDF7CCFA431C02D1236803B12B6038BDBE
:105740005403002038B5074C054608461146002290
:1057500022601A46FDF7BCFA431C02D1236803B14C
:105760002B6038BD5403002082B001B901A942B1B9
:105770004BB113780B601278101C18BF012002B0D7
:1057800070471046FBE76FF00100F8E7704770477D
:1057900038B5074C054608461146002222601A46D5
:1057A000FDF750FA431C02D1236803B12B6038BDCA
:1057B0005403002049B1FF2A85BF8A2303600A7081
:1057C0004FF0FF3098BF0120704708467047000037
:1057D000F8B500BFF8BC08BC9E467047F8B500BFDE
:0857E000F8BC08BC9E467047AE
:1057E8000006101600061016000000000000000059
:1057F800010203040607080900000000010203046F
:105808004144435F506F6C6C28293A002D3E204577
:1058180052524F523A2048414C5F4144435F5374BF
:1058280061727428292063616C6C206661696C65FB
:10583800642028737461747573203D202564290AD7
:10584800000000002D3E204552524F523A20484158
:105858004C5F4144435F506F6C6C466F72436F6E90
:1058680076657273696F6E28292063616C6C206697
:1058780061696C65642028737461747573203D20B8
:105888002564290A00000000476F74202534643A13
:10589800207C00007C200000454C454332373230E4
:1058A8002D3230313973312041737369676E6D65FC
:1058B8006E742034000000005665723A20303220A1
:1058C800245265763A20313836332024000000000F
:1058D80052756E6E696E67206F6E2053544D333269
:1058E80020706C6174666F726D0000002D3E20514F
:1058F80075657374696F6E2031000000446F6E65C2
:105908002E00000010000020494E4600696E660017
:105918004E414E006E616E00300030313233343506
:105928003637383941424344454600303132333402
:10593800353637383961626364656600496E666971
:105948006E697479004E614E00000000000000008E
:10595800000000000000000000000000000000003F
:10596800000000000000000000000000000000002F
:10597800000000000000000000000000000000001F
:10598800000000000000000000000000000000000F
:1059980000000000000000000000000000000000FF
:1059A80000000000000000000000000000000000EF
:1059B8000080E03779C34143176E05B5B5B8934603
:1059C800F5F93FE9034F384D321D30F94877825ACF
:1059D8003CBF737FDD4F1575000000000000F03FED
:1059E80000000000000024400000000000005940B2
:1059F8000000000000408F40000000000088C34005
:105A080000000000006AF8400000000080842E4179
:105A180000000000D01263410000000084D79741C5
:105A28000000000065CDCD41000000205FA00242CB
:105A3800000000E876483742000000A2941A6D4240
:105A4800000040E59C30A2420000901EC4BCD64233
:105A580000003426F56B0C430080E03779C34143DE
:105A680000A0D8855734764300C84E676DC1AB4354
:105A7800003D9160E458E143408CB5781DAF154472
:105A880050EFE2D6E41A4B4492D54D06CFF080444D
:105A9800F64AE1C7022DB544B49DD9794378EA4462
:105AA80005000000190000007D000000232D302BA8
:105AB8002000686C4C006566674546470043005007
:105AC8004F534958002E000020202020202020205D
