:020000040800F2
:1000000000000220C1290008AD280008AF28000820
:10001000B1280008B3280008B52800080000000037
:10002000000000000000000000000000B7280008E9
:10003000B928000800000000BB280008BD280008FF
:10004000112A0008112A0008112A0008112A0008A4
:10005000112A0008112A0008C5280008112A0008E2
:10006000112A0008112A0008112A0008112A000884
:10007000112A0008112A0008112A0008112A000874
:10008000112A0008112A0008112A0008112A000864
:10009000112A0008112A0008112A0008112A000854
:1000A000112A0008112A0008112A0008112A000844
:1000B000112A0008112A0008112A0008112A000834
:1000C000112A0008112A0008112A0008112A000824
:1000D000112A0008112A0008112A0008112A000814
:1000E000112A0008112A0008112A0008112A000804
:1000F000112A0008112A0008112A0008112A0008F4
:10010000112A0008112A0008112A0008112A0008E3
:10011000112A0008112A0008112A0008112A0008D3
:10012000112A0008112A0008112A0008112A0008C3
:10013000112A0008112A0008112A0008112A0008B3
:10014000112A0008112A0008112A0008112A0008A3
:10015000112A0008112A0008112A0008112A000893
:10016000112A0008112A0008112A0008112A000883
:10017000112A0008112A0008112A000800000000B6
:08018000112A0008112A0008F1
:1001900010B5054C237833B9044B13B10448AFF3C1
:1001A00000800123237010BD7000002000000000BB
:1001B0002439000808B5034B1BB103490348AFF3CA
:1001C000008008BD000000007400002024390008F1
:1001D00001F0FF01102A2BDB10F0070F08D010F8F8
:1001E000013B013A8B422DD010F0070F42B3F6D1FC
:1001F000F0B441EA012141EA014122F007047FF015
:1002000000070023F0E80256083C85EA010586EA6B
:10021000010685FA47F5A3FA87F586FA47F6A5FAA7
:1002200087F68EB9EED1F0BC01F0FF0102F00702B3
:1002300032B110F8013B013A83EA010313B1F8D15E
:100240000020704701387047002D06BF354603383F
:10025000073815F0010F07D1013015F4807F02BF78
:10026000013015F4C03F0130F0BC0138704700BFC9
:1002700053B94AB9002908BF00281CBF4FF0FF310D
:100280004FF0FF3000F06EB9ADF1080C6DE904CE0F
:1002900000F006F8DDF804E0DDE9022304B0704761
:1002A0002DE9F047089D04468C46002B40F08380E2
:1002B0008A42174647D9B2FA82F242B1C2F120000F
:1002C00024FA00F09140974040EA010C94404FEA34
:1002D0001748230CBCFBF8F61FFA87FE08FB16C173
:1002E00043EA014306FB0EF1994209D9FB1806F1D6
:1002F000FF3080F01981994240F21681023E3B4462
:100300005B1AA4B2B3FBF8F008FB103344EA0344D1
:1003100000FB0EFEA64509D93C1900F1FF3380F021
:100320000581A64540F2028102383C4440EA06407D
:10033000A4EB0E0400261DB1D4400023C5E9004300
:100340003146BDE8F08702B9FFDEB2FA82F2002A38
:1003500050D1CB1B4FEA174E1FFA87F80126B3FB8B
:10036000FEFC210C0EFB1C3341EA034108FB0CF39D
:100370008B4207D979180CF1FF3002D28B4200F280
:10038000E9808446C91AA3B2B1FBFEF00EFB10113E
:1003900043EA014408FB00F8A04507D93C1900F1E5
:1003A000FF3302D2A04500F2D9801846A4EB08041E
:1003B00040EA0C40BFE78B4209D9002D00F0B18024
:1003C0000026C5E9000130463146BDE8F087B3FAA2
:1003D00083F6002E4AD18B4202D3824200F2B880CB
:1003E000841A61EB030101208C46002DA8D0C5E9D9
:1003F000004CA5E7C2F1200320FA03F6974001FA6A
:1004000002F04FEA174ED9403043030CB1FBFEF621
:100410001FFA87F80EFB161143EA014306FB08F1A9
:10042000994204FA02F409D9FB1806F1FF3C80F066
:100430008D80994240F28A80023E3B445B1A81B231
:10044000B3FBFEF00EFB103341EA034100FB08F35F
:100450008B4207D9791800F1FF3C73D28B4271D9D6
:1004600002383944CB1A40EA064678E7C6F1200C38
:1004700003FA06F422FA0CF31C4320FA0CF701FAF3
:1004800006F34FEA144E21FA0CF11F433B0CB1FB6B
:10049000FEF91FFA84F80EFB191143EA014109FB2A
:1004A00008FA8A4502FA06F200FA06F308D961183A
:1004B00009F1FF3048D28A4546D9A9F10209214401
:1004C000A1EB0A01BFB2B1FBFEF00EFB101147EA2F
:1004D000014700FB08F8B84507D9E71900F1FF31DB
:1004E0002ED2B8452CD90238274440EA0940A7EB60
:1004F0000807A0FB02894F45C64649461AD317D0C4
:100500005DB1B3EB0E0267EB010707FA0CFCF2409A
:100510004CEA0202F740C5E9002700263146BDE853
:10052000F0872E4628460BE70646E9E61846FDE624
:100530004345E5D2B8EB020E69EB04010138DFE771
:100540000846D2E760468DE78146B9E7664675E71B
:1005500030464AE7ACF1020C394413E702383C4418
:1005600024E700BF704700BF10B504460E4B187853
:100570004FF47A73B3FBF0F30C4A1068B0FBF3F05E
:1005800000F0AAF868B90F2C01D901200AE0002276
:1005900021464FF0FF3000F05DF8034B5C60002017
:1005A00000E0012010BD00BF000000200800002076
:1005B00008B50B4B1A6842F400721A601A6842F4CC
:1005C00080621A601A6842F480721A60032000F098
:1005D0002FF80020FFF7C8FF02F08AF8002008BDBE
:1005E000003C0240034A1168034B1B780B44136024
:1005F000704700BF9C00002000000020014B1868DD
:10060000704700BF9C00002038B50446FFF7F6FF96
:100610000546B4F1FF3F02D0044B1B781C44FFF7A2
:10062000EDFF401BA042FAD338BD00BF0000002000
:10063000074AD36823F4E0631B041B0C000200F498
:10064000E060034343F0BF6343F40033D36070477B
:1006500000ED00E030B4174BDB68C3F30223C3F1B5
:100660000704042C28BF04241D1D062D18D9033BA4
:100670004FF0FF3505FA04F421EA0401994005FA28
:1006800003F322EA0303194300280BDB0901C9B273
:1006900000F1604000F5614080F8001330BC704705
:1006A0000023E5E700F00F000901C9B2024B19541D
:1006B000F4E700BF00ED00E014ED00E0002807DBE8
:1006C00000F01F02400901239340024A42F8203003
:1006D000704700BF00E100E00138B0F1807F0AD22E
:1006E000064B5860064AF02182F8231000209860DB
:1006F00007221A6070470120704700BF10E000E039
:1007000000ED00E000230F2B00F2DD80F0B482B09A
:100710005DE086685F000324BC4026EA0406CC68DE
:10072000BC4034438460466826EA02064C68C4F341
:1007300000129A403243426057E0DC08083450F817
:10074000247003F0070296000F22B24027EA020746
:100750000A69B2403A4340F824205AE0072200E0F8
:100760000022B2403A430234574E46F82420574AFA
:100770001468EA4324EA05064F6817F4803F01D065
:1007800045EA0406514C2660646802EA04064F6894
:1007900017F4003F01D045EA04064C4C6660A4689B
:1007A00002EA04064F6817F4801F01D045EA0406E8
:1007B000464CA660E46822404E6816F4001F01D043
:1007C00045EA0402414CE26001330F2B78D8012244
:1007D0009A400C6804EA020532EA0404F4D14C6839
:1007E00004F00304013C012C93D94A6802F003028F
:1007F000032A09D0C4685E000322B24024EA02043E
:100800008A68B2402243C2604A6802F00302022AA8
:1008100093D004685E000322B24024EA02044A68CE
:1008200002F00302B240224302604A6812F0805F85
:10083000CAD000220192264A546C44F48044546485
:10084000526C02F480420192019A9C08A61C1E4A36
:1008500052F8267003F0030296000F22B24027EAF6
:1008600002071C4A90423FF47BAF02F5806290423F
:100870001AD002F58062904218D002F58062904250
:1008800016D002F58062904214D002F58062904248
:1008900012D002F58062904210D002F58062904240
:1008A0003FF45CAF08225CE701225AE7022258E7D6
:1008B000032256E7042254E7052252E7062250E7B6
:1008C00002B0F0BC7047704700380140003C014066
:1008D00000380240000002400AB1816170470904FB
:1008E00081617047436901EA030221EA030141EA99
:1008F000024181617047704708B5054B5B6903424F
:1009000000D108BD024B5861FFF7F5FFF9E700BFC2
:10091000003C0140002800F0BD8070B5044690F80E
:100920004130002B51D0022284F841202168CB694C
:1009300023F47B6323F00F03CB6123681A6263699E
:10094000934263D0E368002B46D11025A368202B87
:1009500000D86D00012000F0BBFE2369B3F5007FD5
:100960003CD0B0FBF5F000EB800043006069B3FBC6
:10097000F0F30533484AA2FB0323C3F3C002C2EBE2
:10098000D3035B0811029A1EFD2A41D822690A434B
:10099000216813430B622168CB6923F47B6323F046
:1009A0000F036268A0680243E0680243A069024343
:1009B000134343F40063CB61236A012B2ED0002044
:1009C0006064012384F8413070BD80F84030334BBF
:1009D000436301F0ADFEA6E72025B7E7E36853B116
:1009E000AD00B0FBF5F000EB800043006069B3FBA5
:1009F000F0F30533BEE7ED00B0FBF5F000EB80004F
:100A000043006069B3FBF0F30533B3E70021BAE7B5
:100A1000636C43F0100363640120D5E7204B6363EC
:100A20002268204B9A421FD04FF04022D36923F412
:100A30007B6323F00F03D36122681A4B9A4215D0CF
:100A40004FF0402302221A622268164B9A4210D0BD
:100A50004FF04025EB699BB26268B2F5007F0AD087
:100A6000B2B94FF4807008E00F4ADFE7A3F5806366
:100A7000E8E70D4DEEE74FF480702689A189228BBF
:100A8000304301430A43134343F40063EB6196E7A9
:100A90000020F2E701207047CDCCCCCC230B00081E
:100AA000350D00080038004000340040704708B59C
:100AB000426A03681288DA60436A02334362438DF4
:100AC0009BB2013B9BB24385438D9BB203B108BDF2
:100AD0000268536823F0A0035360012380F841307B
:100AE000FFF7E4FFF3E7704708B50368DA68C36A05
:100AF0001A80C36A0233C362438E9BB2013B9BB22E
:100B00004386438E9BB203B108BD0268536823F04D
:100B100060035360012380F84130FFF7E4FFF3E7FF
:100B2000704710B584B0044602689368039390F848
:100B30004130DBB2042B06D094F84130DBB2032BFA
:100B40002CD004B010BD039B13F0010F03D05368E9
:100B500013F0400F1FD1039B13F0400FECD023681C
:100B60005A6812F0200FE7D05A6822F060025A60EB
:100B7000002301932368DA6801929B680193019B2B
:100B8000012384F84130636C43F002036364204620
:100B9000FFF7C6FFD0E7FFF7A7FFDCE7039B13F0E3
:100BA000020F04D023685B6813F0800F1DD1039BF4
:100BB00013F0080FC5D023685A6812F0200FC0D078
:100BC0005A6822F0A0025A600023029323689B68AF
:100BD0000293029B012384F84130636C43F00403C9
:100BE00063642046FFF79CFFABE72046FFF75FFFFB
:100BF000DDE7704708B5436A9A1C426202681B88A9
:100C0000D360438D9BB2013B9BB24385438D9BB226
:100C10003BB90268536823F0A0035360438E9BB234
:100C200003B108BD012380F84130FFF7E2FFF8E788
:100C300008B50268154B9A421CD04FF04023DA6881
:100C4000C36A991CC1621A80438E9BB2013B9BB25E
:100C50004386438E9BB263B902680C4B9A420CD018
:100C60004FF04022536823F060035360438D9BB2E2
:100C70002BB108BDA3F58063E1E7054AF2E7012344
:100C800080F84130FFF7B5FFF3E700BF00380040C0
:100C90000034004008B5436A9A1C42621A88016811
:100CA000134B994218D04FF04023DA60438D9BB22A
:100CB000013B9BB24385438D9BB263B902680C4BE9
:100CC0009A420CD04FF04022536823F0A0035360A7
:100CD000438E9BB22BB108BDA3F58063E5E7054ABF
:100CE000F2E7012380F84130FFF783FFF3E700BF0D
:100CF000003800400034004008B50368DA68C36A71
:100D0000991CC1621A80438E9BB2013B9BB2438601
:100D1000438E9BB23BB90268536823F06003536073
:100D2000438D9BB203B108BD012380F84130FFF72A
:100D300060FFF8E710B586B0044603689A6805922C
:100D4000704A93426FD04FF04022916804915B68E3
:100D50000393536802936368B3F5007F01D0002BBF
:100D600070D1059B13F0020F03D0039B13F0800F8B
:100D70005CD1049B13F0010F03D0029B13F0400FD2
:100D800058D1049B13F0400F24D0029B13F0200F86
:100D900020D022685B4B9A4250D04FF040225368DB
:100DA00023F0600353602268536823F0A00353606C
:100DB000002300932368DA6800929B680093009BED
:100DC000012384F84130636C43F0020363642046DE
:100DD000FFF7A6FE059B13F0080F22D0039B13F02C
:100DE000200F1ED02268536823F0A00353602268AE
:100DF000444B9A4224D04FF04022536823F06003C2
:100E000053600023019323689B680193019B012396
:100E100084F84130636C43F0040363642046FFF7B9
:100E20007FFE06B010BDA2F580628EE72046FFF778
:100E3000E1FE9EE72046FFF7FBFEA2E7324AAEE75F
:100E4000314ADAE7049B13F0020F03D0029B13F040
:100E5000800F4AD1059B13F0010F03D0039B13F0C1
:100E6000400F46D1059B13F0400F1CD0039B13F09D
:100E7000200F18D02268536823F060035360226863
:100E8000204B9A4239D04FF04022536823F0A00300
:100E90005360012384F84130636C43F002036364C0
:100EA0002046FFF73DFE049B13F0080FB9D0029BCC
:100EB00013F0200FB5D02268124B9A421FD04FF08A
:100EC0004022536823F0A00353602268536823F044
:100ED00060035360012384F84130636C43F00403E2
:100EE00063642046FFF71CFE9BE72046FFF7D2FE17
:100EF000B0E72046FFF700FFB4E7034AC5E7024A20
:100F0000DFE700BF0038004000340040002800F058
:100F1000DF8170B582B00446036813F0010F3BD047
:100F2000A64B9B6803F00C03042B2CD0A34B9B68AF
:100F300003F00C03082B21D06368B3F5803F4FD03A
:100F4000B3F5A02F52D09D4B1A6822F480321A605C
:100F50001A6822F480221A606368002B50D0FFF7D1
:100F60004DFB0546954B1B6813F4003F14D1FFF76A
:100F700045FB401B6428F5D90320B0E18F4B5B682B
:100F800013F4800FD8D08D4B1B6813F4003F03D0AF
:100F90006368002B00F09E81236813F0020F54D089
:100FA000864B9B6813F00C0F3ED0844B9B6803F07C
:100FB0000C03082B33D0E368002B67D0804B012251
:100FC0001A60FFF71BFB05467C4B1B6813F0020FF2
:100FD00053D1FFF713FB401B0228F5D903207EE114
:100FE000764A136843F480331360B5E7734B1A688D
:100FF00042F480221A601A6842F480321A60ABE729
:10100000FFF7FCFA05466D4B1B6813F4003FC3D095
:10101000FFF7F4FA401B6428F5D903205FE1674B22
:101020005B6813F4800FC6D1644B1B6813F0020F8A
:1010300003D0E368012B40F04F81604A136823F02E
:10104000F803216943EAC1031360236813F0080F12
:1010500040D0636963B35B4B01221A60FFF7CEFA9D
:101060000546564B5B6F13F0020F33D1FFF7C6FAFC
:10107000401B0228F5D9032031E1504A136823F0C0
:10108000F803216943EAC1031360DEE74C4B0022F9
:101090001A60FFF7B3FA0546484B1B6813F0020FBE
:1010A000D3D0FFF7ABFA401B0228F5D9032016E195
:1010B000444B00221A60FFF7A1FA05463F4B5B6FD5
:1010C00013F0020F06D0FFF799FA401B0228F5D95A
:1010D000032004E1236813F0040F78D0374B1B6C16
:1010E00013F0805F0DD100230193344B1A6C42F052
:1010F00080521A641B6C03F080530193019B0125FD
:1011000000E00025304B1B6813F4807F21D0A368DA
:10111000012B32D0052B36D0284B1A6F22F001025A
:101120001A671A6F22F004021A67A368002B34D0E2
:10113000FFF764FA0646214B1B6F13F0020F45D1EF
:10114000FFF75CFA801B41F288339842F3D9032001
:10115000C5E01D4A136843F480731360FFF74EFA2D
:101160000646194B1B6813F4807FD0D1FFF746FA6F
:10117000801B0228F5D90320B1E0104A136F43F019
:1011800001031367D1E70D4B1A6F42F004021A678F
:101190001A6F42F001021A67C7E7FFF72FFA0646F7
:1011A000064B1B6F13F0020F10D0FFF727FA801BBE
:1011B00041F288339842F3D9032090E0003802408E
:1011C00000004742800E474200700040EDB9A3691D
:1011D000002B00F08380494A926802F00C02082A32
:1011E00051D0022B17D0464B00221A60FFF706FAA7
:1011F0000446424B1B6813F0007F42D0FFF7FEF914
:10120000001B0228F5D9032069E03C4A136C23F047
:1012100080531364DBE73A4B00221A60FFF7EEF9C4
:101220000546364B1B6813F0007F06D0FFF7E6F942
:10123000401B0228F5D9032051E0E369226A1343D9
:10124000626A43EA8213A26A5208013A43EA0243FD
:10125000E26A43EA0263294A5360294B01221A6079
:10126000FFF7CCF90446254B1B6813F0007F06D12D
:10127000FFF7C4F9001B0228F5D903202FE0002056
:101280002DE000202BE0012B2BD01C4B5B6803F4DE
:101290008001E269914226D103F03F02216A8A422D
:1012A00023D1616A47F6C0721A40B2EB811F1ED18A
:1012B00003F44031A26A5208013AB1EB024F18D14F
:1012C00003F07063E26AB3EB026F14D1002006E012
:1012D00001207047012002E0012000E0002002B060
:1012E00070BD0120FBE70120F9E70120F7E70120AD
:1012F000F5E70120F3E70120F1E700BF00380240E5
:1013000060004742F8B52F4B9B6803F00C03042B99
:1013100053D0082B53D12B4B5A6802F03F025B6825
:1013200013F4800F28D0274B5B68C3F38813580150
:101330000021C01A61F100018E0146EA9066870122
:101340003C1A66EB0105E90041EA5471E000C0185F
:1013500041F100014B0243EAD053440220461946B2
:101360000023FEF785FF174B5B68C3F3014301338E
:101370005B00B0FBF3F023E0124B5B68C3F3881310
:101380005C010025E41A65F10005AE0146EA9466A9
:10139000A701381B66EB0501CC0044EA5074C50078
:1013A000E81844F100018B0243EA9053840220467E
:1013B00019460023FEF75CFFD5E7034800E0034829
:1013C000F8BD00BF0038024000127A000024F4008B
:1013D000002800F09B8070B50D4604464F4B1B68FB
:1013E00003F007038B4208D2CBB24C4A1370136848
:1013F00003F007038B4240F08B80236813F0020F49
:1014000017D013F0040F04D0454A936843F4E05317
:101410009360236813F0080F04D0414A936843F4A3
:10142000604393603E4A936823F0F003A1680B4346
:101430009360236813F0010F32D06368012B21D031
:101440009A1E012A25D9364A126812F0020F61D07D
:1014500033498A6822F0030213438B60FFF7CEF80A
:1014600006462F4B9B6803F00C036268B3EB820FB8
:1014700016D0FFF7C3F8801B41F288339842F0D9A9
:10148000032042E0264A126812F4003FE0D1012016
:101490003BE0234A126812F0007FD9D1012034E0EA
:1014A0001E4B1B6803F00703AB4207D9EAB21B4B84
:1014B0001A701B6803F00703AB422DD1236813F0A9
:1014C000040F06D0164A936823F4E053E1680B43F7
:1014D0009360236813F0080F07D0114A936823F430
:1014E0006043216943EAC1039360FFF70BFF0C4B94
:1014F0009B68C3F303130B4AD35CD8400A4B1860B4
:101500000A4B1868FFF730F8002070BD01207047C3
:101510000120FAE70120F8E70120F6E7003C02404D
:10152000003802403C390008080000200400002078
:10153000014B1868704700BF0800002008B5FFF78E
:10154000F7FF044B9B68C3F38223034AD35CD84064
:1015500008BD00BF003802404C39000808B5FFF74D
:10156000E7FF044B9B68C3F34233034AD35CD84084
:1015700008BD00BF003802404C39000830B583B0C8
:101580000446036813F0050F06D1236813F0020F19
:101590002ED1002003B030BD494B00221A60FFF766
:1015A0002DF80546474B1B6813F0006F06D0FFF778
:1015B00025F8431B022BF5D90320EBE76268A368EB
:1015C0001B0743EA82133F4AC2F884303C4B012296
:1015D0001A60FFF713F805463A4B1B6813F0006FCB
:1015E000D3D1FFF70BF8431B022BF5D90320D1E72A
:1015F00000230193334B1A6C42F080521A641B6C27
:1016000003F080530193019B2F4A136843F48073C6
:101610001360FEF7F3FF05462B4B1B6813F4807F26
:1016200006D1FEF7EBFF431B022BF5D90320B1E7F0
:10163000244B1B6F13F4407312D0E26802F4407223
:101640009A420DD01F4B1A6F22F440721F4901209D
:101650000860002008601A671B6F13F0010F13D198
:10166000E36803F44072B2F5407F1ED0154A9368D8
:1016700023F4F813936013490B6FE268C2F30B0273
:1016800013430B67002085E7FEF7B8FF05460D4BB7
:101690001B6F13F0020FE3D1FEF7B0FF401B41F2C6
:1016A00088339842F3D9032074E706498A6822F404
:1016B000F81223F0704323F4407313438B60DAE78E
:1016C000680047420038024000700040400E474228
:1016D000012801D000207047164B9B6813F40003CB
:1016E00003D0012B23D114487047124B5B6813F4CD
:1016F000800F14D00F4B5B6803F03F030F48B0FB23
:10170000F3F00C4AD2F88430C3F3881300FB03F0E3
:10171000D2F88430C3F30273B0FBF3F07047054B8B
:101720005B6803F03F030648B0FBF3F0E9E70020F5
:10173000704700BF003802400080BB0000127A00F2
:101740000024F4002DE9F04782B00546884617468C
:101750001E46FEF753FF0A9B1B1A03EB0609FEF712
:101760004DFF82462A4B1B68C3F3CB3309FB03F3BF
:1017700001932B689C6838EA04030CBF0124002401
:10178000BC4240D0B6F1FF3FF3D0FEF737FFA0EBED
:101790000A0048450AD2B9F1000F07D0019A02B1F8
:1017A0004A46019B013B01939146E2E72A68536850
:1017B00023F0E00353606B68B3F5827F0BD0AB6A14
:1017C000B3F5005F14D0012385F85130002385F86C
:1017D0005030032018E0AB68B3F5004F02D0B3F5EA
:1017E000806FECD12A68136823F040031360E6E7AA
:1017F0002A68136823F4005313602A68136843F4BB
:1018000000531360DFE7002002B0BDE8F08700BF9F
:101810000800002030B585B00446164B1868164BFA
:10182000A3FB0030400D4FF47A7505FB00F00390E8
:101830006368B3F5827F0BD0039BBBB1039B013B75
:10184000039323689B6813F0800FF5D100200EE00E
:1018500000920B46002280212046FFF773FF30B133
:10186000636D43F020036365032000E0002005B0B2
:1018700030BD00BF08000020819F5E1610B582B009
:1018800004460B464168B1F5827F14D06168B1F51A
:10189000827F2AD1A168B1F5806F19D00092002211
:1018A00080212046FFF74EFF30B3636D43F02003E5
:1018B0006365032020E08168B1F5004F02D0B1F5E7
:1018C000806FE3D12068016821F040010160DDE70D
:1018D0000092002201212046FFF734FF60B1636DC2
:1018E00043F020036365032006E0009200220121FB
:1018F0002046FFF727FF08B902B010BD636D43F023
:10190000200363650320F7E700285AD010B504468A
:10191000436A33B94368B3F5827F05D00023C361BE
:1019200002E00023036143610023A36294F8513075
:10193000002B40D0022384F851302268136823F032
:1019400040031360636803F48273A26802F40442E4
:101950001343E26802F400621343226902F00202B8
:101960001343626902F001021343A26902F4007298
:101970001343E26902F038021343226A02F0800244
:101980001343A26A02F40052216813430B60638B75
:1019900003F00403626A02F01002216813434B60F3
:1019A0002268D36923F40063D361002060650123BA
:1019B00084F8513010BD84F85030204600F006FF06
:1019C000B8E7012070472DE9F04383B01D4690F839
:1019D0005030012B00F0CC8004468846914601230C
:1019E00080F85030FEF70AFE074694F85160F6B2D0
:1019F000012E40F0AA80B8F1000F00F0A780B9F1E5
:101A0000000F00F0A380032384F8513000236365A6
:101A1000C4F83080A4F83490A4F83690A363A38768
:101A2000E38763642364A368B3F5004F1ED0236883
:101A30001A6812F0400F03D11A6842F040021A608F
:101A4000E368B3F5006F1CD0636813B1B9F1010FFF
:101A500052D1226B236812781A73236B01332363EC
:101A6000E38E9BB2013B9BB2E38645E0226813689C
:101A700023F0400313602268136843F4804313602B
:101A8000D5E7636813B1B9F1010F16D1226B236852
:101A90001288DA60236B02332363E38E9BB2013B2F
:101AA0009BB2E38609E0FEF7A9FDC01BA84202D362
:101AB000B5F1FF3F54D1002D54D0E38E9BB2002BE3
:101AC0002ED023689A6812F0020FECD0226B128895
:101AD000DA60236B02332363E38E9BB2013B9BB23C
:101AE000E386EAE7FEF78AFDC01BA84202D3B5F100
:101AF000FF3F39D1002D39D0E38E9BB283B12368EB
:101B00009A6812F0020FEDD0226B12781A73236BD1
:101B100001332363E28E92B2013A92B2E286EBE79E
:101B20003A4629462046FFF775FE08B12023636533
:101B3000A36833B901932368DA6801929B68019323
:101B4000019B636D13B9002600E00226012384F88F
:101B50005130002384F85030304603B0BDE8F083A4
:101B60000326F3E70326F1E70326EFE70326EDE775
:101B70000226F1E72DE9F04383B01F460A9D90F855
:101B80005030012B00F01081044688469146012315
:101B900080F85030FEF732FD064694F85130DBB243
:101BA0006268012B0AD0B2F5827F40F0E380A26820
:101BB000002A40F0E980042B40F0E880B8F1000FE3
:101BC00000F0E680B9F1000F00F0E480002F00F093
:101BD000E38094F85130DBB2042B02D0052384F863
:101BE000513000236365C4F83890E787A787C4F8AD
:101BF0003080E786A7862364636423681A6812F03E
:101C0000400F03D11A6842F040021A60E368B3F54E
:101C1000006F11D063680BB1012F0BD1226B2368C9
:101C200012781A73236B01332363E38E9BB2013B5B
:101C30009BB2E38601276BE063680BB1012F0BD1E8
:101C4000226B23681288DA60236B02332363E38EEE
:101C50009BB2013B9BB2E38601271CE023689A6894
:101C600012F0010F0ED0E28F92B25AB1DA68A36B74
:101C70001A80A36B0233A363E38F9BB2013B9BB239
:101C8000E3870127FEF7BAFC801BA84203D3B5F116
:101C9000FF3F40F08380E38E9BB21BB9E38F9BB282
:101CA000002B53D023689A6812F0020FD6D0E28E30
:101CB00092B2002AD2D0002FD0D0226B1288DA60E4
:101CC000236B02332363E38E9BB2013B9BB2E3861B
:101CD0000027C3E723689A6812F0010F0ED0E28F45
:101CE00092B25AB1DA68A36B1A70A36B0133A36383
:101CF000E38F9BB2013B9BB2E3870127FEF77EFC9B
:101D0000831BAB4202D3B5F1FF3F49D1002D49D02F
:101D1000E38E9BB213B9E38F9BB2BBB123689A6881
:101D200012F0020FD6D0E28E92B2002AD2D0002F4B
:101D3000D0D0226B12781A73236B01332363E38EA6
:101D40009BB2013B9BB2E3860027C3E7324629469C
:101D50002046FFF75FFD48B9A36863B90193236884
:101D6000DA6801929B680193019B04E0202363657C
:101D7000012000E00220012384F85130002384F880
:101D8000503003B0BDE8F0830220F4E70220F2E710
:101D90000120F0E70120EEE70120ECE70320EAE76D
:101DA0000320E8E70320E6E70220EAE72DE9F04315
:101DB00083B00446884691461D464368B3F5827F4A
:101DC00038D094F85030012B00F0A880012384F81B
:101DD0005030FEF713FC074694F85160F6B2012E1E
:101DE00040F08980B8F1000F00F08680B9F1000F53
:101DF00000F08280042384F8513000236365C4F826
:101E00003880A4F83C90A4F83E902363A386E38630
:101E100023646364A368B3F5004F18D023681A687D
:101E200012F0400F03D11A6842F040021A60E368D2
:101E300013B340E08368002BC3D1042380F85130F2
:101E4000009513460A46FFF795FE06465AE02268BB
:101E5000136823F0400313602268136823F480435F
:101E60001360DBE7FEF7CAFBC01BA84202D3B5F143
:101E7000FF3F4BD1002D4BD0E38F9BB2002B2ED0D8
:101E800023689A6812F0010FECD0A26B1B7B1370D1
:101E9000A36B0133A363E38F9BB2013B9BB2E38748
:101EA000EAE7FEF7ABFBC01BA84202D3B5F1FF3F48
:101EB00030D1002D30D0E38F9BB283B123689A6874
:101EC00012F0010FEDD0DA68A36B1A80A36B023316
:101ED000A363E28F92B2013A92B2E287EBE73A460D
:101EE00029462046FFF7CAFC08B120236365636DCD
:101EF00013B9002600E00226012384F851300023A4
:101F000084F85030304603B0BDE8F0830326F3E791
:101F10000326F1E70326EFE70326EDE70226F1E7C4
:101F200070B504460268136923F44053C1680B433B
:101F3000136183680269134342691343C2691A43F8
:101F40000168CB6823F4164323F00C031343CB60E2
:101F50000268536923F4407381690B43536103683A
:101F6000344A934206D002F58062934202D0FFF7D2
:101F7000E5FA01E0FFF7F2FAE369B3F5004F2AD082
:101F80000026051846EB06012D1846EB0101CB0093
:101F900043EA5573EA001546194663689A009B0F99
:101FA000281846EB0101FEF763F9234DA5FB00322B
:101FB0005109642303FB11031B013233A5FB0323E7
:101FC0005B0903F0F00202EB011203F00F0321683A
:101FD00013448B6070BD0026051846EB06012D18D2
:101FE00046EB0101CB0043EA5573EA00154619465A
:101FF00062683346921846EB0303281846EB01014A
:10200000FEF736F90C4DA5FB00325109642303FBA2
:102010001103DB003233A5FB03235B095A0002F4F2
:10202000F87202EB011203F00703216813448B607E
:10203000D0E700BF001001401F85EB512DE9F843A8
:1020400005460F4616469946DDF820802C68246820
:1020500037EA04030CBF01240024B4421FD1B8F1B5
:10206000FF3FF3D0B8F1000F05D0FEF7C7FAA0EBA1
:1020700009004045EAD92A68D36823F4D073D360B5
:102080002A68536923F001035361202385F83D300A
:1020900085F83E30002385F83C30032000E0002026
:1020A000BDE8F88358B310B5044690F83D300BB343
:1020B000242384F83D302268D36823F40053D3608E
:1020C0002046FFF72DFF2268136923F49043136124
:1020D0002268536923F02A0353612268D36843F4CA
:1020E0000053D36000202064202384F83D3084F81E
:1020F0003E3010BD80F83C3000F0A0FBD8E7012056
:1021000070472DE9F04182B01E4690F83D30DBB2B9
:10211000202B54D104460D469046002953D0002A66
:1021200053D090F83C30012B51D0012380F83C3043
:1021300000230364212380F83D30FEF75FFA074651
:10214000A4F82480A4F82680A368B3F5805F05D0A6
:102150004FF00008002384F83C3012E0236913B1EB
:102160004FF00008F6E7A8460025F3E738F8023BF1
:102170002268C3F308035360E28C92B2013A92B230
:10218000E284E38C9BB273B100963B46002280212F
:102190002046FFF753FFE0B9002DE7D015F8012BDB
:1021A00023685A60E8E700963B460022402120461B
:1021B000FFF744FF78B9202384F83D3000E0022087
:1021C00002B0BDE8F0810120FAE70120F8E7022023
:1021D000F6E70320F4E70320F2E72DE9F04182B0AF
:1021E0001E4690F83E30DBB2202B5CD104460D46F3
:1021F000904600295BD0002A5BD090F83C30012B40
:1022000059D0012380F83C3000230364222280F857
:102210003E200363FEF7F2F90746A4F82C80A4F8E9
:102220002E80A368B3F5805F05D04FF0000800232F
:1022300084F83C3017E0236913B14FF00008F6E74B
:10224000A8460025F3E723685B68C3F3080328F872
:10225000023B03E023685B682B700135E28D92B28C
:10226000013A92B2E285E38D9BB2BBB100963B4648
:10227000002220212046FFF7E1FEF0B9002DE2D038
:10228000A368B3F5805FE5D013B92369002BE1D0D3
:1022900023685B6803F07F032B70DEE7202384F85C
:1022A0003E30002000E0022002B0BDE8F0810120B5
:1022B000FAE70120F8E70220F6E70320F4E7000040
:1022C0002DE9F04F8DB000240794089409940A94E6
:1022D0000B9401946F4B1A6B42F010021A631A6B45
:1022E00002F010020192019A02941A6B42F0040269
:1022F0001A631A6B02F004020292029A03941A6B98
:1023000042F080021A631A6B02F080020392039A71
:1023100004941A6B42F001021A631A6B02F0010274
:102320000492049A05941A6B42F002021A631A6B23
:1023300002F002020592059A06941A6B42F0080216
:102340001A631B6B03F008030693069B524E01228F
:1023500004213046FEF7C0FA224608213046FEF737
:10236000BBFADFF84081012211464046FEF7B4FA7D
:10237000DFF8349122464FF210014846FEF7ACFADE
:102380000C2307930125089509940A9407A9304660
:10239000FEF7B8F90795089509940A9407A94046ED
:1023A000FEF7B0F9082307930227089709940A94C7
:1023B0004FF0050ACDF82CA007A94046FEF7A2F978
:1023C0004FF0040BCDF81CB008940994A8F5806870
:1023D00007A94046FEF796F94FF4806307930897E4
:1023E00009940A94CDF82CA007A94046FEF78AF973
:1023F0004FF210030793089509940A9407A94846D9
:10240000FEF780F94FF40073079308940994DFF8FE
:102410009CA007A95046FEF775F94FF4E0530793C7
:10242000089709940A940A230B9307A95046FEF7CC
:1024300069F9202307930894099407A94846FEF7F1
:1024400061F94FF4107307931223089309950A94C6
:10245000CDF82CB007A94046FEF754F907950F4B6D
:102460000893099407A93046FEF74CF907970C4BDF
:102470000893099407A93046FEF744F922462146FD
:102480000620FEF7E7F80620FEF718F90DB0BDE8C4
:10249000F08F00BF00380240001002400000111011
:1024A0000000121000080240000C02400000024030
:1024B00008B50948094B03604FF4007242600023DD
:1024C0008360C3600261064A42618361C361036243
:1024D000FEF720FA08BD00BF44010020003C004088
:1024E0000077010008B50C480C4B03604FF4827371
:1024F000436000238360C360036143614FF4007253
:1025000082611822C2610362436283620A23C3624A
:10251000FFF7FAF908BD00BFA80000200030014015
:1025200008B50848084B03604FF4E13343600023CB
:102530008360C36003610C2242618361C361FFF762
:10254000B1FD08BD000100200044004070B598B006
:10255000302200210DEB020000F086FA00240794DF
:10256000089409940A940B94039404940594069493
:102570000194204B1A6C42F080521A641B6C03F0D9
:1025800080530193019B02941B4B1A6842F48042D2
:102590001A601B6803F480430293029B01260C9689
:1025A0004FF480330D93022512954FF4800313935B
:1025B000082314934FF4A8731593169507231793C4
:1025C0000CA8FEF7A3FC0F230793089509944FF47A
:1025D000A0530A934FF480530B93052107A8FEF7ED
:1025E000F7FE0396C0230493059503A8FEF7C6FFE4
:1025F00018B070BD003802400070004008B5FDF70B
:10260000D7FFFFF7A3FFFFF75BFEFFF751FFFFF7D1
:1026100069FFFFF785FF2F4C202323701123637080
:102620002D4D002208212846FEF756F92B4E322365
:10263000022221463046FFF7C6F90122082128462A
:10264000FEF74AF9A0232370002208212846FEF74E
:1026500043F93223012221463046FFF7B4F9204CDA
:102660003223012221463046FFF7A0FB0122082138
:102670002846FEF731F921781A4800F0FDF94FF4A9
:1026800080511948FEF72EF9124CA9232370124DE0
:10269000002208212846FEF71FF9104E322301229E
:1026A00021463046FFF78FF90D4C32230122214697
:1026B0003046FFF77BFB012208212846FEF70CF984
:1026C0006420FDF7A1FF94F90010084800F0D4F948
:1026D000D5E700BFA400002000100240A8000020A1
:1026E000A000002054390008000C02407039000896
:1026F00000B583B0002100910C4B5A6C42F480422B
:102700005A645A6C02F480420092009A01911A6C49
:1027100042F080521A641B6C03F080530193019BBA
:102720000720FDF785FF03B05DF804FB0038024089
:1027300070B588B000230393049305930693079321
:1027400002681F4B9A4201D008B070BD002400946B
:1027500003F5FE331A6C42F400421A641A6C02F458
:1027600000420092009A01941A6B42F001021A632F
:102770001A6B02F001020192019A02941A6B42F064
:1027800004021A631B6B03F004030293029B1023E1
:10279000039302260496059406940625079503A93B
:1027A0000848FDF7AFFF4FF4A45303930496059434
:1027B0000694079503A90448FDF7A4FFC4E700BFEA
:1027C000003C0040000002400008024000B589B013
:1027D0000023039304930593069307930268154B14
:1027E0009A4202D009B05DF804FB0022019203F581
:1027F0008433596C41F480515964596C01F480510F
:10280000019101990292196B41F0010119631B6B4F
:1028100003F001030293029BE0230393022304933A
:10282000059206920523079303A90348FDF76AFF63
:10283000D8E700BF003001400000024000B589B079
:102840000023039304930593069307930268154BA3
:102850009A4202D009B05DF804FB0022019203F510
:10286000FA33196C41F400311964196C01F4003128
:10287000019101990292196B41F0010119631B6BDF
:1028800003F001030293029B0C230393022304939E
:102890000592032306930723079303A90248FDF734
:1028A00031FFD7E700440040000002407047FEE7D8
:1028B000FEE7FEE7FEE770477047704708B5FDF793
:1028C00091FE08BD08B50120FEF716F808BD70B5E9
:1028D0000C4616460025B54207DA00F05FF821469F
:1028E00001F8010B01350C46F5E7304670BD70B5B7
:1028F0000C4616460025B54205DA14F8010B00F027
:102900003DF80135F7E7304670BD000008B50346D5
:102910000B4A126842B10A4A106803446A4693425D
:1029200006D8074A136008BD054A06491160F2E758
:1029300000F070F80C2303604FF0FF30F3E700BFA6
:102940008C000020A00100204FF0FF3070474FF4B2
:1029500000534B60002070470120704700207047F3
:10296000054BD3F8882042F47002C3F888204FF05A
:1029700000629A60704700BF00ED00E000B583B0D0
:1029800001904FF6FF73012201A90348FFF7B9FB3D
:10299000012003B05DF804FB0001002000B583B006
:1029A0004FF6FF7301220DF107010448FFF715FCF4
:1029B0009DF8070003B05DF804FB00BF0001002094
:1029C000DFF834D0002103E00C4B5B584350043156
:1029D0000B480C4B42189A42F6D30B4A02E00023F4
:1029E00042F8043B094B9A42F9D3FFF7B9FF00F0D4
:1029F00017F8FFF703FE7047000002202C3A00088A
:102A00000000002070000020700000209C010020C9
:102A1000FEE70000014B1868704700BF0C00002063
:102A200070B50D4D0D4C641BA4100026A64209D1B3
:102A30000B4D0C4C00F076FF641BA4100026A64240
:102A400005D170BD55F8043B98470136EEE755F8BF
:102A5000043B98470136F2E7243A0008243A00087C
:102A6000243A0008283A000802440346934200D161
:102A7000704703F8011BF9E70FB40A4B13B51C6844
:102A800024B1A36913B9204600F066F805AB049A97
:102A9000A1680193204600F083F902B0BDE8104020
:102AA00004B070470C000020002310B50446C0E9B4
:102AB0000033C0E90433836081814366C28183614E
:102AC000194608225C30FFF7CFFF054B6362054BC8
:102AD000A362054BE362054B2462236310BD00BF74
:102AE000493300086B330008A3330008C7330008DC
:102AF000014900F0AFB800BFA136000870B54A1E0A
:102B0000682555430E4605F1740100F0C5F80446EA
:102B100040B10021C0E900160C30A06005F1680248
:102B2000FFF7A2FF204670BD014800F0B3B800BF18
:102B300094010020014800F0AEB800BF94010020CD
:102B4000014800F0A7B800BF8F010020014800F045
:102B5000A2B800BF8F01002010B50446FFF7F0FFB8
:102B6000A3691BB1BDE81040FFF7F0BFC4E9123301
:102B70002365134B134A1B68A262A34204BF0123BF
:102B8000A361204600F020F86060204600F01CF8A9
:102B9000A060204600F018F80022E0600421606880
:102BA000FFF782FFA06801220921FFF77DFFE0689F
:102BB00002221221FFF778FF0123A361D2E700BFB1
:102BC00084390008F12A0008F8B50746FFF7ACFF82
:102BD0001E4B1E68B36913B93046FFF7BDFF483678
:102BE000D6E90134013B03D533680BB33668F7E708
:102BF000B4F90C50D5B9164BE36004F15800656682
:102C000000F047F8FFF796FFC4E90155C4E9045501
:102C10002560A5610822294604F15C00FFF724FF26
:102C2000C4E90D55C4E912552046F8BD6834D9E70A
:102C300004213846FFF762FF044630600028D5D1F2
:102C4000FFF778FF0C233B60EEE700BF84390008F4
:102C50000100FFFF2DE9F8430646884600F14804CD
:102C60000027D4E90195B9F1010905D52468002CA4
:102C7000F7D13846BDE8F883AB89012B07D9B5F900
:102C80000E30013303D029463046C047074368352C
:102C9000E9E7704770477047F8B5CD1C25F003058C
:102CA00008350C2D38BF0C25002D064601DBA94246
:102CB00003D90C2333600020F8BD00F0A3FD2149A7
:102CC0000A6814469CB9204F3B6823B92146304618
:102CD00000F02AFB38602946304600F025FB431CF3
:102CE00023D10C233360304600F092FDE3E72368E4
:102CF0005B1B17D40B2B03D923601C44256004E015
:102D00006368A2420CBF0B605360304600F080FD48
:102D100004F10B00231D20F00700C21ACCD01B1AAF
:102D2000A350C9E722466468CCE7C41C24F003041E
:102D3000A042E3D0211A304600F0F6FA0130DDD18E
:102D4000CFE700BF94000020980000209368013B6B
:102D5000002B10B4936008DA9469A34201DB0A29BE
:102D600003D15DF8044B00F033BB1368581C1060AE
:102D7000197008465DF8044B7047F8B506460F46D3
:102D80001446D518AC4201D1002007E014F8011B0D
:102D90003A463046FFF7DAFF431CF3D1F8BD000096
:102DA0002DE9F04F0D469DB014469846064618B1E1
:102DB00083690BB9FFF7D0FE894B9D421BD1756823
:102DC0006B6ED90705D4AB899A0502D4A86DFFF7BD
:102DD00061FFAB891B0701D52B69EBB9294630464A
:102DE00000F05AFBC0B16B6EDC070ED54FF0FF3020
:102DF0001DB0BDE8F08F7B4B9D4201D1B568DFE788
:102E0000794B9D4208BFF568DAE7AB899805EDD4A8
:102E1000A86DFFF740FFE9E70023099320238DF811
:102E20002930CDF80C803023DFF8C0818DF82A30AE
:102E30004FF0010923469A4613F8012B0AB1252ABF
:102E4000F9D1BAEB040B0BD05B462246294630463B
:102E5000FFF793FF013000F0AA80099A5A440992C3
:102E60009AF80030002B00F0A28000234FF0FF32D0
:102E7000CDE905230AF1010A049307938DF8533035
:102E80001A935446052214F8011B5848FDF7A0F97F
:102E9000049AD8B9D10644BF20238DF853301307C4
:102EA00044BF2B238DF853309AF800302A2B15D0CD
:102EB000079A544600204FF00A0C214611F8013BB6
:102EC000303B092B4ED9B0B1079214E0A0EB0803B8
:102ED00009FA03F313430493A246D2E7039B191D97
:102EE0001B680391002BBBBF5B4242F002020793B9
:102EF0000793B8BF049223782E2B0CD163782A2B2A
:102F000035D1039B1A1D1B680392002BB8BF4FF0ED
:102F1000FF3302340593DFF8E4A021780322504602
:102F2000FDF756F940B14023A0EB0A0003FA00F088
:102F3000049B03430134049314F8011B2C488DF8BF
:102F400028100622FDF744F900283FD0294B1BBB6F
:102F5000039B073323F0070308330393099B3B4488
:102F6000099367E70CFB02320C460120A5E700231A
:102F70000134059319464FF00A0C204610F8012B36
:102F8000303A092A03D9002BC5D00591C3E70CFBC1
:102F9000012104460123F0E703AB00932A46164BB8
:102FA00004A93046AFF300800746781CD6D16B6E7B
:102FB000D90705D4AB899A0502D4A86DFFF76BFE3B
:102FC000AB895B063FF512AF099811E703AB00939D
:102FD0002A46094B04A9304600F080F8E4E700BF18
:102FE000A8390008C839000888390008E8390008FD
:102FF000F2390008000000007B2D0008EE390008BF
:103000002DE9F047164699468A680B69DDF820805D
:103010009342B8BF1346336091F8432007460C46ED
:103020000AB1013333602368990642BF3368023323
:103030003360256815F0060506D104F1190AE36826
:1030400032689B1AAB4226DC94F84320131E226898
:1030500018BF012392062BD404F143024946384697
:10306000C04701301ED02368E568326803F00603CC
:10307000042B08BFAD1AA36822690CBF25EAE575C9
:1030800000259342C4BF9B1AED1800261A34B5429E
:103090001AD1002008E00123524649463846C0476D
:1030A000013003D14FF0FF30BDE8F0870135C6E7AE
:1030B000E1185A1C302081F84300224494F845104E
:1030C00082F843100233C7E70123224649463846B7
:1030D000C0470130E6D00136D9E700002DE9FF47AF
:1030E0000C469146277E0C99782F80469A4604F12B
:1030F000430207D8622F0AD8002F00F0D880582F3B
:1031000000F0A38004F1420684F842703AE0A7F18F
:103110006303152BF6D801A050F823F07531000891
:103120008931000805310008053100080531000823
:103130000531000889310008053100080531000813
:10314000053100080531000895320008B931000842
:10315000773200080531000805310008B732000851
:1031600005310008B93100080531000805310008B3
:103170007F3200080B681A1D1B680A6004F14206C2
:1031800084F842300123A3E0256808682E0600F188
:1031900004030AD505680B60002D03DA2D236D4268
:1031A00084F843305E480A2319E015F0400F0568A3
:1031B0000B6018BF2DB2EFE70B682568181D08607B
:1031C000280601D51D6802E06906FBD51D88544814
:1031D0006F2F0CBF08230A23002184F84310666870
:1031E000A660002EA2BF216821F0040121600DB964
:1031F000002E4DD01646B5FBF3F103FB1157C75D0A
:1032000006F8017D2F46BB420D46F4D9082B0BD1A1
:103210002368DF0708D5236961689942DEBF302340
:1032200006F8013C06F1FF36921B2261CDF800A0A2
:103230004B4603AA21464046FFF7E2FE01304CD13F
:103240004FF0FF3004B0BDE8F087354884F8457092
:1032500023680E681F0656F8045B0E6014D5D90764
:1032600044BF43F0200323601DB9236823F02003EB
:1032700023601023B0E7236843F020032360782302
:10328000284884F84530E3E75E0648BFADB2E6E77C
:103290001646BBE70B68266860691D1D0D60350684
:1032A0001B6801D5186002E07106FBD51880002369
:1032B00023611646BAE70B681A1D0A601E68626829
:1032C00000213046FCF784FF08B1801B6060636812
:1032D0002361002384F84330A8E723693246494636
:1032E0004046D0470130ABD023689B0713D4E06839
:1032F000039B9842B8BF1846A4E7012332464946CB
:103300004046D04701309BD00135E36803995B1AF2
:10331000AB42F2DCEBE7002504F11906F5E700BF4C
:10332000F93900080A3A000838B5064D002304466A
:1033300008462B60FFF7EAFA431C02D12B6803B161
:10334000236038BD9801002010B50C46B1F90E106D
:1033500000F0B4FA0028ABBF636DA3891B1823F4F7
:103360008053ACBF6365A38110BD2DE9F0411F46BA
:103370008B89DB0505460C46164605D5B1F90E10BE
:103380000223002200F0C8F9A389B4F90E1023F437
:103390008053A38132463B462846BDE8F04100F009
:1033A00069B810B50C46B1F90E1000F0B5F9431C20
:1033B000A38915BF606523F4805343F48053A38130
:1033C00018BFA38110BDB1F90E1000F0D3B80000F2
:1033D000F8B50E461446054618B183690BB9FFF7D8
:1033E000BBFB214B9C422BD16C68A369A360A389D2
:1033F0001A072FD523696BB323692068C01A636944
:10340000F6B28342374604DC2146284600F048F9EC
:1034100030BBA368013BA36023685A1C22601E7066
:1034200063690130834204D0A389DB0706D50A2EE5
:1034300004D12146284600F033F988B93846F8BD52
:103440000A4B9C4201D1AC68CFE7094B9C4208BFB4
:10345000EC68CAE72146284600F01EF80028CBD0C9
:103460004FF0FF37EAE700BFA8390008C839000865
:103470008839000838B5074D044608461146002231
:103480002A601A46FFF733FA431C02D12B6803B1B6
:10349000236038BD98010020324B70B51D68064688
:1034A0000C4625B1AB6913B92846FFF755FB2E4BE7
:1034B0009C420FD16C68A389B4F90C2019072CD455
:1034C000DD0611D40923336042F04003A3814FF09D
:1034D000FF303EE0254B9C4201D1AC68EBE7244B2A
:1034E0009C4208BFEC68E6E7580712D5616B41B112
:1034F00004F14403994202D0304600F08FF90023D2
:103500006363A38923F02403A381002363602369F9
:103510002360A38943F00803A38123694BB9A389DE
:1035200003F42073B3F5007F03D02146304600F04A
:1035300029F9A089B4F90C2010F001030AD0002366
:10354000A36063695B42A361236943B910F0800003
:10355000BAD170BD810758BF6369A360F4E700204A
:10356000F7E700BF0C000020A8390008C8390008A0
:103570008839000838B5064D0023044608462B60FC
:10358000FFF7E2F9431C02D12B6803B1236038BD79
:10359000980100208A892DE9F041054610070C4664
:1035A00058D44B68002B05DC0B6C002B02DC002090
:1035B000BDE8F081E66A002EF9D0002312F48052B3
:1035C0002F682B6032D0606DA3895A0705D56368D8
:1035D000C01A636B0BB1236CC01A00230246E66A63
:1035E000216A2846B047431CA38906D129681D29B2
:1035F0002CD82A4ACA40D60728D500226260D904AE
:103600002269226004D5421C01D12B6803B9606590
:10361000616B2F600029CAD004F14403994202D0A3
:10362000284600F0FBF800206063C1E7216A01230F
:103630002846B047411CC7D12B68002BC4D01D2B96
:1036400001D0162B01D12F60B1E7A38943F04003CD
:10365000A381ADE70F69002FA9D093070E6808BFBB
:103660004B690F6018BF0023A6EB07088B60B8F109
:10367000000F9CDD216AA66A43463A462846B047B9
:10368000002806DCA38943F04003A3814FF0FF30FC
:103690008EE70744A8EB0008E9E700BF01004020DF
:1036A00038B50B6905460C4613B90025284638BDC8
:1036B00018B183690BB9FFF74FFA144B9C421BD129
:1036C0006C68B4F90C30002BEFD0626ED00704D4D4
:1036D000990502D4A06DFFF7DDFA28462146FFF7D1
:1036E00059FF636EDA070546E0D4A3899B05DDD454
:1036F000A06DFFF7D0FAD9E7054B9C4201D1AC6829
:10370000DFE7044B9C4208BFEC68DAE7A839000801
:10371000C83900088839000838B5074D04460846FE
:10372000114600222A601A46FFF718F9431C02D1FD
:103730002B6803B1236038BD9801002070B50E4698
:10374000B1F90E10002996B014461D4607DA002381
:103750002B60B3891A0610D44FF480630EE06A46DA
:1037600000F0BEF80028F2DB019A02F47042A2F5E4
:1037700000535A425A412A60EEE74023002023605A
:1037800016B070BD8B8973B59D0706460C4607D5EC
:1037900004F14703236023610123636102B070BD1C
:1037A00001AB6A46FFF7CAFF009905463046FFF7AE
:1037B00073FA48B9B4F90C309A05EFD423F0030337
:1037C00043F00203A381E3E70D4BB362A3892060BA
:1037D00043F08003A381009B6361019B20615BB187
:1037E000B4F90E10304600F08DF828B1A38923F00B
:1037F000030343F00103A381A0890543A581CDE71D
:10380000F12A00080148FFF745BA00BF90010020E7
:103810000148FFF740BA00BF9001002037B50029EA
:1038200048D051F8043C0190002BA1F10404B8BF2A
:10383000E418FFF7E7FF204A01981368154633B9EB
:103840006360146003B0BDE83040FFF7E1BFA342FE
:103850000BD921686218934204BF1A685B686360E1
:1038600004BF521822602C60ECE71A465B680BB16B
:10387000A342FAD911685518A5420BD124682144F6
:103880005418A3421160DDD11C685B685360214469
:103890001160D7E702D90C230360D3E725686119CB
:1038A0008B4204BF19685B68636004BF49192160DB
:1038B0005460C7E703B030BD9400002038B5074D11
:1038C00004460846114600222A601A46FEF7FFFF0A
:1038D000431C02D12B6803B1236038BD980100203E
:1038E00038B5074D00230446084611462B60FFF704
:1038F0002EF8431C02D12B6803B1236038BD00BFF2
:103900009801002038B5064D0023044608462B6078
:10391000FFF722F8431C02D12B6803B1236038BDA6
:1039200098010020F8B500BFF8BC08BC9E4670475F
:0C393000F8B500BFF8BC08BC9E4670470C
:10393C000000000000000000010203040607080953
:10394C000000000001020304436F6E74726F6C2060
:10395C0076616C75652072656164203D2025640A72
:10396C000000000056616C75652072656164203D35
:10397C002025640A00000000100000200000000058
:10398C00000000000000000000000000000000002B
:10399C00000000000000000000000000000000001B
:1039AC00000000000000000000000000000000000B
:1039BC0000000000000000000000000000000000FB
:1039CC0000000000000000000000000000000000EB
:1039DC00000000000000000000000000232D302B30
:1039EC002000686C4C0065666745464700303132F4
:1039FC00333435363738394142434445460030314B
:103A0C0032333435363738396162636465660000A9
:083A1C0084C8FF7F01000000D7
:043A2400B5010008E0
:043A28009101000800
:103A2C0001000000100000000024F4001000002031
:103A3C0000000000A8390008C839000888390008BF
:103A4C00000000000000000000000000000000006A
:103A5C00000000000000000000000000000000005A
:103A6C00000000000000000000000000000000004A
:103A7C00000000000000000000000000000000003A
:103A8C00000000000000000000000000000000002A
:04000005080029C105
:00000001FF
