:020000040800F2
:1000000000000220C1290008AD280008AF28000820
:10001000B1280008B3280008B52800080000000037
:10002000000000000000000000000000B7280008E9
:10003000B928000800000000BB280008BD280008FF
:10004000112A0008112A0008112A0008112A0008A4
:10005000112A0008112A0008C5280008112A0008E2
:10006000112A0008112A0008112A0008112A000884
:10007000112A0008112A0008112A0008112A000874
:10008000112A0008112A0008112A0008112A000864
:10009000112A0008112A0008112A0008112A000854
:1000A000112A0008112A0008112A0008112A000844
:1000B000112A0008112A0008112A0008112A000834
:1000C000112A0008112A0008112A0008112A000824
:1000D000112A0008112A0008112A0008112A000814
:1000E000112A0008112A0008112A0008112A000804
:1000F000112A0008112A0008112A0008112A0008F4
:10010000112A0008112A0008112A0008112A0008E3
:10011000112A0008112A0008112A0008112A0008D3
:10012000112A0008112A0008112A0008112A0008C3
:10013000112A0008112A0008112A0008112A0008B3
:10014000112A0008112A0008112A0008112A0008A3
:10015000112A0008112A0008112A0008112A000893
:10016000112A0008112A0008112A0008112A000883
:10017000112A0008112A0008112A000800000000B6
:08018000112A0008112A0008F1
:1001900010B5054C237833B9044B13B10448AFF3C1
:1001A00000800123237010BD7000002000000000BB
:1001B0004038000808B5034B1BB103490348AFF3AF
:1001C000008008BD000000007400002040380008D6
:1001D00001F0FF01102A2BDB10F0070F08D010F8F8
:1001E000013B013A8B422DD010F0070F42B3F6D1FC
:1001F000F0B441EA012141EA014122F007047FF015
:1002000000070023F0E80256083C85EA010586EA6B
:10021000010685FA47F5A3FA87F586FA47F6A5FAA7
:1002200087F68EB9EED1F0BC01F0FF0102F00702B3
:1002300032B110F8013B013A83EA010313B1F8D15E
:100240000020704701387047002D06BF354603383F
:10025000073815F0010F07D1013015F4807F02BF78
:10026000013015F4C03F0130F0BC0138704700BFC9
:1002700053B94AB9002908BF00281CBF4FF0FF310D
:100280004FF0FF3000F072B9ADF1080C6DE904CE0B
:1002900000F006F8DDF804E0DDE9022304B0704761
:1002A0002DE9F047089E04468846002B4BD18A4230
:1002B000154667D9B2FA82F24AB1C2F1200701FAB3
:1002C00002F320FA07F7954047EA030894404FEA03
:1002D000154E230CB8FBFEF71FFA85FC0EFB1788A2
:1002E00043EA084307FB0CF1994209D9EB1807F1DF
:1002F000FF3080F01B81994240F21881023F2B446D
:100300005B1AA4B2B3FBFEF00EFB103344EA0344C5
:1003100000FB0CFCA44509D92C1900F1FF3380F037
:100320000781A44540F2048102382C4440EA07408A
:10033000A4EB0C0400271EB1D4400023C6E90043FF
:100340003946BDE8F0878B4209D9002E00F0EB80DA
:100350000027C6E9000138463946BDE8F087B3FA00
:1003600083F7002F47D18B4202D3824200F2FA80FA
:10037000841A61EB030301209846002EE0D0C6E901
:100380000048DDE702B9FFDEB2FA82F2002A40F04F
:100390008F80491B4FEA154E1FFA85F80127B1FBE4
:1003A000FEFC230C0EFB1C1143EA014308FB0CF17D
:1003B000994207D9EB180CF1FF3002D2994200F2B2
:1003C000CD808446591AA3B2B1FBFEF00EFB101487
:1003D00043EA044408FB00F8A04507D92C1900F1B2
:1003E000FF3302D2A04500F2B6801846A4EB080401
:1003F00040EA0C409FE7C7F1200CBB4022FA0CFEFC
:100400004EEA030E01FA07F420FA0CF521FA0CF378
:100410004FEA1E482543B3FBF8F92C0C08FB1933AF
:100420001FFA8EFA44EA034309FB0AF49C4202FADB
:1004300007F200FA07F10BD91EEB030309F1FF30B5
:1004400080F087809C4240F28480A9F102097344C5
:100450001B1BADB2B3FBF8F008FB103345EA0344B5
:1004600000FB0AFAA24508D91EEB040400F1FF3391
:100470006BD2A24569D90238744440EA0940A0FB16
:100480000289A4EB0A044C45C2464B4654D351D0D2
:10049000002E69D0B1EB0A0564EB030404FA0CFCEE
:1004A000FD40FC404CEA0505C6E90054002747E73B
:1004B000C2F1200320FA03F7954001FA02F021FA75
:1004C00003F34FEA154E3843010CB3FBFEF71FFA56
:1004D00085F80EFB173341EA034107FB08F38B4213
:1004E00004FA02F407D9691807F1FF3C2FD28B42B6
:1004F0002DD9023F2944CB1A81B2B3FBFEF00EFB8B
:10050000103341EA034100FB08F38B4207D9691815
:1005100000F1FF3C17D28B4215D902382944C91A81
:1005200040EA07473BE73746304609E70746E7E634
:100530001846FBE64145ABD2B8EB020A69EB0E0266
:1005400001381346A4E76046E9E7184695E7674691
:10055000D1E781467CE702382C4447E7ACF1020C36
:100560002B442FE7384608E73746E9E6704700BFD7
:1005700010B504460E4B18784FF47A73B3FBF0F3C2
:100580000C4A1068B0FBF3F000F0AAF868B90F2C21
:1005900001D901200AE0002221464FF0FF3000F08F
:1005A0005DF8034B5C60002000E0012010BD00BF3F
:1005B000000000200800002008B50B4B1A6842F428
:1005C00000721A601A6842F480621A601A6842F473
:1005D00080721A60032000F02FF80020FFF7C8FF98
:1005E00002F08AF8002008BD003C0240034A11686E
:1005F000034B1B780B441360704700BF9C00002026
:1006000000000020014B1868704700BF9C000020CC
:1006100038B50446FFF7F6FF0546B4F1FF3F02D0B8
:10062000044B1B781C44FFF7EDFF401BA042FAD39C
:1006300038BD00BF00000020074AD36823F4E06300
:100640001B041B0C000200F4E060184340F0BF6084
:1006500040F40030D060704700ED00E030B4174B3C
:10066000DB68C3F30223C3F10704042C28BF04246E
:100670001D1D062D18D9033B4FF0FF3505FA04F474
:1006800021EA0401994005FA03F322EA030319431E
:1006900000280BDB0901C9B200F1604000F56140A0
:1006A00080F8001330BC70470023E5E700F00F002E
:1006B0000901C9B2024B1954F4E700BF00ED00E094
:1006C00014ED00E0002807DB00F01F0240090123C1
:1006D0009340024A42F82030704700BF00E100E03A
:1006E0000138B0F1807F0AD2064B5860064AF021EB
:1006F00082F823100020986007221A6070470120BA
:10070000704700BF10E000E000ED00E000230F2B79
:1007100000F2DC80F0B482B05DE086685F00032404
:10072000BC4026EA0406CC68BC403443846046687A
:1007300026EA02064C68C4F300129A403243426033
:1007400056E0DC08083450F8247003F007029600E5
:100750000F22B24027EA02070A69B2403A4340F842
:10076000242059E0072200E00022B2403A4302343C
:10077000574E46F82420574A1468EA4302EA040612
:100780004F6817F4803F01D045EA0406514C2660BB
:10079000646802EA04064F6817F4003F01D045EA96
:1007A00004064C4C6660A46802EA04064F6817F41D
:1007B000801F01D045EA0406464CA660E46822404A
:1007C0004E6816F4001F01D045EA0402414CE26075
:1007D00001330F2B77D801229A400C6804EA0205F6
:1007E000AA42F5D14C6804F00304013C012C94D9D1
:1007F0004A6802F00302032A09D0C4685E0003229B
:10080000B24024EA02048A68B2402243C2604A68C5
:1008100002F00302022A94D004685E000322B24070
:1008200024EA02044A6802F00302B2402243026052
:100830004A6812F0805FCBD000220192264A546CA5
:1008400044F480445464526C02F480420192019A50
:100850009C08A61C1E4A52F8267003F0030296005C
:100860000F22B24027EA02071C4A90423FF47CAFB5
:1008700002F5806290421AD002F58062904218D050
:1008800002F58062904216D002F58062904214D048
:1008900002F58062904212D002F58062904210D040
:1008A00002F5806290423FF45DAF08225DE70122CD
:1008B0005BE7022259E7032257E7042255E70522A6
:1008C00053E7062251E702B0F0BC7047704700BF03
:1008D00000380140003C0140003802400000024066
:1008E00012B909048161704781617047436901EA67
:1008F000030221EA030141EA024181617047704726
:1009000008B5054B5B69034200D108BD024B586135
:10091000FFF7F5FFF9E700BF003C0140002800F0B9
:10092000BD8070B5044690F84130002B51D00222B2
:1009300084F841202168CB6923F47B6323F00F0303
:10094000CB6123681A626369934263D0E368002B2A
:1009500046D11025A368202B00D86D00012000F09F
:10096000BBFE2369B3F5007F3CD0B0FBF5F000EB94
:10097000800043006269B3FBF2F30533484AA2FBEF
:100980000323DB0803F001029B1A5B081202991E85
:10099000FD2941D821690A43216813430B6221686C
:1009A000CB6923F47B6323F00F036268A0680243E2
:1009B000E0680243A0690243134343F40063CB6140
:1009C000236A012B2ED000206064012384F841307B
:1009D00070BD80F84030334B436301F0ADFEA6E7B5
:1009E0002025B7E7E36853B1AD00B0FBF5F000EBAD
:1009F000800043006269B3FBF2F30533BEE7ED000C
:100A0000B0FBF5F000EB800043006269B3FBF2F34A
:100A10000533B3E70022BAE7636C43F01003636465
:100A20000120D5E7204B63632268204B9A421FD0F8
:100A30004FF04022D36923F47B6323F00F03D3618B
:100A400022681A4B9A4215D04FF0402302221A62B4
:100A50002268164B9A4210D04FF04025EB699BB2AA
:100A60006268B2F5007F0AD0B2B94FF4807008E036
:100A70000F4ADFE7A3F58063E8E70D4DEEE74FF49B
:100A800080702689A189228B304301430A43134396
:100A900043F40063EB6196E70020F2E70120704722
:100AA000CDCCCCCC270B0008310D0008003800401D
:100AB00000340040704708B5426A03681288DA6063
:100AC000436A02334362438D013B9BB24385438DAE
:100AD0009BB203B108BD0268536823F0A0035360C2
:100AE000012380F84130FFF7E5FFF3E7704708B5D1
:100AF0000368DA68C36A1A80C36A0233C362438E2A
:100B0000013B9BB24386438E9BB203B108BD026892
:100B1000536823F060035360012380F84130FFF7EE
:100B2000E5FFF3E7704710B584B0044602689368A8
:100B3000039390F84130DBB2042B06D094F8413097
:100B4000DBB2032B2CD004B010BD039B13F0010FBC
:100B500003D0536813F0400F1FD1039B13F0400FD5
:100B6000ECD023685A6812F0200FE7D05A6822F0C0
:100B700060025A60002301932368DA6801929B683F
:100B80000193019B012384F84130636C43F002031D
:100B900063642046FFF7C6FFD0E7FFF7A8FFDCE756
:100BA000039B13F0020F04D023685B6813F0800FDF
:100BB0001DD1039B13F0080FC5D023685A6812F0AB
:100BC000200FC0D05A6822F0A0025A60002302937E
:100BD00023689B680293029B012384F84130636C75
:100BE00043F0040363642046FFF79CFFABE7204615
:100BF000FFF761FFDDE7704708B5436A9A1C426260
:100C000002681B88D360438D013B9BB24385438DB3
:100C10009BB23BB90268536823F0A0035360438E34
:100C20009BB203B108BD012380F84130FFF7E3FF19
:100C3000F8E7000008B50268144B9A421BD04FF049
:100C40004023DA68C36A991CC1621A80438E013B53
:100C50009BB24386438E9BB263B902680B4B9A42A8
:100C60000CD04FF04022536823F060035360438D53
:100C70009BB22BB108BDA3F58063E2E7044AF2E71B
:100C8000012380F84130FFF7B6FFF3E7003800405A
:100C90000034004008B5436A9A1C42621A88016811
:100CA000124B994217D04FF04023DA60438D013B3D
:100CB0009BB24385438D9BB263B902680B4B9A424A
:100CC0000CD04FF04022536823F0A0035360438EB2
:100CD0009BB22BB108BDA3F58063E6E7044AF2E7B7
:100CE000012380F84130FFF786FFF3E7003800402A
:100CF0000034004008B50368DA68C36A991CC16211
:100D00001A80438E013B9BB24386438E9BB23BB914
:100D10000268536823F060035360438D9BB203B1B4
:100D200008BD012380F84130FFF765FFF8E70000B8
:100D300010B586B0044603689A680592704A9342DB
:100D40006FD04FF04022916804915B680393536821
:100D500002936368B3F5007F01D0002B70D1059B2F
:100D600013F0020F03D0039B13F0800F5CD1049BA0
:100D700013F0010F03D0029B13F0400F58D1049BD6
:100D800013F0400F24D0029B13F0200F20D02268D4
:100D90005B4B9A4250D04FF04022536823F06003DF
:100DA00053602268536823F0A0035360002300932C
:100DB0002368DA6800929B680093009B012384F803
:100DC0004130636C43F0020363642046FFF7AAFEE0
:100DD000059B13F0080F22D0039B13F0200F1ED0A9
:100DE0002268536823F0A00353602268444B9A4260
:100DF00024D04FF04022536823F060035360002357
:100E0000019323689B680193019B012384F841307F
:100E1000636C43F0040363642046FFF783FE06B06F
:100E200010BDA2F580628EE72046FFF7E5FE9EE743
:100E30002046FFF7FFFEA2E7324AAEE7314ADAE783
:100E4000049B13F0020F03D0029B13F0800F4AD1D2
:100E5000059B13F0010F03D0039B13F0400F46D105
:100E6000059B13F0400F1CD0039B13F0200F18D0EC
:100E70002268536823F0600353602268204B9A4233
:100E800039D04FF04022536823F0A0035360012370
:100E900084F84130636C43F0020363642046FFF73B
:100EA00041FE049B13F0080FB9D0029B13F0200FF2
:100EB000B5D02268124B9A421FD04FF0402253689F
:100EC00023F0A00353602268536823F0600353604B
:100ED000012384F84130636C43F0040363642046CB
:100EE000FFF720FE9BE72046FFF7D4FEB0E7204641
:100EF000FFF700FFB4E7034AC5E7024ADFE700BF98
:100F00000038004000340040002800F0E98170B54E
:100F100082B00446036813F0010F3BD0A74B9B68D7
:100F200003F00C03042B2CD0A44B9B6803F00C03A0
:100F3000082B21D06368B3F5803F4FD0B3F5A02FC5
:100F400052D09E4B1A6822F480321A601A6822F43A
:100F500080221A606368002B50D0FFF753FB0546D0
:100F6000964B1B6813F4003F14D1FFF74BFB401B5B
:100F70006428F5D90320B8E1904B5B6813F4800F27
:100F8000D8D08E4B1B6813F4003F03D06368002B4E
:100F900000F0A881236813F0020F55D0874B9B689F
:100FA00013F00C0F3ED0854B9B6803F00C03082B0D
:100FB00033D0E368002B68D0814B01221A60FFF721
:100FC00021FB05467D4B1B6813F0020F54D1FFF740
:100FD00019FB401B0228F5D9032086E1774A1368E4
:100FE00043F480331360B5E7744B1A6842F48022EF
:100FF0001A601A6842F480321A60ABE7FFF702FB0E
:1010000005466E4B1B6813F4003FC3D0FFF7FAFA96
:10101000401B6428F5D9032067E1684B5B6813F433
:10102000800FC6D1654B1B6813F0020F04D0E36834
:10103000012B01D0012058E1604A136823F0F80326
:10104000216943EAC1031360236813F0080F40D0FD
:10105000636963B35B4B01221A60FFF7D3FA05465D
:10106000564B5B6F13F0020F33D1FFF7CBFA401BE7
:101070000228F5D9032038E1504A136823F0F80319
:10108000216943EAC1031360DEE74D4B00221A6079
:10109000FFF7B8FA0546494B1B6813F0020FD3D08F
:1010A000FFF7B0FA401B0228F5D903201DE1454B9C
:1010B00000221A60FFF7A6FA0546404B5B6F13F05B
:1010C000020F06D0FFF79EFA401B0228F5D9032035
:1010D0000BE1236813F0040F79D0384B1B6C13F02D
:1010E000805F33D100230193344B1A6C42F080525D
:1010F0001A641B6C03F080530193019B0125324B52
:101100001B6813F4807F23D0A368012B34D0052BF8
:1011100038D02A4B1A6F22F001021A671A6F22F098
:1011200004021A67A368002B36D0FFF76BFA064655
:10113000224B1B6F13F0020F48D1FFF763FA801B9D
:1011400041F288339842F3D90320CEE00025D6E758
:101150001D4A136843F480731360FFF753FA064681
:10116000194B1B6813F4807FCED1FFF74BFA801B1D
:101170000228F5D90320B8E0104A136F43F00103A9
:101180001367CFE70D4B1A6F42F004021A671A6F0C
:1011900042F001021A67C5E7FFF734FA0646074B2B
:1011A0001B6F13F0020F11D0FFF72CFA801B41F2D6
:1011B00088339842F3D9032097E000BF00380240FB
:1011C00000004742800E474200700040EDB9A3691D
:1011D000002B00F08980484A926802F00C02082A2D
:1011E00051D0022B17D0454B00221A60FFF70AFAA4
:1011F0000446414B1B6813F0007F42D0FFF702FA10
:10120000001B0228F5D903206FE03B4A136C23F042
:1012100080531364DBE7394B00221A60FFF7F2F9C1
:101220000546354B1B6813F0007F06D0FFF7EAF93F
:10123000401B0228F5D9032057E0E369226A1343D3
:10124000626A43EA8213A26A5208013A43EA0243FD
:10125000E26A43EA0263284A5360284B01221A607B
:10126000FFF7D0F90446244B1B6813F0007F06D12A
:10127000FFF7C8F9001B0228F5D9032035E000204C
:1012800033E0002031E0012B31D01B4B5B6803F4CD
:101290008001E269914201D0012026E003F03F0283
:1012A000216A8A4201D001201FE0616A47F6C072BC
:1012B0001A40B2EB811F01D0012016E003F4403147
:1012C000A26A5208013AB1EB024F01D001200CE0B2
:1012D00003F07063E26AB3EB026F0AD0012004E00E
:1012E00001207047012000E0002002B070BD012005
:1012F000FBE70020F9E700BF0038024060004742EA
:10130000324B9B6803F00C03042B5CD0082B01D0FC
:101310002F4870472DE9F04B2C4B5A6802F03F02E2
:101320005B6813F4800F2BD0284B5B68C3F38813E2
:101330001E4600275C010025E41A65EB0705A9019C
:1013400041EA9461A001001B61EB0501CB0043EA77
:101350005073C400A01943EB07014B0243EAD0537A
:101360004402204619460023FEF782FF174B5B68B4
:10137000C3F3014301335B00B0FBF3F0BDE8F08B36
:10138000124B5B68C3F388131E4600275C010025DF
:10139000E41A65EB0705A90141EA9461A001001B6D
:1013A00061EB0501CB0043EA5073C400A01943EB85
:1013B00007018B0243EA905384022046194600231A
:1013C000FEF756FFD2E70348704700BF00380240DF
:1013D0000024F40000127A00002800F09E8070B50E
:1013E0000446504B1B6803F007038B4209D2CBB273
:1013F0004C4A1370136803F007038B4201D001209D
:1014000070BD236813F0020F17D013F0040F04D03F
:10141000454A936843F4E0539360236813F0080F40
:1014200004D0414A936843F4604393603E4A936812
:1014300023F0F003A068034393600D46236813F084
:10144000010F32D06368012B21D09A1E012A25D9C1
:10145000354A126812F0020F61D033498A6822F0CF
:10146000030213438B60FFF7CDF806462E4B9B68B3
:1014700003F00C036268B3EB820F16D0FFF7C2F8DB
:10148000801B41F288339842F0D90320B8E7264AFE
:10149000126812F4003FE0D10120B1E7224A12683D
:1014A00012F0007FD9D10120AAE71E4B1B6803F080
:1014B0000703AB4209D9EAB21A4B1A701B6803F052
:1014C0000703AB4201D001209AE7236813F0040F11
:1014D00006D0154A936823F4E053E1680B43936008
:1014E000236813F0080F07D00F4A936823F4604372
:1014F000216943EAC1039360FFF702FF0A4B9B682F
:10150000C3F30313094AD35CD840094B1860094B55
:101510001868FFF72DF8002072E7012070470120BE
:101520006EE700BF003C0240003802405838000817
:101530000800002004000020014B1868704700BF1D
:101540000800002008B5FFF7F7FF044B9B68C3F3C2
:101550008223034AD35CD84008BD00BF0038024054
:101560006838000808B5FFF7E7FF044B9B68C3F332
:101570004233034AD35CD84008BD00BF0038024064
:101580006838000830B583B00446036813F0050FCF
:1015900006D1236813F0020F2ED1002003B030BD16
:1015A000494B00221A60FFF72DF80546474B1B6890
:1015B00013F0006F06D0FFF725F8401B0228F5D97D
:1015C0000320EBE76268A3681B0743EA82133F4AE4
:1015D000C2F884303C4B01221A60FFF713F805462D
:1015E0003A4B1B6813F0006FD3D1FFF70BF8401B89
:1015F0000228F5D90320D1E700230193334B1A6C5D
:1016000042F080521A641B6C03F080530193019BDB
:101610002F4A136843F480731360FEF7F3FF054607
:101620002B4B1B6813F4807F06D1FEF7EBFF401BAA
:101630000228F5D90320B1E7244B1B6F13F4407344
:1016400012D0E26802F440729A420DD01F4B1A6F1A
:1016500022F440721F4901200860002008601A67C8
:101660001B6F13F0010F13D1E36803F44072B2F55E
:10167000407F1ED0154A936823F4F81393601349F2
:101680000B6FE268C2F30B0213430B67002085E780
:10169000FEF7B8FF05460D4B1B6F13F0020FE3D1A9
:1016A000FEF7B0FF401B41F288339842F3D9032084
:1016B00074E706498A6822F4F81223F0704323F491
:1016C000407313438B60DAE76800474200380240FA
:1016D00000700040400E474201282AD1174B9B68FA
:1016E00013F4000303D0012B25D115487047134B89
:1016F0005B6813F4800F14D0104B5B6803F03F035A
:101700001048B0FBF3F00D4AD2F88430C3F38813CD
:1017100000FB03F0D2F88430C3F30273B0FBF3F0A4
:101720007047064B5B6803F03F030748B0FBF3F0DC
:10173000E9E7002070470020704700BF00380240F2
:101740000080BB0000127A000024F4002DE9F04371
:1017500083B004460F4616461D46FEF753FF0A9B0C
:10176000181A00EB0508FEF74DFF81462A4B1B684F
:10177000C3F3CB3308FB03F3019323689B6837EA79
:1017800003030CBF01230023B34240D0B5F1FF3F58
:10179000F3D0FEF737FFA0EB090040450AD2B8F1BD
:1017A000000F07D0019B0BB94FF00008019B013BD4
:1017B0000193E2E72268536823F0E0035360636813
:1017C000B3F5827F0BD0A36AB3F5005F14D0012379
:1017D00084F85130002384F85030032018E0A368C7
:1017E000B3F5004F02D0B3F5806FECD122681368D7
:1017F00023F040031360E6E72268136823F40053E4
:1018000013602268136843F400531360DFE700207D
:1018100003B0BDE8F08300BF0800002030B585B0FC
:10182000164C2468164DA5FB0434640D4FF47A75EC
:1018300005FB04F403944468B4F5827F0BD0039B4A
:10184000C3B1039B013B039303689B6813F0800FB4
:10185000F5D100230FE00B460446009200228021C0
:10186000FFF774FF034630B1636D43F020036365F7
:10187000032300E00023184605B030BD0800002017
:10188000819F5E1610B582B004464068B0F5827F35
:1018900016D06068B0F5827F2ED1A368B3F5806F53
:1018A0001BD000920B46002280212046FFF74EFFFE
:1018B000034650B3636D43F020036365032324E0C4
:1018C000A368B3F5004F02D0B3F5806FE1D1206873
:1018D000036823F040030360DBE700920B4600221D
:1018E00001212046FFF732FF034670B1636D43F0DC
:1018F00020036365032308E000920B4600220121C8
:101900002046FFF723FF034610B9184602B010BD6A
:10191000636D43F0200363650323F6E700285AD084
:1019200010B50446436A33B94368B3F5827F05D0E6
:101930000023C36102E00023036143610023A3622B
:1019400094F85130002B40D0022384F851302268A3
:10195000136823F040031360636803F48273A26882
:1019600002F404421343E26802F400621343226962
:1019700002F002021343626902F001021343A269FA
:1019800002F400721343E26902F038021343226A40
:1019900002F080021343A26A02F40052216813434A
:1019A0000B60638B03F00403626A02F0100221688B
:1019B00013434B602268D36923F40063D361002092
:1019C0006065012384F8513010BD84F85030204602
:1019D00000F0FEFEB8E7012070472DE9F04182B02B
:1019E00090F85040012C00F0C8801D4617468846EC
:1019F0000446012380F85030FEF704FE064694F8B2
:101A00005130DBB2012B09D00220012384F8513080
:101A1000002384F8503002B0BDE8F081B8F1000F27
:101A200000F09D80002F00F09C80032384F851304B
:101A300000236365C4F83080A786E786A363A38785
:101A4000E38763642364A368B3F5004F1CD0236865
:101A50001A6812F0400F03D11A6842F040021A606F
:101A6000E368B3F5006F1AD063680BB1012F4ED154
:101A7000226B236812781A73236B01332363E38E7E
:101A8000013B9BB2E38642E02268136823F04003E7
:101A900013602268136843F480431360D7E76368D8
:101AA0000BB1012F15D1226B23681288DA60236BEA
:101AB00002332363E38E013B9BB2E38609E0FEF72A
:101AC000A1FD801BA84202D3B5F1FF3F4BD1002DF1
:101AD0004BD0E38E9BB2002B2CD023689A6812F077
:101AE000020FECD0226B1288DA60236B023323637F
:101AF000E38E013B9BB2E386EBE7FEF783FD801BA1
:101B0000A84202D3B5F1FF3F31D1002D31D0E38E91
:101B10009BB27BB123689A6812F0020FEDD0226B62
:101B200012781A73236B01332363E38E013B9BB25C
:101B3000E386ECE7324629462046FFF76FFE08B100
:101B400020236365A36833B901932368DA6801929F
:101B50009B680193019B636D6BB9002055E70120E1
:101B600053E7012051E703204FE703204DE703200F
:101B70004BE7032049E7012047E702204BE72DE927
:101B8000F04383B0DDF8288090F85040012C00F03D
:101B90000B811D4617460E460446012380F850303F
:101BA000FEF730FD814694F85100C0B26368012809
:101BB00015D0B3F5827F0AD00223012284F8512088
:101BC000002284F85020184603B0BDE8F083A368D3
:101BD000002B40F0DB80042801D00223EDE7002E2B
:101BE00000F0D680002F00F0D580002D00F0D480CA
:101BF00094F85130DBB2042B02D0052384F8513025
:101C000000236365A763E587A5872663E586A58628
:101C10002364636423681A6812F0400F03D11A68C2
:101C200042F040021A60E368B3F5006F10D06368B9
:101C30000BB1012D0AD1226B236812781A73236B22
:101C400001332363E38E013B9BB2E386012569E008
:101C500063680BB1012D0AD1226B23681288DA6008
:101C6000236B02332363E38E013B9BB2E3860125A2
:101C70001BE023689A6812F0010F0DD0E28F92B238
:101C800052B1DA68A36B1A80A36B0233A363E38FAC
:101C9000013B9BB2E3870125FEF7B4FCA0EB0900F2
:101CA000404502D3B8F1FF3F78D1E38E9BB21BB918
:101CB000E38F9BB2002B52D023689A6812F0020F78
:101CC000D7D0E28E92B2002AD3D0002DD1D0226B91
:101CD0001288DA60236B02332363E38E013B9BB2ED
:101CE000E3860025C5E723689A6812F0010F0DD03E
:101CF000E28F92B252B1DA68A36B1A70A36B013310
:101D0000A363E38F013B9BB2E3870125FEF77AFCD7
:101D1000A0EB0900404502D3B8F1FF3F40D1B8F134
:101D2000000F3FD0E38E9BB213B9E38F9BB2B3B1E8
:101D300023689A6812F0020FD5D0E28E92B2002A80
:101D4000D1D0002DCFD0226B12781A73236B0133C0
:101D50002363E38E013B9BB2E3860025C3E74A463B
:101D600041462046FFF75AFD034618B1202363651C
:101D7000012322E7A268002A7FF41FAF01922268A4
:101D8000D168019192680192019A16E7022314E743
:101D9000012312E7012310E701230EE703230CE7D9
:101DA00003230AE7032308E702230CE72DE9F041A8
:101DB00082B004460F4690461D464368B3F5827FC5
:101DC00019D094F85030012B00F0A480012384F83E
:101DD0005030FEF717FC064694F85130DBB2012B69
:101DE00015D00220012384F85130002384F85030AC
:101DF00002B0BDE8F0818368002BE2D1042380F8B3
:101E00005130009513460A46FFF7B9FEF0E7002F60
:101E100072D0B8F1000F71D0042384F85130002340
:101E20006365A763A4F83C80A4F83E802363A3867F
:101E3000E38623646364A368B3F5004F0BD0236883
:101E40001A6812F0400F03D11A6842F040021A607B
:101E5000E368ABB131E02268136823F040031360FC
:101E60002268136823F480431360E8E7FEF7CAFB97
:101E7000801BA84202D3B5F1FF3F41D1002D41D0D4
:101E8000E38F9BB2002B2BD023689A6812F0010FCE
:101E9000ECD0A26B1B7B1370A36B0133A363E38FA6
:101EA000013B9BB2E387EBE7FEF7ACFB801BA8424C
:101EB00002D3B5F1FF3F27D145B3E38F9BB27BB18E
:101EC00023689A6812F0010FEED0DA68A36B1A80CB
:101ED000A36B0233A363E38F013B9BB2E387ECE781
:101EE000324629462046FFF7CDFC08B12023636522
:101EF000636D6BB9002075E7012073E7012071E77E
:101F000003206FE703206DE703206BE7032069E7F9
:101F1000012067E702206BE72DE9F04B04460268D9
:101F2000136923F44053C1680B431361836802694A
:101F3000134342691343C2691A430168CB6823F40F
:101F4000164323F00C031343CB600268536923F458
:101F5000407381690B43536103683A4A934206D048
:101F600002F58062934202D0FFF7ECFA01E0FFF73E
:101F7000F9FAE369B3F5004F30D04FF000090618C5
:101F800049EB090716EB000B47EB090C4FEACC03B2
:101F900043EA5B734FEACB0293469C4663689A0020
:101FA0009B0F10EB0B0049EB0C01FEF761F9264D7E
:101FB000A5FB00325109642202FB110213013233E6
:101FC000A5FB03235B0903F0F00202EB011203F00F
:101FD0000F03216813448B60BDE8F08B83464FF0FC
:101FE000000C06184CEB0C0716EB000847EB0C092D
:101FF0004FEAC90343EA58734FEAC802904699462C
:1020000062680021921841EB01031BEB08004CEBC6
:102010000901FEF72DF90C4DA5FB00325109642290
:1020200002FB1102D3003233A5FB03235B095A00E4
:1020300002F4F87202EB011203F007032168134463
:102040008B60C9E7001001401F85EB512DE9F0417D
:1020500005460F4616469846069C2B681B6837EACD
:1020600003030CBF01230023B3421DD1B4F1FF3F92
:10207000F3D02CB1FEF7C6FAA0EB0800A042ECD9D1
:102080002A68D36823F4D073D3602A68536923F095
:1020900001035361202385F83D3085F83E3000234D
:1020A00085F83C30032000E00020BDE8F08158B303
:1020B00010B5044690F83D300BB3242384F83D302E
:1020C0002268D36823F40053D3602046FFF724FF2F
:1020D0002268136923F4904313612268536923F043
:1020E0002A0353612268D36843F40053D36000206D
:1020F0002064202384F83D3084F83E3010BD80F801
:102100003C3000F09BFBD8E7012070472DE9F041FF
:1021100082B01E4690F83D30DBB2202B54D10446ED
:102120000D469046002954D0002A54D090F83C30F7
:10213000012B52D0012380F83C300023036421237B
:1021400080F83D30FEF75EFA0746A4F82480A4F834
:102150002680A368B3F5805F05D04FF00008002308
:1021600084F83C3011E0236913B14FF00008F6E722
:10217000A8460025F3E738F8023B2268C3F30803BA
:102180005360E38C013B9BB2E384E38C9BB273B15D
:1021900000963B46002280212046FFF757FFF0B90A
:1021A000002DE8D015F8012B23685A60E9E7009666
:1021B0003B46002240212046FFF748FF034680B9F6
:1021C000202284F83D2000E00223184602B0BDE83A
:1021D000F0810123F9E70123F7E70223F5E7032361
:1021E000F3E70323F1E72DE9F04182B01E4690F8B2
:1021F0003E30DBB2202B5BD104460D4690460029D1
:102200005AD0002A5AD090F83C30012B58D00123E4
:1022100080F83C3000230364222280F83E200363D0
:10222000FEF7F0F90746A4F82C80A4F82E80A368E6
:10223000B3F5805F05D04FF00008002384F83C30F0
:1022400016E0236913B14FF00008F6E7A846002511
:10225000F3E723685B68C3F3080328F8023B03E055
:1022600023685B682B700135E38D013B9BB2E385EE
:10227000E38D9BB2BBB100963B4600222021204655
:10228000FFF7E4FEF0B9002DE3D0A368B3F5805F5B
:10229000E6D013B92369002BE2D023685B6803F012
:1022A0007F032B70DFE7202384F83E30002000E01E
:1022B000022002B0BDE8F0810120FAE70120F8E732
:1022C0000220F6E70320F4E72DE9F04F8DB000245B
:1022D0000794089409940A940B9401946F4B1A6B19
:1022E00042F010021A631A6B02F010020192019A76
:1022F00002941A6B42F004021A631A6B02F0040291
:102300000292029A03941A6B42F080021A631A6BCB
:1023100002F080020392039A04941A6B42F00102C5
:102320001A631A6B02F001020492049A05941A6B64
:1023300042F002021A631A6B02F002020592059A39
:1023400006941A6B42F008021A631B6B03F0080331
:102350000693069B524E012204213046FEF7C0FA36
:10236000224608213046FEF7BBFADFF84081012201
:1023700011464046FEF7B4FADFF8349122464FF298
:1023800010014846FEF7ACFA0C2307930125089587
:1023900009940A9407A93046FEF7B8F907950895FD
:1023A00009940A9407A94046FEF7B0F90823079359
:1023B0000227089709940A944FF0050ACDF82CA03B
:1023C00007A94046FEF7A2F94FF0040BCDF81CB068
:1023D00008940994A8F5806807A94046FEF796F985
:1023E0004FF480630793089709940A94CDF82CA0C2
:1023F00007A94046FEF78AF94FF2100307930895A4
:1024000009940A9407A94846FEF780F94FF400732F
:10241000079308940994DFF89CA007A95046FEF79B
:1024200075F94FF4E0530793089709940A940A2327
:102430000B9307A95046FEF769F9202307930894E8
:10244000099407A94846FEF761F94FF41073079302
:102450001223089309950A94CDF82CB007A9404699
:10246000FEF754F907950F4B0893099407A93046D6
:10247000FEF74CF907970C4B0893099407A93046CF
:10248000FEF744F9224621460620FEF7E7F806202B
:10249000FEF718F90DB0BDE8F08F00BF003802401C
:1024A000001002400000111000001210000802404D
:1024B000000C02400000024008B50948094B0360C7
:1024C0004FF40072426000238360C3600261064AD9
:1024D00042618361C3610362FEF720FA08BD00BF59
:1024E00044010020003C00400077010008B50C4882
:1024F0000C4B03604FF48273436000238360C3601E
:10250000036143614FF4007282611822C261036269
:10251000436283620A23C362FFF700FA08BD00BF6B
:10252000A80000200030014008B50848084B0360AF
:102530004FF4E133436000238360C36003610C22E6
:1025400042618361C361FFF7B2FD08BD0001002055
:102550000044004070B598B0302200210DEB02001D
:1025600000F082FA00240794089409940A940B94CA
:1025700003940494059406940194204B1A6C42F041
:1025800080521A641B6C03F080530193019B0294E8
:102590001B4B1A6842F480421A601B6803F48043A4
:1025A0000293029B01260C964FF480330D93022573
:1025B00012954FF480031393082314934FF4A873D8
:1025C00015931695072317930CA8FEF79DFC0F2370
:1025D0000793089509944FF4A0530A934FF480533E
:1025E0000B93052107A8FEF7F7FE0396C02304937B
:1025F000059503A8FEF7C6FF18B070BD003802406D
:102600000070004008B5FDF7D7FFFFF7A3FFFFF705
:102610005BFEFFF751FFFFF769FFFFF785FF2F4CC8
:1026200020232370112363702D4D0022082128469A
:10263000FEF756F92B4E3223022221463046FFF791
:10264000CCF9012208212846FEF74AF9A02323707D
:10265000002208212846FEF743F9322301222146B1
:102660003046FFF7BAF9204C32230122214630468A
:10267000FFF79CFB012208212846FEF731F921785B
:102680001A4800F0F9F94FF480511948FEF72EF975
:10269000124CA9232370124D002208212846FEF770
:1026A0001FF9104E3223012221463046FFF795F9DB
:1026B0000D4C3223012221463046FFF777FB0122E1
:1026C00008212846FEF70CF96420FDF7A1FF94F9D4
:1026D0000010084800F0D0F9D5E700BFA4000020A2
:1026E00000100240A8000020A00000207038000860
:1026F000000C02408C38000800B583B00021009126
:102700000C4B5A6C42F480425A645A6C02F4804278
:102710000092009A01911A6C42F080521A641B6C6C
:1027200003F080530193019B0720FDF785FF03B061
:102730005DF804FB0038024070B588B000230393B5
:10274000049305930693079302681E4B9A4201D0A7
:1027500008B070BD0024009403F5FE331A6C42F4F7
:1027600000421A641A6C02F400420092009A01942A
:102770001A6B42F001021A631A6B02F00102019215
:10278000019A02941A6B42F004021A631B6B03F065
:1027900004030293029B102303930226049606254A
:1027A000079503A90848FDF7B1FF4FF4A45303931D
:1027B000049605940694079503A90448FDF7A6FF1F
:1027C000C6E700BF003C0040000002400008024095
:1027D00000B589B0002303930493059306930793F0
:1027E0000268144B9A4202D009B05DF804FB002144
:1027F000019103F584335A6C42F480525A645A6C46
:1028000002F480520192019A02911A6B42F0010285
:102810001A631B6B03F001030293029BE0230393F3
:10282000022304930523079303A90348FDF76EFFD2
:10283000DAE700BF003001400000024000B589B077
:102840000023039304930593069307930268154BA3
:102850009A4202D009B05DF804FB0021019103F512
:10286000FA331A6C42F400321A641A6C02F4003221
:102870000192019A02911A6B42F001021A631B6BDA
:1028800003F001030293029B0C230393022304939E
:10289000032306930723079303A90348FDF736FF95
:1028A000D8E700BF00440040000002407047FEE748
:1028B000FEE7FEE7FEE770477047704708B5FDF793
:1028C00095FE08BD08B50120FEF71AF808BD70B5E1
:1028D0000D461646002404E000F060F8287001342C
:1028E0000135B442F8DB304670BD70B516460024A1
:1028F00005E04D1C087800F03FF801342946B44249
:10290000F7DB304670BD000008B503460B4A12687D
:1029100042B10A4A106803446A46934206D8074AFD
:10292000136008BD054A06491160F2E700F072F82D
:102930000C2303604FF0FF30F3E700BF8C00002052
:10294000900100204FF0FF3070474FF400534B6070
:10295000002070470120704700207047054BD3F8D6
:10296000882042F47002C3F888204FF000629A6019
:10297000704700BF00ED00E000B583B002A941F848
:10298000040D4FF6FF7301220348FFF7BFFB012040
:1029900003B05DF804FB00BF0001002000B583B068
:1029A0004FF6FF7301220DF107010448FFF71BFCEE
:1029B0009DF8070003B05DF804FB00BF0001002094
:1029C000DFF834D0002103E00C4B5B584350043156
:1029D0000B480C4B42189A42F6D30B4A02E00023F4
:1029E00042F8043B094B9A42F9D3FFF7B7FF00F0D6
:1029F00017F8FFF707FE704700000220483900086B
:102A000000000020700000207000002090010020D5
:102A1000FEE70000014B1868704700BF0C00002063
:102A200070B50D4E0D4CA41BA4100025A54209D174
:102A30000B4E0C4C00F004FFA41BA4100025A54273
:102A400005D170BD56F8253098470135EEE756F8A8
:102A5000253098470135F2E7403900084039000831
:102A6000403900084439000802440346934200D12B
:102A7000704703F8011BF9E70FB40A4B13B51C6844
:102A800024B1A36913B9204600F04EF805AB049AAF
:102A9000A1680193204600F055F902B0BDE810404E
:102AA00004B070470C000020002310B50446C0E9B4
:102AB0000033836081814366C281C0E9043383614E
:102AC000194608225C30FFF7CFFF054B6362054BC8
:102AD000A362054BE362054B2462236310BD00BF74
:102AE000A1320008C3320008FB3200081F3300087F
:102AF000014900F085B800BFF935000870B54A1EDD
:102B0000682555430E4605F1740100F097F8044618
:102B100040B10021C0E900160C30A06005F1680248
:102B2000FFF7A2FF204670BD836910B5044633BB92
:102B3000C0E912330365124B124A1B688262984245
:102B400004BF0123836100F01FF86060204600F09D
:102B50001BF8A060204600F017F80022E060042176
:102B60006068FFF7A1FF01220921A068FFF79CFF21
:102B700002221221E068FFF797FF0123A36110BD35
:102B8000A0380008F12A0008F8B51B4B1E68B3698D
:102B9000074613B93046FFF7C7FF4836D6E9013478
:102BA000013B03D5336833B13668F7E7B4F90C500D
:102BB0006DB16834F4E704213846FFF79FFF3060B9
:102BC0000028F1D10C233B6004462046F8BD0B4B96
:102BD0006566C4E90055A560C4E90335C4E9055537
:102BE0000822294604F15C00FFF73EFFC4E90D55B9
:102BF000C4E91255E9E700BFA03800080100FFFF53
:102C00002DE9F8438046894600F14804002614B9AE
:102C10003046BDE8F883D4E90175013F01D5246849
:102C2000F5E7AB89012B07D9B5F90E30013303D095
:102C300029464046C84706436835EEE770B5CD1CC7
:102C400025F0030508350C2D38BF0C25002D064650
:102C500001DBA94203D90C233360002070BD00F0D2
:102C60006BFD214A1468214691B9204C23681BB999
:102C7000304600F005FB20602946304600F000FB9E
:102C8000431C24D10C233360304600F056FDE4E7AA
:102C90000B685B1B18D40B2B0FD90B60CD50CC18D5
:102CA000304600F04AFD04F10B00231D20F0070020
:102CB000C31AD3D05A42E250D0E78C424B6816BFB9
:102CC000636013600C46EBE70C464968CCE7C41C14
:102CD00024F00304A04205D0211A304600F0D0FAB7
:102CE0000130CFD02560DBE7940000209800002061
:102CF0009368013B002B10B4936008DA9469A342F7
:102D000001DB0A2903D15DF8044B00F00DBB136809
:102D1000581C1060197008465DF8044B7047F8B5F0
:102D200006460F461446D518AC4201D1002007E0F4
:102D30003A4614F8011B3046FFF7DAFF431CF3D183
:102D4000F8BD00002DE9F04F0C469DB017461D461A
:102D5000064618B183690BB9FFF7E6FE7C4B9C422F
:102D600058D17468A38918075ED52369002B5BD0FE
:102D70000023099320238DF8293030238DF82A3041
:102D800003954FF0010BB846454615F8013B0BB1D2
:102D9000252B54D1B8EB070A0BD053463A462146AF
:102DA0003046FFF7BCFF013000F0C280099B53445E
:102DB000099398F80030002B00F0BA8000234FF000
:102DC000FF32CDE90523049307938DF853301A930E
:102DD000A846052218F8011B5E48FDF7F9F9049B87
:102DE00078BBD90644BF20228DF853201A0744BF70
:102DF0002B228DF853202A782A2A2AD0079AA8460F
:102E000000200A25414611F8013B303B092B69D9C6
:102E100060B324E0504B9C4201D1B468A2E74F4B11
:102E20009C4208BFF4689DE72146304600F0E0FA76
:102E300000289DD04FF0FF301DB0BDE8F08FA846B0
:102E4000A2E7444A801A0BFA00F018430490454662
:102E5000BEE7039A111D12680391002A01DB079255
:102E600004E0524243F002030792049398F80030C2
:102E70002E2B0ED198F801302A2B38D1039B1A1D26
:102E80001B680392002BB8BF4FF0FF3308F1020814
:102E90000593334D98F8001003222846FDF798F962
:102EA00040B14023401B03FA00F0049B034308F1A8
:102EB0000108049398F800102A488DF8281006227B
:102EC00008F10107FDF784F9002837D0264B1BBB1A
:102ED000039B073323F0070308330393099B4B44F9
:102EE000099350E705FB0232012088468AE7002358
:102EF00008F10108059319460A25404610F8012BF0
:102F0000303A092A03D9002BC3D00591C1E705FB4C
:102F1000012101238046F0E703AB00932246134BC7
:102F200004A93046AFF30080B0F1FF3F8146D5D110
:102F3000A3895B063FF57EAF09987DE703AB00935D
:102F400022460A4B04A9304600F088F8ECE700BF9F
:102F5000C438000804390008E4380008A438000820
:102F60000A3900080E390008000000001F2D000873
:102F70002DE9F04791461F468A680B69DDF82080ED
:102F80009342B8BF1346C9F8003091F84320064673
:102F90000C4612B10133C9F800302368990642BFCC
:102FA000D9F800300233C9F80030256815F006055D
:102FB00007D104F1190AE368D9F800209B1AAB4243
:102FC00028DC94F843302268003318BF01239206AE
:102FD0002DD404F1430239463046C047013020D099
:102FE0002368E568D9F8002003F00603042B08BF26
:102FF000AD1AA36822690CBF25EAE5750025934246
:10300000C4BF9B1AED184FF000091A344D451AD170
:10301000002008E00123524639463046C0470130BF
:1030200003D14FF0FF30BDE8F0870135C3E7E11869
:103030005A1C302081F84300224494F8451082F84D
:1030400043100233C5E70123224639463046C047C4
:103050000130E6D009F10109D8E700002DE9F0437D
:1030600001F1430C0C46097E85B06E2917460646D1
:1030700098460C9A00F0B38022D8632936D00AD83B
:10308000002900F0B980582900F0838004F142053E
:1030900084F8421032E0642901D06929F6D1206811
:1030A0001368050603F104012AD51B681160002B83
:1030B00003DA2D225B4284F843206F480A2239E06C
:1030C000732900F09D8008D86F2920D07029DDD1A8
:1030D000236843F02003236003E0752917D0782983
:1030E000D4D1782384F84530644855E01368191D1D
:1030F0001B68116004F1420584F8423001238CE022
:103100001B68116010F0400F18BF1BB2CFE71368A7
:103110002568181D1060280601D51B6802E06806A6
:10312000FBD51B8854486F2914BF0A2208220021AE
:1031300084F843106568A560002DC0F29580216871
:1031400021F004012160002B3DD1002D40F08E8044
:103150006546082A0BD12368DB0708D52369626816
:103160009A42DEBF302305F8013C05F1FF35ACEB98
:1031700005032361CDF800803B4603AA2146304673
:10318000FFF7F6FE01304DD14FF0FF3005B0BDE83E
:10319000F083394884F84510136821681D1D1B68A9
:1031A00015600A060BD5CA0744BF41F02001216013
:1031B0001BB9226822F0200222601022B7E74D06D8
:1031C00048BF9BB2EFE76546B3FBF2F102FB113358
:1031D000C35C05F8013D0B460029F5D1B9E713683A
:1031E00025686169181D106028061B6801D51960E3
:1031F00002E06A06FBD51980002323616546B9E722
:103200001368191D11601D68626800212846FCF7CB
:10321000DFFF08B1401B606063682361002384F80E
:103220004330A7E723692A4639463046C047013074
:10323000AAD023689B0713D4E068039B9842B8BFC9
:103240001846A3E701234A4639463046C0470130B5
:103250009AD00135E368039A9B1AAB42F2DCEBE7A4
:10326000002504F11909F5E7002BACD1037884F8A7
:10327000423004F142056CE7153900082639000890
:1032800038B5064C0023054608462360FFF73CFB93
:10329000431C02D1236803B12B6038BD8C01002090
:1032A00010B50C46B1F90E1000F096FA0028ABBF2D
:1032B000636DA3891B1823F48053ACBF6365A3819E
:1032C00010BD2DE9F0411F468B89DB0505460C46F4
:1032D000164605D502230022B1F90E1000F0B6F90A
:1032E000A389B4F90E1023F48053A38132463B46E0
:1032F0002846BDE8F04100F069B810B50C46B1F9B8
:103300000E1000F0A3F9431CA38915BF606523F4D8
:10331000805343F48053A38118BFA38110BDB1F93A
:103320000E1000F0D3B80000F8B50E46144605465E
:1033300018B183690BB9FFF7F7FB214B9C422AD1E7
:103340006C68A369A360A3891A072ED5236963B3A8
:1033500023692068C01A6369F6B28342374604DCE9
:103360002146284600F048F928BBA368013BA3602A
:1033700023685A1C22601E7063690130834204D0A6
:10338000A389DB0719D50A2E17D12146284600F05C
:1033900033F990B10FE00B4B9C4201D1AC68D0E700
:1033A000094B9C4208BFEC68CBE72146284600F059
:1033B0001FF80028CCD04FF0FF373846F8BD00BFCB
:1033C000C4380008E4380008A438000838B5074CB1
:1033D000054608461146002222601A46FFF785FA84
:1033E000431C02D1236803B12B6038BD8C0100203F
:1033F000324B70B51D6806460C4625B1AB6913B952
:103400002846FFF791FB2E4B9C420FD16C68B4F914
:103410000C309AB215072CD4D00611D40922326090
:1034200043F04003A3814FF0FF303EE0254B9C4228
:1034300001D1AC68EBE7244B9C4208BFEC68E6E79F
:10344000510712D5616B41B104F14403994202D096
:10345000304600F073F900236363A38923F024034B
:10346000A3810023636023692360A38943F00803D9
:10347000A38123694BB9A38903F42073B3F5007FBB
:1034800003D02146304600F017F9A28912F001035B
:103490000CD00023A36063695B42A361236953B925
:1034A000B4F90C3013F08000BAD170BD920758BF48
:1034B0006369A360F2E70020F7E700BF0C0000207B
:1034C000C4380008E4380008A438000838B5064CB1
:1034D0000023054608462360FFF734FA431C02D157
:1034E000236803B12B6038BD8C0100208A892DE947
:1034F000F041054610070C4658D44B68002B05DCFC
:103500000B6C002B02DC0020BDE8F081E66A002E87
:10351000F9D0002312F480522F68216A2B6032D038
:10352000606DA3895A0705D56368C01A636B0BB138
:10353000236CC01A00230246E66A216A2846B04777
:10354000431CA38906D129681D2948D8294ACA40A5
:10355000D60744D500226260D9042269226004D5CE
:10356000421C01D12B6803B96065616B2F60002993
:10357000C9D004F14403994202D0284600F0DEF895
:1035800000206063C0E701232846B047411CC8D132
:103590002B68002BC5D01D2B01D0162B01D12F601D
:1035A000B1E7A38943F04003A381ADE70F69002F82
:1035B000A9D093070E6808BF4B690F6018BF00239E
:1035C000A6EB07088B60B8F1000F9CDD43463A4636
:1035D000216AA66A2846B047002806DCA38943F082
:1035E0004003A3814FF0FF308EE70744A8EB0008AB
:1035F000E9E700BF0100402038B50B6905460C46DD
:10360000DBB118B183690BB9FFF78EFA0C4B9C4202
:1036100009D16C68B4F90C307BB121462846BDE86D
:103620003840FFF763BF074B9C4201D1AC68F1E71C
:10363000054B9C4208BFEC68ECE7002038BD00BF9A
:10364000C4380008E4380008A438000838B5074C2E
:10365000054608461146002222601A46FFF77CF90B
:10366000431C02D1236803B12B6038BD8C010020BC
:1036700070B50E46B1F90E10002996B014461D46DD
:1036800007DA00232B60B3891A0610D44FF4806345
:103690000EE06A4600F0B2F80028F2DB019A02F46C
:1036A0007042A2F500535A425A412A60EEE7402385
:1036B0000020236016B070BD8B8973B59D07064648
:1036C0000C4607D504F1470323602361012363619E
:1036D00002B070BD01AB6A46FFF7CAFF009905460C
:1036E0003046FFF7ABFA48B9B4F90C309A05EFD47D
:1036F00023F0030343F00203A381E3E70D4BB3621E
:10370000A389206043F08003A381009B6361019B38
:1037100020615BB1B4F90E10304600F081F828B199
:10372000A38923F0030343F00103A381A3891D436D
:10373000A581CDE7F12A00087047704738B50546E6
:10374000002945D051F8043C0C1F002BB8BFE418E9
:10375000FFF7F2FF1F4A1368104633B96360146025
:103760002846BDE83840FFF7E8BFA3420CD92168DE
:103770006218934204BF1A685B68636004BF521802
:1037800022600460ECE713465A680AB1A242FAD9F3
:1037900019685818A0420BD1206801445818824279
:1037A0001960DDD1106852685A6001441960D7E78A
:1037B00002D90C232B60D3E7206821188A4204BF6A
:1037C00011685268626004BF091821605C60C7E735
:1037D00038BD00BF9400002038B5074C05460846A8
:1037E0001146002222601A46FFF771F8431C02D1ED
:1037F000236803B12B6038BD8C01002038B5074C1D
:1038000000230546084611462360FFF79EF8431C37
:1038100002D1236803B12B6038BD00BF8C010020AA
:1038200038B5064C0023054608462360FFF792F89A
:10383000431C02D1236803B12B6038BD8C010020EA
:10384000F8B500BFF8BC08BC9E467047F8B500BF8D
:08385000F8BC08BC9E4670475D
:103858000000000000000000010203040607080938
:103868000000000001020304436F6E74726F6C2045
:1038780076616C75652072656164203D2025640A57
:103888000000000056616C75652072656164203D1A
:103898002025640A0000000010000020000000003D
:1038A8000000000000000000000000000000000010
:1038B8000000000000000000000000000000000000
:1038C80000000000000000000000000000000000F0
:1038D80000000000000000000000000000000000E0
:1038E80000000000000000000000000000000000D0
:1038F800000000000000000000000000232D302B15
:103908002000686C4C0065666745464700303132D8
:10391800333435363738394142434445460030312F
:10392800323334353637383961626364656600008E
:0839380068C9FF7F01000000D7
:04394000B5010008C5
:0439440091010008E5
:1039480001000000100000000024F4001000002016
:1039580000000000C4380008E4380008A438000853
:10396800000000000000000000000000000000004F
:10397800000000000000000000000000000000003F
:10398800000000000000000000000000000000002F
:10399800000000000000000000000000000000001F
:1039A800000000000000000000000000000000000F
:04000005080029C105
:00000001FF
